{"abi":[{"type":"constructor","inputs":[{"name":"_exporter","type":"address","internalType":"address"},{"name":"_importer","type":"address","internalType":"address"},{"name":"_oracleRelayer","type":"address","internalType":"address"},{"name":"_admin","type":"address","internalType":"address"},{"name":"_settlementToken","type":"address","internalType":"address"},{"name":"_invoiceAmount","type":"uint256","internalType":"uint256"},{"name":"_sourceCurrency","type":"bytes32","internalType":"bytes32"},{"name":"_settlementCurrency","type":"bytes32","internalType":"bytes32"},{"name":"_dueDate","type":"uint256","internalType":"uint256"},{"name":"_invoiceRef","type":"string","internalType":"string"},{"name":"_bridgeReceiver","type":"address","internalType":"address"},{"name":"_courtFactory","type":"address","internalType":"address"}],"stateMutability":"nonpayable"},{"type":"function","name":"MANUAL_REVIEW_WINDOW","inputs":[],"outputs":[{"name":"","type":"uint256","internalType":"uint256"}],"stateMutability":"view"},{"type":"function","name":"ORACLE_TYPE","inputs":[],"outputs":[{"name":"","type":"bytes32","internalType":"bytes32"}],"stateMutability":"view"},{"type":"function","name":"acceptShipment","inputs":[],"outputs":[],"stateMutability":"nonpayable"},{"type":"function","name":"admin","inputs":[],"outputs":[{"name":"","type":"address","internalType":"address"}],"stateMutability":"view"},{"type":"function","name":"arbitrator","inputs":[],"outputs":[{"name":"","type":"address","internalType":"address"}],"stateMutability":"view"},{"type":"function","name":"bridgeReceiver","inputs":[],"outputs":[{"name":"","type":"address","internalType":"address"}],"stateMutability":"view"},{"type":"function","name":"cancelAndRefund","inputs":[{"name":"reasonCode","type":"uint8","internalType":"uint8"}],"outputs":[],"stateMutability":"nonpayable"},{"type":"function","name":"contestDeadline","inputs":[],"outputs":[{"name":"","type":"uint256","internalType":"uint256"}],"stateMutability":"view"},{"type":"function","name":"contestShipment","inputs":[{"name":"courtSheetACid","type":"string","internalType":"string"},{"name":"courtSheetBCid","type":"string","internalType":"string"},{"name":"statement","type":"string","internalType":"string"},{"name":"guidelineVersion","type":"string","internalType":"string"}],"outputs":[],"stateMutability":"nonpayable"},{"type":"function","name":"courtContract","inputs":[],"outputs":[{"name":"","type":"address","internalType":"address"}],"stateMutability":"view"},{"type":"function","name":"courtFactory","inputs":[],"outputs":[{"name":"","type":"address","internalType":"address"}],"stateMutability":"view"},{"type":"function","name":"currentDueDate","inputs":[],"outputs":[{"name":"","type":"uint256","internalType":"uint256"}],"stateMutability":"view"},{"type":"function","name":"currentNotional","inputs":[],"outputs":[{"name":"","type":"uint256","internalType":"uint256"}],"stateMutability":"view"},{"type":"function","name":"exceptionFlagged","inputs":[],"outputs":[{"name":"","type":"bool","internalType":"bool"}],"stateMutability":"view"},{"type":"function","name":"exceptionPaused","inputs":[],"outputs":[{"name":"","type":"bool","internalType":"bool"}],"stateMutability":"view"},{"type":"function","name":"exceptionReasonCode","inputs":[],"outputs":[{"name":"","type":"uint8","internalType":"uint8"}],"stateMutability":"view"},{"type":"function","name":"exceptionRef","inputs":[],"outputs":[{"name":"","type":"bytes32","internalType":"bytes32"}],"stateMutability":"view"},{"type":"function","name":"exporter","inputs":[],"outputs":[{"name":"","type":"address","internalType":"address"}],"stateMutability":"view"},{"type":"function","name":"finalizeAfterShipment","inputs":[],"outputs":[],"stateMutability":"nonpayable"},{"type":"function","name":"flagException","inputs":[{"name":"reasonCode","type":"uint8","internalType":"uint8"},{"name":"evidenceRef","type":"bytes32","internalType":"bytes32"}],"outputs":[],"stateMutability":"nonpayable"},{"type":"function","name":"fulfilledBps","inputs":[],"outputs":[{"name":"","type":"uint256","internalType":"uint256"}],"stateMutability":"view"},{"type":"function","name":"fundSettlement","inputs":[],"outputs":[],"stateMutability":"nonpayable"},{"type":"function","name":"fundedAmount","inputs":[],"outputs":[{"name":"","type":"uint256","internalType":"uint256"}],"stateMutability":"view"},{"type":"function","name":"getLockedRate","inputs":[],"outputs":[{"name":"","type":"tuple","internalType":"struct TradeFxSettlement.RateInfo","components":[{"name":"rate","type":"uint256","internalType":"uint256"},{"name":"benchmarkType","type":"bytes32","internalType":"bytes32"},{"name":"benchmarkId","type":"bytes32","internalType":"bytes32"},{"name":"asOfTimestamp","type":"uint256","internalType":"uint256"}]}],"stateMutability":"view"},{"type":"function","name":"getOracleArgs","inputs":[],"outputs":[{"name":"","type":"bytes","internalType":"bytes"}],"stateMutability":"view"},{"type":"function","name":"getOracleType","inputs":[],"outputs":[{"name":"","type":"bytes32","internalType":"bytes32"}],"stateMutability":"pure"},{"type":"function","name":"getRollHistory","inputs":[],"outputs":[{"name":"","type":"tuple[]","internalType":"struct TradeFxSettlement.RollRecord[]","components":[{"name":"priorRate","type":"uint256","internalType":"uint256"},{"name":"rolledRate","type":"uint256","internalType":"uint256"},{"name":"rollCost","type":"uint256","internalType":"uint256"},{"name":"priorDueDate","type":"uint256","internalType":"uint256"},{"name":"newDueDate","type":"uint256","internalType":"uint256"},{"name":"benchmarkId","type":"bytes32","internalType":"bytes32"},{"name":"asOfTimestamp","type":"uint256","internalType":"uint256"}]}],"stateMutability":"view"},{"type":"function","name":"getSummary","inputs":[],"outputs":[{"name":"_status","type":"uint8","internalType":"enum TradeFxSettlement.Status"},{"name":"_invoiceAmount","type":"uint256","internalType":"uint256"},{"name":"_currentNotional","type":"uint256","internalType":"uint256"},{"name":"_settlementAmount","type":"uint256","internalType":"uint256"},{"name":"_fundedAmount","type":"uint256","internalType":"uint256"},{"name":"_currentDueDate","type":"uint256","internalType":"uint256"},{"name":"_contestDeadline","type":"uint256","internalType":"uint256"},{"name":"_rollCount","type":"uint256","internalType":"uint256"},{"name":"_exceptionFlagged","type":"bool","internalType":"bool"},{"name":"_courtContract","type":"address","internalType":"address"},{"name":"_arbitrator","type":"address","internalType":"address"}],"stateMutability":"view"},{"type":"function","name":"icCaseId","inputs":[],"outputs":[{"name":"","type":"uint256","internalType":"uint256"}],"stateMutability":"view"},{"type":"function","name":"importer","inputs":[],"outputs":[{"name":"","type":"address","internalType":"address"}],"stateMutability":"view"},{"type":"function","name":"invoiceAmount","inputs":[],"outputs":[{"name":"","type":"uint256","internalType":"uint256"}],"stateMutability":"view"},{"type":"function","name":"invoiceRef","inputs":[],"outputs":[{"name":"","type":"string","internalType":"string"}],"stateMutability":"view"},{"type":"function","name":"lockedRate","inputs":[],"outputs":[{"name":"rate","type":"uint256","internalType":"uint256"},{"name":"benchmarkType","type":"bytes32","internalType":"bytes32"},{"name":"benchmarkId","type":"bytes32","internalType":"bytes32"},{"name":"asOfTimestamp","type":"uint256","internalType":"uint256"}],"stateMutability":"view"},{"type":"function","name":"oracleRelayer","inputs":[],"outputs":[{"name":"","type":"address","internalType":"address"}],"stateMutability":"view"},{"type":"function","name":"processBridgeMessage","inputs":[{"name":"","type":"uint32","internalType":"uint32"},{"name":"","type":"address","internalType":"address"},{"name":"_message","type":"bytes","internalType":"bytes"}],"outputs":[],"stateMutability":"nonpayable"},{"type":"function","name":"receiveRate","inputs":[{"name":"rate","type":"uint256","internalType":"uint256"},{"name":"benchmarkType","type":"bytes32","internalType":"bytes32"},{"name":"benchmarkId","type":"bytes32","internalType":"bytes32"},{"name":"asOfTimestamp","type":"uint256","internalType":"uint256"}],"outputs":[],"stateMutability":"nonpayable"},{"type":"function","name":"receiveRolledRate","inputs":[{"name":"newRate","type":"uint256","internalType":"uint256"},{"name":"rollCost","type":"uint256","internalType":"uint256"},{"name":"benchmarkId","type":"bytes32","internalType":"bytes32"},{"name":"asOfTimestamp","type":"uint256","internalType":"uint256"}],"outputs":[],"stateMutability":"nonpayable"},{"type":"function","name":"requestRateLock","inputs":[],"outputs":[],"stateMutability":"nonpayable"},{"type":"function","name":"requestRoll","inputs":[{"name":"newDueDate","type":"uint256","internalType":"uint256"}],"outputs":[],"stateMutability":"nonpayable"},{"type":"function","name":"resize","inputs":[{"name":"newFulfilledBps","type":"uint256","internalType":"uint256"}],"outputs":[],"stateMutability":"nonpayable"},{"type":"function","name":"resolveManualReview","inputs":[{"name":"timeliness","type":"bool","internalType":"bool"},{"name":"reason","type":"string","internalType":"string"}],"outputs":[],"stateMutability":"nonpayable"},{"type":"function","name":"resolveShipmentVerdict","inputs":[{"name":"verdict","type":"uint8","internalType":"uint8"},{"name":"caseId","type":"string","internalType":"string"},{"name":"reasonSummary","type":"string","internalType":"string"}],"outputs":[],"stateMutability":"nonpayable"},{"type":"function","name":"rollCount","inputs":[],"outputs":[{"name":"","type":"uint256","internalType":"uint256"}],"stateMutability":"view"},{"type":"function","name":"setArbitrator","inputs":[{"name":"_arb","type":"address","internalType":"address"}],"outputs":[],"stateMutability":"nonpayable"},{"type":"function","name":"setCourtContract","inputs":[{"name":"_court","type":"address","internalType":"address"}],"outputs":[],"stateMutability":"nonpayable"},{"type":"function","name":"setExceptionPause","inputs":[{"name":"paused","type":"bool","internalType":"bool"}],"outputs":[],"stateMutability":"nonpayable"},{"type":"function","name":"setResolution","inputs":[{"name":"verdict","type":"uint8","internalType":"uint8"},{"name":"reasoning","type":"string","internalType":"string"}],"outputs":[],"stateMutability":"nonpayable"},{"type":"function","name":"settle","inputs":[],"outputs":[],"stateMutability":"nonpayable"},{"type":"function","name":"settlementAmount","inputs":[],"outputs":[{"name":"","type":"uint256","internalType":"uint256"}],"stateMutability":"view"},{"type":"function","name":"settlementCurrency","inputs":[],"outputs":[{"name":"","type":"bytes32","internalType":"bytes32"}],"stateMutability":"view"},{"type":"function","name":"settlementToken","inputs":[],"outputs":[{"name":"","type":"address","internalType":"contract IERC20"}],"stateMutability":"view"},{"type":"function","name":"shipmentCaseId","inputs":[],"outputs":[{"name":"","type":"string","internalType":"string"}],"stateMutability":"view"},{"type":"function","name":"shipmentCourtSheetACid","inputs":[],"outputs":[{"name":"","type":"string","internalType":"string"}],"stateMutability":"view"},{"type":"function","name":"shipmentCourtSheetBCid","inputs":[],"outputs":[{"name":"","type":"string","internalType":"string"}],"stateMutability":"view"},{"type":"function","name":"shipmentGuidelineVersion","inputs":[],"outputs":[{"name":"","type":"string","internalType":"string"}],"stateMutability":"view"},{"type":"function","name":"shipmentManifestCid","inputs":[],"outputs":[{"name":"","type":"string","internalType":"string"}],"stateMutability":"view"},{"type":"function","name":"shipmentReviewRequired","inputs":[],"outputs":[{"name":"","type":"bool","internalType":"bool"}],"stateMutability":"view"},{"type":"function","name":"shipmentStatement","inputs":[],"outputs":[{"name":"","type":"string","internalType":"string"}],"stateMutability":"view"},{"type":"function","name":"shipmentStatus","inputs":[],"outputs":[{"name":"","type":"uint8","internalType":"enum TradeFxSettlement.ShipmentStatus"}],"stateMutability":"view"},{"type":"function","name":"shipmentVerdictAt","inputs":[],"outputs":[{"name":"","type":"uint256","internalType":"uint256"}],"stateMutability":"view"},{"type":"function","name":"shipmentVerdictReason","inputs":[],"outputs":[{"name":"","type":"string","internalType":"string"}],"stateMutability":"view"},{"type":"function","name":"sourceCurrency","inputs":[],"outputs":[{"name":"","type":"bytes32","internalType":"bytes32"}],"stateMutability":"view"},{"type":"function","name":"status","inputs":[],"outputs":[{"name":"","type":"uint8","internalType":"enum TradeFxSettlement.Status"}],"stateMutability":"view"},{"type":"function","name":"timeoutManualReview","inputs":[],"outputs":[],"stateMutability":"nonpayable"},{"type":"event","name":"ArbitratorSet","inputs":[{"name":"arbitrator","type":"address","indexed":true,"internalType":"address"},{"name":"by","type":"address","indexed":true,"internalType":"address"}],"anonymous":false},{"type":"event","name":"Cancelled","inputs":[{"name":"reasonCode","type":"uint8","indexed":false,"internalType":"uint8"},{"name":"by","type":"address","indexed":true,"internalType":"address"},{"name":"refundAmount","type":"uint256","indexed":false,"internalType":"uint256"},{"name":"refundTo","type":"address","indexed":true,"internalType":"address"}],"anonymous":false},{"type":"event","name":"CourtContractSet","inputs":[{"name":"courtContract","type":"address","indexed":true,"internalType":"address"},{"name":"by","type":"address","indexed":true,"internalType":"address"}],"anonymous":false},{"type":"event","name":"ExceptionFlagged","inputs":[{"name":"reasonCode","type":"uint8","indexed":false,"internalType":"uint8"},{"name":"evidenceRef","type":"bytes32","indexed":false,"internalType":"bytes32"},{"name":"flagger","type":"address","indexed":true,"internalType":"address"}],"anonymous":false},{"type":"event","name":"ExceptionPauseSet","inputs":[{"name":"paused","type":"bool","indexed":false,"internalType":"bool"},{"name":"by","type":"address","indexed":true,"internalType":"address"}],"anonymous":false},{"type":"event","name":"Funded","inputs":[{"name":"funder","type":"address","indexed":true,"internalType":"address"},{"name":"amount","type":"uint256","indexed":false,"internalType":"uint256"},{"name":"timestamp","type":"uint256","indexed":false,"internalType":"uint256"}],"anonymous":false},{"type":"event","name":"ManualReviewResolved","inputs":[{"name":"arbitrator","type":"address","indexed":true,"internalType":"address"},{"name":"timeliness","type":"bool","indexed":false,"internalType":"bool"},{"name":"reason","type":"string","indexed":false,"internalType":"string"},{"name":"timestamp","type":"uint256","indexed":false,"internalType":"uint256"}],"anonymous":false},{"type":"event","name":"ManualReviewTimedOut","inputs":[{"name":"caller","type":"address","indexed":true,"internalType":"address"},{"name":"timestamp","type":"uint256","indexed":false,"internalType":"uint256"}],"anonymous":false},{"type":"event","name":"NotionalResized","inputs":[{"name":"oldNotional","type":"uint256","indexed":false,"internalType":"uint256"},{"name":"newNotional","type":"uint256","indexed":false,"internalType":"uint256"},{"name":"newSettlementAmount","type":"uint256","indexed":false,"internalType":"uint256"},{"name":"fulfilledBps","type":"uint256","indexed":false,"internalType":"uint256"}],"anonymous":false},{"type":"event","name":"RateLockRequested","inputs":[{"name":"requester","type":"address","indexed":true,"internalType":"address"},{"name":"timestamp","type":"uint256","indexed":false,"internalType":"uint256"}],"anonymous":false},{"type":"event","name":"RateLocked","inputs":[{"name":"rate","type":"uint256","indexed":false,"internalType":"uint256"},{"name":"benchmarkType","type":"bytes32","indexed":false,"internalType":"bytes32"},{"name":"benchmarkId","type":"bytes32","indexed":false,"internalType":"bytes32"},{"name":"asOfTimestamp","type":"uint256","indexed":false,"internalType":"uint256"},{"name":"settlementAmount","type":"uint256","indexed":false,"internalType":"uint256"}],"anonymous":false},{"type":"event","name":"RateRolled","inputs":[{"name":"priorRate","type":"uint256","indexed":false,"internalType":"uint256"},{"name":"rolledRate","type":"uint256","indexed":false,"internalType":"uint256"},{"name":"rollCost","type":"uint256","indexed":false,"internalType":"uint256"},{"name":"oldDueDate","type":"uint256","indexed":false,"internalType":"uint256"},{"name":"newDueDate","type":"uint256","indexed":false,"internalType":"uint256"},{"name":"benchmarkId","type":"bytes32","indexed":false,"internalType":"bytes32"},{"name":"asOfTimestamp","type":"uint256","indexed":false,"internalType":"uint256"}],"anonymous":false},{"type":"event","name":"RollRequested","inputs":[{"name":"requester","type":"address","indexed":true,"internalType":"address"},{"name":"currentDueDate","type":"uint256","indexed":false,"internalType":"uint256"},{"name":"requestedNewDueDate","type":"uint256","indexed":false,"internalType":"uint256"},{"name":"timestamp","type":"uint256","indexed":false,"internalType":"uint256"}],"anonymous":false},{"type":"event","name":"Settled","inputs":[{"name":"exporter","type":"address","indexed":true,"internalType":"address"},{"name":"amount","type":"uint256","indexed":false,"internalType":"uint256"},{"name":"timestamp","type":"uint256","indexed":false,"internalType":"uint256"}],"anonymous":false},{"type":"event","name":"SettlementCancelledByVerdict","inputs":[{"name":"importer","type":"address","indexed":true,"internalType":"address"},{"name":"refundAmount","type":"uint256","indexed":false,"internalType":"uint256"}],"anonymous":false},{"type":"event","name":"SettlementManualReview","inputs":[{"name":"caseId","type":"string","indexed":false,"internalType":"string"},{"name":"reviewDeadline","type":"uint256","indexed":false,"internalType":"uint256"},{"name":"timestamp","type":"uint256","indexed":false,"internalType":"uint256"}],"anonymous":false},{"type":"event","name":"ShipmentAccepted","inputs":[{"name":"by","type":"address","indexed":true,"internalType":"address"},{"name":"afterDeadline","type":"bool","indexed":false,"internalType":"bool"},{"name":"timestamp","type":"uint256","indexed":false,"internalType":"uint256"}],"anonymous":false},{"type":"event","name":"ShipmentContested","inputs":[{"name":"contestant","type":"address","indexed":true,"internalType":"address"},{"name":"manifestCid","type":"string","indexed":false,"internalType":"string"},{"name":"statement","type":"string","indexed":false,"internalType":"string"},{"name":"contestDeadline","type":"uint256","indexed":false,"internalType":"uint256"},{"name":"timestamp","type":"uint256","indexed":false,"internalType":"uint256"}],"anonymous":false},{"type":"event","name":"ShipmentVerdictReceived","inputs":[{"name":"verdict","type":"uint8","indexed":false,"internalType":"uint8"},{"name":"caseId","type":"string","indexed":false,"internalType":"string"},{"name":"reasonSummary","type":"string","indexed":false,"internalType":"string"},{"name":"deliveredBy","type":"address","indexed":true,"internalType":"address"},{"name":"fromCourtContract","type":"bool","indexed":false,"internalType":"bool"},{"name":"timestamp","type":"uint256","indexed":false,"internalType":"uint256"}],"anonymous":false},{"type":"event","name":"TradeCreated","inputs":[{"name":"exporter","type":"address","indexed":true,"internalType":"address"},{"name":"importer","type":"address","indexed":true,"internalType":"address"},{"name":"invoiceAmount","type":"uint256","indexed":false,"internalType":"uint256"},{"name":"dueDate","type":"uint256","indexed":false,"internalType":"uint256"},{"name":"invoiceRef","type":"string","indexed":false,"internalType":"string"}],"anonymous":false},{"type":"error","name":"SafeERC20FailedOperation","inputs":[{"name":"token","type":"address","internalType":"address"}]}],"bytecode":{"object":"0x60806040523461058e5761429e8038038061001981610592565b9283398101906101808183031261058e57610033816105b7565b61003f602083016105b7565b9161004c604082016105b7565b93610059606083016105b7565b610065608084016105b7565b9360a08401519360c081015160e0820151906101008301519761012084015160018060401b03811161058e5784019587601f8801121561058e5786516001600160401b03811161040b576100c2601f8201601f1916602001610592565b9781895260208901996020838301011161058e57815f9260208093018c5e890101526100fe6101606100f761014088016105b7565b96016105b7565b6001600160a01b039096169a8b15610554576001600160a01b03169b8c1561051a576001600160a01b03169182156104e1576001600160a01b03169182156104aa57891561047157428b111561042c575f80546001600160a01b03199081168e179091556001805482168f179055600280549091169190911790556001600160a01b0381161580159061042657815b600380546001600160a01b0319166001600160a01b03929092169190911790551561041f575b600680546001600160a01b03929092166001600160a01b03199283161790556007805490911691909117905560088790556011879055600955600a55601486905582516001600160401b03811161040b57600b54600181811c91168015610401575b60208210146103ed57601f811161037f575b506020601f821160011461030757918160809694925f51602061427e5f395f51905f52999896945f916102fc575b508160011b915f199060031b1c191617600b555b61271060125560ff19601954166019555f1960155560018060a01b031660018060a01b0319600554161760055560245490610100600160a81b039060081b1690610100600160a81b0319161760245560405194859384526020840152606060408401525180918160608501528484015e5f828201840152601f01601f19168101030190a3604051613cb290816105cc8239f35b90508401515f610255565b601f19821690600b5f52805f20915f5b8181106103675750925f51602061427e5f395f51905f5299989694926001928260809a98961061034f575b5050811b01600b55610269565b8601515f1960f88460031b161c191690555f80610342565b9192602060018192868b015181550194019201610317565b8181111561022757600b5f52601f820160051c7f0175b7a638427703f0dbe7bb9bbf987a2551717b34e79f33b5b1008d1fa01db9602084106103e5575b81601f9101920160051c03905f5b8281106103d8575050610227565b5f828201556001016103ca565b5f91506103bc565b634e487b7160e01b5f52602260045260245ffd5b90607f1690610215565b634e487b7160e01b5f52604160045260245ffd5b50336101b3565b3361018d565b60405162461bcd60e51b815260206004820152601560248201527f5446583a20647565206461746520696e207061737400000000000000000000006044820152606490fd5b60405162461bcd60e51b81526020600482015260116024820152705446583a207a65726f20696e766f69636560781b6044820152606490fd5b60405162461bcd60e51b815260206004820152600f60248201526e2a232c1d103d32b937903a37b5b2b760891b6044820152606490fd5b60405162461bcd60e51b81526020600482015260116024820152702a232c1d103d32b937903932b630bcb2b960791b6044820152606490fd5b60405162461bcd60e51b81526020600482015260126024820152712a232c1d103d32b9379034b6b837b93a32b960711b6044820152606490fd5b60405162461bcd60e51b81526020600482015260126024820152712a232c1d103d32b9379032bc3837b93a32b960711b6044820152606490fd5b5f80fd5b6040519190601f01601f191682016001600160401b0381118382101761040b57604052565b51906001600160a01b038216820361058e5756fe60806040526004361015610011575f80fd5b5f3560e01c8063017761f0146130795780630362c19d1461304d5780630399571c14612cf0578063096e301a14612c725780630a20897214612c4a57806311da60b414612bc6578063165eb0f314612af4578063185a85ef14612ad15780631e5cae1a14612a2c578063200d2ed214612a05578063219369df146129e05780632297e100146129c357806322de7a6f1461298d578063262e59e9146129705780632c5426f31461079c5780632f5685bb1461294e57806334120d79146128bc5780633a0a64e5146128975780633f18b82e146127a55780634051ddac1461270e5780634bbbe0cc146126e75780634e9b0f8a1461255f5780634faf61ab14612537578063503ae34e14612492578063504e241a146123ed578063576aa2c2146122f65780635786643c146122d95780635c0d8237146122b15780636293230114612289578063667fa0471461213c5780636cc6cde1146121145780636d8a10e314612082578063723f99a514611ee0578063735681a914611ec35780637478901d14611ea65780637a32984e14611e895780637b9e618d14611e615780637feb545c14611e44578063820a5f5014611e275780638b07836014611dfe5780638c90672f14611de35780638de6d28a14611cde57806393c7cdf514611aee57806396e3470b14611ad1578063974c5941146119345780639818501b14611917578063a097510914611885578063a489d2671461165b578063a98a4bd71461163e578063b0eefabe1461158b578063be83be071461144f578063bead103e14611432578063c666ea031461138e578063c7ea9e1514611371578063c81fd140146112c3578063c83f06a7146110f2578063d156ff1514610925578063d5303c9a146107d6578063d72e07051461079c578063e30a3bad1461077f578063eac31cff1461069d578063ed34b630146105d5578063f851a440146105ad5763ff36bfe4146102d9575f80fd5b346105a95760803660031901126105a9576004356024356044356064359061030c60018060a01b03600254163314613546565b60ff601954610320828260101c16156133cb565b1660088110156105955760046103369114613417565b610341841515613585565b601854925f601855600c54601454916040519161035d836131d8565b825260208201918783526040810193828552606082019081526080820188815260a0830187815260c0840191898352601754936801000000000000000085101561058157600185018060175585101561056d577f1943afe84359be0f2ba34df371aa5bc0aa81424cab67fef39b0105bf13141f699860e09860077fc624b66cc0138b8fabc209247f72d758e1cf3343756d543badbf24212bed8c1b9760175f52029751887fc624b66cc0138b8fabc209247f72d758e1cf3343756d543badbf24212bed8c150155517fc624b66cc0138b8fabc209247f72d758e1cf3343756d543badbf24212bed8c16880155517fc624b66cc0138b8fabc209247f72d758e1cf3343756d543badbf24212bed8c17870155517fc624b66cc0138b8fabc209247f72d758e1cf3343756d543badbf24212bed8c18860155517fc624b66cc0138b8fabc209247f72d758e1cf3343756d543badbf24212bed8c19850155517fc624b66cc0138b8fabc209247f72d758e1cf3343756d543badbf24212bed8c1a84015551910155600c549060145490604051928352886020840152604083015260608201528560808201528360a08201528460c0820152a183600c55600e55600f556014556016545f19811461055957670de0b6b3a764000091600161054692016016556011546135c2565b046010556019805460ff19166005179055005b634e487b7160e01b5f52601160045260245ffd5b634e487b7160e01b5f52603260045260245ffd5b634e487b7160e01b5f52604160045260245ffd5b634e487b7160e01b5f52602160045260245ffd5b5f80fd5b346105a9575f3660031901126105a9576003546040516001600160a01b039091168152602090f35b346105a95760203660031901126105a9576105ee613331565b61060360018060a01b036003541633146135d5565b6019549060ff8260081c16156106585715159062ff00008260101b169062ff00001916176019556040519081527f3c1cf6dbd034882b9d267167e0558590c91f438285afa93e93899df7c2f8c30260203392a2005b60405162461bcd60e51b815260206004820152601960248201527f5446583a206e6f20657863657074696f6e20666c6167676564000000000000006044820152606490fd5b346105a9575f3660031901126105a9576040515f6020546106bd81613185565b808452906001811690811561075b57506001146106fd575b6106f9836106e5818503826131f3565b604051918291602083526020830190613151565b0390f35b60205f9081527fc97bfaf2f8ee708c303a06d134f5ecd8389ae0432af62dc132a24118292866bb939250905b808210610741575090915081016020016106e56106d5565b919260018160209254838588010152019101909291610729565b60ff191660208086019190915291151560051b840190910191506106e590506106d5565b346105a9575f3660031901126105a9576020601654604051908152f35b346105a9575f3660031901126105a95760206040517f445b57cd6bc6213a5b5ecd4a184504b9efd3db5d5325740f540723883a6ff0518152f35b346105a9575f3660031901126105a9576017546001600160401b038111610581576040519061080b60208260051b01836131f3565b80825260208201908160175f527fc624b66cc0138b8fabc209247f72d758e1cf3343756d543badbf24212bed8c155f915b8383106108c6578486604051918291602083019060208452518091526040830191905f5b81811061086e575050500390f35b91935091602060e060019260c0875180518352848101518584015260408101516040840152606081015160608401526080810151608084015260a081015160a0840152015160c0820152019401910191849392610860565b600760206001926040516108d9816131d8565b855481528486015483820152600286015460408201526003860154606082015260048601546080820152600586015460a0820152600686015460c082015281520192019201919061083c565b346105a95760803660031901126105a9576004356001600160401b0381116105a9576109559036906004016132d8565b906024356001600160401b0381116105a9576109759036906004016132d8565b92906044356001600160401b0381116105a9576109969036906004016132d8565b9490916064356001600160401b0381116105a9576109b89036906004016132d8565b9290916109d060018060a01b03600154163314613632565b60ff6019541660088110159081610595576006811415806110e4575b6109f590613458565b60ff601b5416600681101561059557610a0f8391156134eb565b61059557600281149182156110d7575b82156110c6575b50501561107557601554421161100a57600260ff19601b541617601b556001600160401b03861161058157610a5c602054613185565b601f8111610fb8575b505f86601f8111600114610f355780610a92925f91610f2a575b508160011b915f199060031b1c19161790565b6020555b6001600160401b03821161058157610aaf602154613185565b601f8111610ecf575b505f90601f8311600114610e5f57610ae792915f9183610c8e575b50508160011b915f199060031b1c19161790565b6021555b6001600160401b03861161058157610b04601f54613185565b601f8111610e04575b505f86601f8111600114610d955780610b39925f91610d8a57508160011b915f199060031b1c19161790565b601f555b6001600160401b03821161058157610b56601e54613185565b601f8111610d2f575b505f90601f8311600114610c995782610bff937f5d1582f88acb83cee71f3cb3617da2b9fe18b7d1cfe747a1c136342b2476d5ec969593610bb4935f92610c8e5750508160011b915f199060031b1c19161790565b601e555b600160ff19602454161795866024556201000062ff0000196019541617601955610bf16015549660405195608087526080870191613612565b918483036020860152613612565b9260408201524260608201528033930390a260081c6001600160a01b031680610c2457005b60205f91600460405180948193630b97b3cb60e01b83525af1908115610c83575f91610c51575b50602555005b90506020813d602011610c7b575b81610c6c602093836131f3565b810103126105a9575181610c4b565b3d9150610c5f565b6040513d5f823e3d90fd5b013590508980610ad3565b601f19831691601e5f525f516020613c3d5f395f51905f52925f5b818110610d175750926001928592610bff967f5d1582f88acb83cee71f3cb3617da2b9fe18b7d1cfe747a1c136342b2476d5ec99989610610cfe575b505050811b01601e55610bb8565b01355f19600384901b60f8161c19169055888080610cf0565b91936020600181928787013581550195019201610cb4565b82811115610b5f57601e5f52601f830160051c5f516020613c3d5f395f51905f5260208510610d82575b81601f9101920160051c03905f5b828110610d75575050610b5f565b5f82820155600101610d67565b5f9150610d59565b905085013589610a7f565b50601f19871690601f5f52875f516020613c5d5f395f51905f52925f5b818110610de9575010610dd0575b5050600186811b01601f55610b3d565b8401355f19600389901b60f8161c191690558680610dc0565b8784013585556001909401936020938401938b935001610db2565b86811115610b0d57601f5f819052870160051c5f516020613c5d5f395f51905f5260208910610e57575b81601f9101920160051c03905f5b828110610e4a575050610b0d565b5f82820155600101610e3c565b5f9150610e2e565b601f1983169160215f525f516020613c1d5f395f51905f52925f5b818110610eb75750908460019594939210610e9e575b505050811b01602155610aeb565b01355f19600384901b60f8161c19169055888080610e90565b91936020600181928787013581550195019201610e7a565b82811115610ab85760215f52601f830160051c5f516020613c1d5f395f51905f5260208510610f22575b81601f9101920160051c03905f5b828110610f15575050610ab8565b5f82820155600101610f07565b5f9150610ef9565b90508901358b610a7f565b50601f1987169060205f52877fc97bfaf2f8ee708c303a06d134f5ecd8389ae0432af62dc132a24118292866bb925f5b8b828210610f9e57505010610f85575b5050600186811b01602055610a96565b8801355f19600389901b60f8161c191690558880610f75565b84013585556001909401936020938401938b935001610f65565b86811115610a655760205f5260205f20601f880160051c9060208910611002575b81601f9101920160051c03905f5b828110610ff5575050610a65565b5f82820155600101610fe7565b5f9150610fd9565b60405162461bcd60e51b815260206004820152603760248201527f5446583a20636f6e7465737420646561646c696e6520706173736564202d207360448201527f6869706d656e74206465656d65642061636365707465640000000000000000006064820152608490fd5b60405162461bcd60e51b8152602060048201526024808201527f5446583a2063616e6e6f7420636f6e7465737420696e2063757272656e7420736044820152637461746560e01b6064820152608490fd5b909150610595576003148980610a26565b506005811491505f610a1f565b505f915060078114156109ec565b346105a9575f3660031901126105a95761111760018060a01b03600154163314613632565b60ff60195461112b828260101c16156133cb565b16600881101561059557600281149081156112b8575b5015611269576010548015611224578060135560018060a01b036007541690604051906323b872dd60e01b5f52336004523060245260445260205f60648180865af19060015f5114821615611203575b6040525f606052156111f157600360ff19601954161760195562093a804201804211610559576015556010546040519081524260208201527fcd909ec339185c4598a4096e174308fbdf136d117f230960f873a2f2e81f63af60403392a2005b635274afe760e01b5f5260045260245ffd5b90600181151661121b57823b15153d15161690611191565b503d5f823e3d90fd5b60405162461bcd60e51b815260206004820152601e60248201527f5446583a20736574746c656d656e7420616d6f756e74206e6f742073657400006044820152606490fd5b60405162461bcd60e51b815260206004820152602160248201527f5446583a2063616e6e6f742066756e6420696e2063757272656e7420737461746044820152606560f81b6064820152608490fd5b600591501481611141565b346105a95760203660031901126105a9576112dc61331b565b6112f160018060a01b036003541633146135d5565b6001600160a01b0316801561133a57600480546001600160a01b0319168217905533907f7463c06c46d1caf16438de0e6f4fe963ce0934e62b90e34d6fab43c8e3cd006f5f80a3005b60405162461bcd60e51b815260206004820152600f60248201526e1511960e881e995c9bc818dbdd5c9d608a1b6044820152606490fd5b346105a9575f3660031901126105a9576020602554604051908152f35b346105a9575f3660031901126105a9575f546001600160a01b03163314801561141e575b6113bb9061338c565b60ff6019546113cf828260101c16156133cb565b166008811015610595576113e39015613417565b600160ff1960195416176019556040514281527fe082272b702e2eab6b62fabd7a1ad7ab9e60dcd6c3346f51916b1a8248eac12760203392a2005b506001546001600160a01b031633146113b2565b346105a9575f3660031901126105a9576020600a54604051908152f35b346105a95760403660031901126105a957611468613331565b6024356001600160401b0381116105a9576114879036906004016132d8565b6006549091906001600160a01b031633036115505760ff601b54166006811015610595577f2e2c0407515b972a1b3b6f90d0299d45a11915d914d6841430b612dea6ba2003916114dc60056114f69314613340565b604051938515158552606060208601526060850191613612565b914260408201528033930390a2156115285761151a600360ff19601b541617601b55565b6019805462ff000019169055005b61153a600460ff19601b541617601b55565b62ff0000196019541660195561154e613672565b005b60405162461bcd60e51b81526020600482015260136024820152722a232c1d103737ba1030b93134ba3930ba37b960691b6044820152606490fd5b346105a95760203660031901126105a9576115a461331b565b6115b960018060a01b036003541633146135d5565b6001600160a01b0316801561160257600680546001600160a01b0319168217905533907f5226cf13e29e7b252c6722ac95bc9beb40dfd336d700c1c8469a44b9dbcd80da5f80a3005b60405162461bcd60e51b81526020600482015260146024820152732a232c1d103d32b9379030b93134ba3930ba37b960611b6044820152606490fd5b346105a9575f3660031901126105a9576020601454604051908152f35b346105a95760603660031901126105a95760043563ffffffff8116036105a957611683613305565b506044356001600160401b0381116105a9576116a39036906004016132d8565b6005546001600160a01b0316330361184d5781016040828203126105a95781356001600160a01b03811692908390036105a9576020810135906001600160401b0382116105a957019080601f830112156105a957816020611706933591016134b5565b9030036118115780518101606082602083019203126105a95760208201516001600160a01b038116908190036105a95760408301519260ff841684036105a9576060810151906001600160401b0382116105a9570182603f820112156105a9576020810151906117758261349a565b9361178360405195866131f3565b828552604082840101116105a957815f926040602093018387015e8401015230036117d85761154e91604051906117bb6040836131f3565b600b82526a262d16a3a2a72620aca2a960a91b6020830152613767565b60405162461bcd60e51b81526020600482015260116024820152701511960e881ddc9bdb99c81d185c99d95d607a1b6044820152606490fd5b60405162461bcd60e51b81526020600482015260146024820152731511960e881ddc9bdb99c81859dc99595b595b9d60621b6044820152606490fd5b60405162461bcd60e51b815260206004820152601060248201526f5446583a206f6e6c792062726964676560801b6044820152606490fd5b346105a9575f3660031901126105a9576040515f601e546118a581613185565b808452906001811690811561075b57506001146118cc576106f9836106e5818503826131f3565b601e5f9081525f516020613c3d5f395f51905f52939250905b8082106118fd575090915081016020016106e56106d5565b9192600181602092548385880101520191019092916118e5565b346105a9575f3660031901126105a9576020601054604051908152f35b346105a9575f3660031901126105a9575f546001600160a01b031633148015611abd575b6119619061338c565b60195461197460ff8260101c16156133cb565b60ff601b541660068110156105955760018114908115611ab2575b5015611a5f5760ff16600881101561059557600303611a1a576013545f6013556119c1600660ff196019541617601955565b6007545f546119de9183916001600160a01b0390811691166136ef565b7f468aeeec0e901c52363552a06c1e39331d44c3cc886eb200af127ded3f380f82604060018060a01b035f5416928151908152426020820152a2005b60405162461bcd60e51b815260206004820152601f60248201527f5446583a206d7573742062652066756e64656420746f2066696e616c697a65006044820152606490fd5b60405162461bcd60e51b815260206004820152602560248201527f5446583a20736869706d656e74206e6f7420636f6e6669726d65642061732074604482015264696d656c7960d81b6064820152608490fd5b60039150148261198f565b506001546001600160a01b03163314611958565b346105a9575f3660031901126105a9576020602254604051908152f35b346105a95760203660031901126105a9575f54600435906001600160a01b03163303611ca55760ff601954611b28828260101c16156133cb565b1660088110156105955760028114908115611c9a575b5015611c555780151580611c4a575b15611c0d57601254811015611bcf5760807f0463fdb27006d5a65dfd357dab584a75ca5b3f1db1793ef451634eb092c84e129160115490612710611b93826008546135c2565b048060115581601255670de0b6b3a7640000611bb1600c54836135c2565b049081601055604051938452602084015260408301526060820152a1005b60405162461bcd60e51b81526020600482015260166024820152755446583a20627073206d75737420646563726561736560501b6044820152606490fd5b60405162461bcd60e51b81526020600482015260156024820152745446583a20627073206f7574206f662072616e676560581b6044820152606490fd5b506127108110611b4d565b60405162461bcd60e51b815260206004820152601f60248201527f5446583a20726573697a65206f6e6c79206265666f72652066756e64696e67006044820152606490fd5b600591501482611b3e565b60405162461bcd60e51b81526020600482015260116024820152702a232c1d103737ba1032bc3837b93a32b960791b6044820152606490fd5b346105a95760803660031901126105a9576004356024356044359160643591611d1260018060a01b03600254163314613546565b60ff601954611d26828260101c16156133cb565b16926008841015610595577f8fe7adb9d88091ef45bdb5a0327af76405cbc60deaffe25b9df0e055c20a611b94611d61600160a09614613417565b611d6c841515613585565b816060604051611d7b816131bd565b868152856020820152836040820152015283600c5582600d5580600e5581600f55670de0b6b3a7640000611db1856011546135c2565b04601055600260ff196019541617601955601054926040519485526020850152604084015260608301526080820152a1005b346105a9575f3660031901126105a9576106f96106e5613214565b346105a9575f3660031901126105a95760ff601b54166040516006821015610595576020918152f35b346105a9575f3660031901126105a9576020601354604051908152f35b346105a9575f3660031901126105a9576020600954604051908152f35b346105a9575f3660031901126105a9576007546040516001600160a01b039091168152602090f35b346105a9575f3660031901126105a9576020601254604051908152f35b346105a9575f3660031901126105a9576020600854604051908152f35b346105a9575f3660031901126105a9576020601a54604051908152f35b346105a9575f3660031901126105a95760ff601954166008811015908161059557600681141580612074575b611f1590613458565b60ff601b5416600681101561059557611f2f8391156134eb565b6105955760028114918215612067575b8215612056575b505015611ffc5760155442118015611f9a575b600160ff19601b541617601b556040519081524260208201527ff410075d2dc68634bc421dcdfbce03adaea75fa706d772bd5d034a658e65380c60403392a2005b6001546001600160a01b03163314611f595760405162461bcd60e51b815260206004820152602260248201527f5446583a206f6e6c7920696d706f72746572206265666f726520646561646c696044820152616e6560f01b6064820152608490fd5b60405162461bcd60e51b815260206004820152602c60248201527f5446583a2063616e6e6f742061636365707420736869706d656e7420696e206360448201526b757272656e7420737461746560a01b6064820152608490fd5b909150610595576003148180611f46565b506005811491505f611f3f565b505f91506007811415611f0c565b346105a9575f3660031901126105a9576040515f6021546120a281613185565b808452906001811690811561075b57506001146120c9576106f9836106e5818503826131f3565b60215f9081525f516020613c1d5f395f51905f52939250905b8082106120fa575090915081016020016106e56106d5565b9192600181602092548385880101520191019092916120e2565b346105a9575f3660031901126105a9576006546040516001600160a01b039091168152602090f35b346105a95760203660031901126105a957612155613175565b5f546001600160a01b031633148015612275575b8015612261575b156122265760ff6019541660088110156105955780600661219a921415908161221a575b50613458565b6013549060018060a01b0360015416915f6013556121c0600760ff196019541617601955565b806121fc575b60ff6040519216825260208201527fbeb2436210b4808956874f19f645e85c3285d14833015910c580129394cc967f60403392a3005b60075461221590829085906001600160a01b03166136ef565b6121c6565b60079150141583612194565b60405162461bcd60e51b81526020600482015260136024820152721511960e881b9bdd08185d5d1a1bdc9a5e9959606a1b6044820152606490fd5b506003546001600160a01b03163314612170565b506001546001600160a01b03163314612169565b346105a9575f3660031901126105a9576001546040516001600160a01b039091168152602090f35b346105a9575f3660031901126105a9576004546040516001600160a01b039091168152602090f35b346105a9575f3660031901126105a9576020601154604051908152f35b346105a95760403660031901126105a95761230f613175565b6024356001600160401b0381116105a95761232e9036906004016132d8565b60245491929160081c6001600160a01b0316338190036123a8571561236a5761236461154e9361235c613214565b9236916134b5565b91613767565b60405162461bcd60e51b81526020600482015260166024820152751511960e881250c81b9bdd0818dbdb999a59dd5c995960521b6044820152606490fd5b60405162461bcd60e51b815260206004820152601760248201527f5446583a206f6e6c7920636f75727420666163746f72790000000000000000006044820152606490fd5b346105a9575f3660031901126105a9576040515f601c5461240d81613185565b808452906001811690811561075b5750600114612434576106f9836106e5818503826131f3565b601c5f9081527f0e4562a10381dec21b205ed72637e6b1b523bdd0e4d4d50af5cd23dd4500a211939250905b808210612478575090915081016020016106e56106d5565b919260018160209254838588010152019101909291612460565b346105a9575f3660031901126105a9576040515f6023546124b281613185565b808452906001811690811561075b57506001146124d9576106f9836106e5818503826131f3565b60235f9081527fd57b2b5166478fd4318d2acc6cc2c704584312bdd8781b32d5d06abda57f4230939250905b80821061251d575090915081016020016106e56106d5565b919260018160209254838588010152019101909291612505565b346105a9575f3660031901126105a9576002546040516001600160a01b039091168152602090f35b346105a95760203660031901126105a95760043560018060a01b035f5416331480156126d3575b61258f9061338c565b60ff6019546125a3828260101c16156133cb565b166008811015908161059557600281149182156126c6575b82156126b5575b505015612666576014548111156126215780601855600460ff1960195416176019556014549060405191825260208201524260408201527fbdd365a79d2543b27ac131514a83756b481d72eab6d788a4da1f6a59b2c4912460603392a2005b60405162461bcd60e51b815260206004820152601b60248201527f5446583a206e65772064617465206d757374206265206c6174657200000000006044820152606490fd5b60405162461bcd60e51b815260206004820152602160248201527f5446583a2063616e6e6f7420726f6c6c20696e2063757272656e7420737461746044820152606560f81b6064820152608490fd5b9091506105955760031482806125c2565b506005811491505f6125bb565b506001546001600160a01b03163314612586565b346105a9575f3660031901126105a9575f546040516001600160a01b039091168152602090f35b346105a9575f3660031901126105a957610160601954600854906011549060ff60105491601354601454601554906016549260018060a01b03600454169660018060a01b0360065416986040519a6127688c8a8a166132cb565b60208c015260408b015260608a0152608089015260a088015260c087015260e086015260081c161515610100840152610120830152610140820152f35b346105a95760603660031901126105a9576127be613175565b6024356001600160401b0381116105a9576127dd9036906004016132d8565b91906044356001600160401b0381116105a9576127fe9036906004016132d8565b919060018060a01b036002541633148015612870575b1561282b5761235c6123649261154e9636916134b5565b60405162461bcd60e51b815260206004820152601760248201527f5446583a206e6f74207665726469637420736f757263650000000000000000006044820152606490fd5b506004546001600160a01b0316801515908161288d575b50612814565b9050331486612887565b346105a9575f3660031901126105a957602060ff60195460081c166040519015158152f35b346105a9575f3660031901126105a9576040515f601f546128dc81613185565b808452906001811690811561075b5750600114612903576106f9836106e5818503826131f3565b601f5f9081525f516020613c5d5f395f51905f52939250905b808210612934575090915081016020016106e56106d5565b91926001816020925483858801015201910190929161291c565b346105a9575f3660031901126105a957602060ff602454166040519015158152f35b346105a9575f3660031901126105a9576020601554604051908152f35b346105a9575f3660031901126105a9576080600c54600d54600e54600f5491604051938452602084015260408301526060820152f35b346105a9575f3660031901126105a9576020604051621275008152f35b346105a9575f3660031901126105a957602060ff60195460101c166040519015158152f35b346105a9575f3660031901126105a957602060ff60195416612a2a60405180926132cb565bf35b346105a9575f3660031901126105a9576040515f601d54612a4c81613185565b808452906001811690811561075b5750600114612a73576106f9836106e5818503826131f3565b601d5f9081527f6d4407e7be21f808e6509aa9fa9143369579dd7d760fe20a2c09680fc146134f939250905b808210612ab7575090915081016020016106e56106d5565b919260018160209254838588010152019101909291612a9f565b346105a9575f3660031901126105a957602060ff60195460181c16604051908152f35b346105a95760403660031901126105a957612b0d613175565b60243560018060a01b035f541633148015612bb2575b612b2c9061338c565b60195460ff811690600882101561059557612b558260066101009414159081612ba65750613458565b63ff0000008460181b169063ff00ff001916171760195580601a5560ff6040519216825260208201527f3c36678e3022a469fbd8b81bc12b3eb332fe29c5c8f4ee29fcfb8465bc36695c60403392a2005b60079150141586612194565b506001546001600160a01b03163314612b23565b346105a9575f3660031901126105a9575f546001600160a01b031633148015612c36575b612bf39061338c565b60ff601954612c07828260101c16156133cb565b166008811015610595576003612c1d9114613417565b6013545f6013556119c1600660ff196019541617601955565b506001546001600160a01b03163314612bea565b346105a9575f3660031901126105a9576005546040516001600160a01b039091168152602090f35b346105a9575f3660031901126105a9575f6060604051612c91816131bd565b82815282602082015282604082015201526080604051612cb0816131bd565b600c5490818152600d5460208201908152600e5490604083019182526060600f549301928352604051938452516020840152516040830152516060820152f35b346105a9575f3660031901126105a95760405160c060208201525f600b54612d1781613185565b908160e08501526001811690815f1461302b5750600114612fd2575b50306040830152818103601f19016060830152601f545f91612d5482613185565b8082529160018116908115612fb35750600114612f6c575b5050818103601f19016080830152601e545f91612d8882613185565b8082529160018116908115612f4d5750600114612f06575b5050818103601f190160a08301526020545f91612dbc82613185565b8082529160018116908115612ee75750600114612e8d575b5050818103601f190160c08301526021545f91612df082613185565b8082529160018116908115612e675750600114612e1f575b6106f9846106e5818603601f1981018352826131f3565b60215f9081529250905f516020613c1d5f395f51905f525b818410612e4d575050016020016106e582612e08565b600181602092959395548385870101520191019290612e37565b60ff191660208381019190915292151560051b90910190910191506106e5905082612e08565b60205f9081529192507fc97bfaf2f8ee708c303a06d134f5ecd8389ae0432af62dc132a24118292866bb5b838310612ecd57506020925001018280612dd4565b600181602092949394548385870101520191019190612eb8565b90506020935060ff929192191683830152151560051b01018280612dd4565b601e5f9081529192505f516020613c3d5f395f51905f525b838310612f3357506020925001018280612da0565b600181602092949394548385870101520191019190612f1e565b90506020935060ff929192191683830152151560051b01018280612da0565b601f5f9081529192505f516020613c5d5f395f51905f525b838310612f9957506020925001018280612d6c565b600181602092949394548385870101520191019190612f84565b90506020935060ff929192191683830152151560051b01018280612d6c565b600b5f9081529091507f0175b7a638427703f0dbe7bb9bbf987a2551717b34e79f33b5b1008d1fa01db95b8282106130135750820161010001905082612d33565b80548285016101000152602090910190600101612ffd565b6020935060e092915060ff1916610100850152151560051b8301010182612d33565b346105a9575f3660031901126105a95760245460405160089190911c6001600160a01b03168152602090f35b346105a9575f3660031901126105a95760ff601b541660068110156105955760056130a49114613340565b602254801515908161313a575b50156130f5576040514281527f1ee13e4a2b923d6e980e6160f5cb342ca40e2c9689b2f33e1bed1f3c2069637860203392a261153a600460ff19601b541617601b55565b60405162461bcd60e51b815260206004820152601e60248201527f5446583a207265766965772077696e646f77206e6f7420656c617073656400006044820152606490fd5b9050621275008101809111610559574211816130b1565b805180835260209291819084018484015e5f828201840152601f01601f1916010190565b6004359060ff821682036105a957565b90600182811c921680156131b3575b602083101461319f57565b634e487b7160e01b5f52602260045260245ffd5b91607f1691613194565b608081019081106001600160401b0382111761058157604052565b60e081019081106001600160401b0382111761058157604052565b90601f801991011681019081106001600160401b0382111761058157604052565b604051905f82600b549161322783613185565b80835292600181169081156132ac575060011461324d575b61324b925003836131f3565b565b50600b5f90815290917f0175b7a638427703f0dbe7bb9bbf987a2551717b34e79f33b5b1008d1fa01db95b81831061329057505090602061324b9282010161323f565b6020919350806001915483858901015201910190918492613278565b6020925061324b94915060ff191682840152151560051b82010161323f565b9060088210156105955752565b9181601f840112156105a9578235916001600160401b0383116105a957602083818601950101116105a957565b602435906001600160a01b03821682036105a957565b600435906001600160a01b03821682036105a957565b6004359081151582036105a957565b1561334757565b60405162461bcd60e51b815260206004820152601d60248201527f5446583a206e6f206d616e75616c207265766965772070656e64696e670000006044820152606490fd5b1561339357565b60405162461bcd60e51b815260206004820152601060248201526f5446583a206e6f74206120706172747960801b6044820152606490fd5b156133d257565b60405162461bcd60e51b815260206004820152601860248201527f5446583a2070617573656420627920657863657074696f6e00000000000000006044820152606490fd5b1561341e57565b60405162461bcd60e51b81526020600482015260126024820152715446583a20696e76616c696420737461746560701b6044820152606490fd5b1561345f57565b60405162461bcd60e51b81526020600482015260136024820152725446583a207465726d696e616c20737461746560681b6044820152606490fd5b6001600160401b03811161058157601f01601f191660200190565b9291926134c18261349a565b916134cf60405193846131f3565b8294818452818301116105a9578281602093845f960137010152565b156134f257565b60405162461bcd60e51b815260206004820152602660248201527f5446583a20736869706d656e742072657669657720616c726561647920696e696044820152651d1a585d195960d21b6064820152608490fd5b1561354d57565b60405162461bcd60e51b815260206004820152601060248201526f2a232c1d103737ba103932b630bcb2b960811b6044820152606490fd5b1561358c57565b60405162461bcd60e51b815260206004820152600e60248201526d5446583a207a65726f207261746560901b6044820152606490fd5b8181029291811591840414171561055957565b156135dc57565b60405162461bcd60e51b815260206004820152600e60248201526d2a232c1d103737ba1030b236b4b760911b6044820152606490fd5b908060209392818452848401375f828201840152601f01601f1916010190565b1561363957565b60405162461bcd60e51b81526020600482015260116024820152702a232c1d103737ba1034b6b837b93a32b960791b6044820152606490fd5b6013545f60135561368b600760ff196019541617601955565b806136cc575b6001546040519182526001600160a01b0316907fd33ccdf9c03bdf3d28eb9cd91d9278cf77b0125b1631cf691b4219602f0ceffa90602090a2565b6007546001546136ea9183916001600160a01b0390811691166136ef565b613691565b916040519163a9059cbb60e01b5f5260018060a01b031660045260245260205f60448180865af19060015f511482161561374f575b6040521561372f5750565b635274afe760e01b5f9081526001600160a01b0391909116600452602490fd5b90600181151661121b57823b15153d15161690613724565b91909160ff601b5416600681101561059557600203613bd7576004546001600160a01b0316801515919082613bcd575b5083516001600160401b038111610581576137b3601c54613185565b601f8111613b5f575b506020601f8211600114613adf5790806137e9925f916139c457508160011b915f199060031b1c19161790565b601c555b82516001600160401b03811161058157613808602354613185565b601f8111613a71575b506020601f82116001146139cf57817f36672c34fcd1d1172b8ed90a5c5ebf0dcfe06cd22f41098be71b03a5864318539392613860925f916139c457508160011b915f199060031b1c19161790565b6023555b4260225561389860ff60405192169485835260a0602084015261388a60a0840188613151565b908382036040850152613151565b92151560608201524260808201528033930390a2600181036138d65750506138c8600360ff19601b541617601b55565b62ff00001960195416601955565b600281036139065750506138f2600460ff19601b541617601b55565b62ff0000196019541660195561324b613672565b60030361397f57600560ff19601b541617601b55600160ff196024541617602455621275004201804211610559577f60901e423fac6287980ad06a0bc6b3bb89448c2b86bbade62435d3106eabd4339161396e91604051928392606084526060840190613151565b9060208301524260408301520390a1565b60405162461bcd60e51b815260206004820152601960248201527f5446583a20696e76616c6964207665726469637420636f6465000000000000006044820152606490fd5b90508601515f610a7f565b601f1982169060235f527fd57b2b5166478fd4318d2acc6cc2c704584312bdd8781b32d5d06abda57f4230915f5b818110613a5957509183917f36672c34fcd1d1172b8ed90a5c5ebf0dcfe06cd22f41098be71b03a586431853959460019410613a41575b5050811b01602355613864565b8701515f1960f88460031b161c191690555f80613a34565b9192602060018192868b0151815501940192016139fd565b818111156138115760235f52601f820160051c7fd57b2b5166478fd4318d2acc6cc2c704584312bdd8781b32d5d06abda57f423060208410613ad7575b81601f9101920160051c03905f5b828110613aca575050613811565b5f82820155600101613abc565b5f9150613aae565b601f19821690601c5f527f0e4562a10381dec21b205ed72637e6b1b523bdd0e4d4d50af5cd23dd4500a211915f5b818110613b4757509083600194939210613b2f575b5050811b01601c556137ed565b8701515f1960f88460031b161c191690555f80613b22565b9192602060018192868c015181550194019201613b0d565b818111156137bc57601c5f52601f820160051c7f0e4562a10381dec21b205ed72637e6b1b523bdd0e4d4d50af5cd23dd4500a21160208410613bc5575b81601f9101920160051c03905f5b828110613bb85750506137bc565b5f82820155600101613baa565b5f9150613b9c565b331491505f613797565b60405162461bcd60e51b815260206004820152601f60248201527f5446583a206e6f2061637469766520736869706d656e7420636f6e74657374006044820152606490fdfe3a6357012c1a3ae0a17d304c9920310382d968ebcc4b1771f41c6b304205b57050bb669a95c7b50b7e8a6f09454034b2b14cf2b85c730dca9a539ca82cb6e350a03837a25210ee280c2113ff4b77ca23440b19d4866cca721c801278fd08d807a2646970667358221220e5c5507e8de7260eef71155f63fb8b20e7d4df771475eb987d3708477723769864736f6c63430008210033bb5fd511e52e015eb19dab8dd103d9cec0091f40e6a698aeab6b4c4d221b8265","linkReferences":{}},"methodIdentifiers":{"MANUAL_REVIEW_WINDOW()":"2297e100","ORACLE_TYPE()":"2c5426f3","acceptShipment()":"723f99a5","admin()":"f851a440","arbitrator()":"6cc6cde1","bridgeReceiver()":"0a208972","cancelAndRefund(uint8)":"667fa047","contestDeadline()":"262e59e9","contestShipment(string,string,string,string)":"d156ff15","courtContract()":"5c0d8237","courtFactory()":"0362c19d","currentDueDate()":"a98a4bd7","currentNotional()":"5786643c","exceptionFlagged()":"3a0a64e5","exceptionPaused()":"219369df","exceptionReasonCode()":"185a85ef","exceptionRef()":"735681a9","exporter()":"4bbbe0cc","finalizeAfterShipment()":"974c5941","flagException(uint8,bytes32)":"165eb0f3","fulfilledBps()":"7a32984e","fundSettlement()":"c83f06a7","fundedAmount()":"820a5f50","getLockedRate()":"096e301a","getOracleArgs()":"0399571c","getOracleType()":"d72e0705","getRollHistory()":"d5303c9a","getSummary()":"4051ddac","icCaseId()":"c7ea9e15","importer()":"62932301","invoiceAmount()":"7478901d","invoiceRef()":"8c90672f","lockedRate()":"22de7a6f","oracleRelayer()":"4faf61ab","processBridgeMessage(uint32,address,bytes)":"a489d267","receiveRate(uint256,bytes32,bytes32,uint256)":"8de6d28a","receiveRolledRate(uint256,uint256,bytes32,uint256)":"ff36bfe4","requestRateLock()":"c666ea03","requestRoll(uint256)":"4e9b0f8a","resize(uint256)":"93c7cdf5","resolveManualReview(bool,string)":"be83be07","resolveShipmentVerdict(uint8,string,string)":"3f18b82e","rollCount()":"e30a3bad","setArbitrator(address)":"b0eefabe","setCourtContract(address)":"c81fd140","setExceptionPause(bool)":"ed34b630","setResolution(uint8,string)":"576aa2c2","settle()":"11da60b4","settlementAmount()":"9818501b","settlementCurrency()":"bead103e","settlementToken()":"7b9e618d","shipmentCaseId()":"504e241a","shipmentCourtSheetACid()":"eac31cff","shipmentCourtSheetBCid()":"6d8a10e3","shipmentGuidelineVersion()":"a0975109","shipmentManifestCid()":"1e5cae1a","shipmentReviewRequired()":"2f5685bb","shipmentStatement()":"34120d79","shipmentStatus()":"8b078360","shipmentVerdictAt()":"96e3470b","shipmentVerdictReason()":"503ae34e","sourceCurrency()":"7feb545c","status()":"200d2ed2","timeoutManualReview()":"017761f0"},"id":40}