{"abi":[{"type":"constructor","inputs":[{"name":"_exporter","type":"address","internalType":"address"},{"name":"_importer","type":"address","internalType":"address"},{"name":"_oracleRelayer","type":"address","internalType":"address"},{"name":"_admin","type":"address","internalType":"address"},{"name":"_settlementToken","type":"address","internalType":"address"},{"name":"_invoiceAmount","type":"uint256","internalType":"uint256"},{"name":"_sourceCurrency","type":"bytes32","internalType":"bytes32"},{"name":"_settlementCurrency","type":"bytes32","internalType":"bytes32"},{"name":"_dueDate","type":"uint256","internalType":"uint256"},{"name":"_invoiceRef","type":"string","internalType":"string"}],"stateMutability":"nonpayable"},{"type":"function","name":"MANUAL_REVIEW_WINDOW","inputs":[],"outputs":[{"name":"","type":"uint256","internalType":"uint256"}],"stateMutability":"view"},{"type":"function","name":"acceptShipment","inputs":[],"outputs":[],"stateMutability":"nonpayable"},{"type":"function","name":"admin","inputs":[],"outputs":[{"name":"","type":"address","internalType":"address"}],"stateMutability":"view"},{"type":"function","name":"arbitrator","inputs":[],"outputs":[{"name":"","type":"address","internalType":"address"}],"stateMutability":"view"},{"type":"function","name":"cancelAndRefund","inputs":[{"name":"reasonCode","type":"uint8","internalType":"uint8"}],"outputs":[],"stateMutability":"nonpayable"},{"type":"function","name":"contestDeadline","inputs":[],"outputs":[{"name":"","type":"uint256","internalType":"uint256"}],"stateMutability":"view"},{"type":"function","name":"contestShipment","inputs":[{"name":"manifestCid","type":"string","internalType":"string"},{"name":"statement","type":"string","internalType":"string"},{"name":"guidelineVersion","type":"string","internalType":"string"}],"outputs":[],"stateMutability":"nonpayable"},{"type":"function","name":"courtContract","inputs":[],"outputs":[{"name":"","type":"address","internalType":"address"}],"stateMutability":"view"},{"type":"function","name":"currentDueDate","inputs":[],"outputs":[{"name":"","type":"uint256","internalType":"uint256"}],"stateMutability":"view"},{"type":"function","name":"currentNotional","inputs":[],"outputs":[{"name":"","type":"uint256","internalType":"uint256"}],"stateMutability":"view"},{"type":"function","name":"exceptionFlagged","inputs":[],"outputs":[{"name":"","type":"bool","internalType":"bool"}],"stateMutability":"view"},{"type":"function","name":"exceptionPaused","inputs":[],"outputs":[{"name":"","type":"bool","internalType":"bool"}],"stateMutability":"view"},{"type":"function","name":"exceptionReasonCode","inputs":[],"outputs":[{"name":"","type":"uint8","internalType":"uint8"}],"stateMutability":"view"},{"type":"function","name":"exceptionRef","inputs":[],"outputs":[{"name":"","type":"bytes32","internalType":"bytes32"}],"stateMutability":"view"},{"type":"function","name":"exporter","inputs":[],"outputs":[{"name":"","type":"address","internalType":"address"}],"stateMutability":"view"},{"type":"function","name":"finalizeAfterShipment","inputs":[],"outputs":[],"stateMutability":"nonpayable"},{"type":"function","name":"flagException","inputs":[{"name":"reasonCode","type":"uint8","internalType":"uint8"},{"name":"evidenceRef","type":"bytes32","internalType":"bytes32"}],"outputs":[],"stateMutability":"nonpayable"},{"type":"function","name":"fulfilledBps","inputs":[],"outputs":[{"name":"","type":"uint256","internalType":"uint256"}],"stateMutability":"view"},{"type":"function","name":"fundSettlement","inputs":[],"outputs":[],"stateMutability":"nonpayable"},{"type":"function","name":"fundedAmount","inputs":[],"outputs":[{"name":"","type":"uint256","internalType":"uint256"}],"stateMutability":"view"},{"type":"function","name":"getLockedRate","inputs":[],"outputs":[{"name":"","type":"tuple","internalType":"struct TradeFxSettlement.RateInfo","components":[{"name":"rate","type":"uint256","internalType":"uint256"},{"name":"benchmarkType","type":"bytes32","internalType":"bytes32"},{"name":"benchmarkId","type":"bytes32","internalType":"bytes32"},{"name":"asOfTimestamp","type":"uint256","internalType":"uint256"}]}],"stateMutability":"view"},{"type":"function","name":"getRollHistory","inputs":[],"outputs":[{"name":"","type":"tuple[]","internalType":"struct TradeFxSettlement.RollRecord[]","components":[{"name":"priorRate","type":"uint256","internalType":"uint256"},{"name":"rolledRate","type":"uint256","internalType":"uint256"},{"name":"rollCost","type":"uint256","internalType":"uint256"},{"name":"priorDueDate","type":"uint256","internalType":"uint256"},{"name":"newDueDate","type":"uint256","internalType":"uint256"},{"name":"benchmarkId","type":"bytes32","internalType":"bytes32"},{"name":"asOfTimestamp","type":"uint256","internalType":"uint256"}]}],"stateMutability":"view"},{"type":"function","name":"getSummary","inputs":[],"outputs":[{"name":"_status","type":"uint8","internalType":"enum TradeFxSettlement.Status"},{"name":"_invoiceAmount","type":"uint256","internalType":"uint256"},{"name":"_currentNotional","type":"uint256","internalType":"uint256"},{"name":"_settlementAmount","type":"uint256","internalType":"uint256"},{"name":"_fundedAmount","type":"uint256","internalType":"uint256"},{"name":"_currentDueDate","type":"uint256","internalType":"uint256"},{"name":"_contestDeadline","type":"uint256","internalType":"uint256"},{"name":"_rollCount","type":"uint256","internalType":"uint256"},{"name":"_exceptionFlagged","type":"bool","internalType":"bool"},{"name":"_courtContract","type":"address","internalType":"address"},{"name":"_arbitrator","type":"address","internalType":"address"}],"stateMutability":"view"},{"type":"function","name":"importer","inputs":[],"outputs":[{"name":"","type":"address","internalType":"address"}],"stateMutability":"view"},{"type":"function","name":"invoiceAmount","inputs":[],"outputs":[{"name":"","type":"uint256","internalType":"uint256"}],"stateMutability":"view"},{"type":"function","name":"invoiceRef","inputs":[],"outputs":[{"name":"","type":"string","internalType":"string"}],"stateMutability":"view"},{"type":"function","name":"lockedRate","inputs":[],"outputs":[{"name":"rate","type":"uint256","internalType":"uint256"},{"name":"benchmarkType","type":"bytes32","internalType":"bytes32"},{"name":"benchmarkId","type":"bytes32","internalType":"bytes32"},{"name":"asOfTimestamp","type":"uint256","internalType":"uint256"}],"stateMutability":"view"},{"type":"function","name":"oracleRelayer","inputs":[],"outputs":[{"name":"","type":"address","internalType":"address"}],"stateMutability":"view"},{"type":"function","name":"receiveRate","inputs":[{"name":"rate","type":"uint256","internalType":"uint256"},{"name":"benchmarkType","type":"bytes32","internalType":"bytes32"},{"name":"benchmarkId","type":"bytes32","internalType":"bytes32"},{"name":"asOfTimestamp","type":"uint256","internalType":"uint256"}],"outputs":[],"stateMutability":"nonpayable"},{"type":"function","name":"receiveRolledRate","inputs":[{"name":"newRate","type":"uint256","internalType":"uint256"},{"name":"rollCost","type":"uint256","internalType":"uint256"},{"name":"benchmarkId","type":"bytes32","internalType":"bytes32"},{"name":"asOfTimestamp","type":"uint256","internalType":"uint256"}],"outputs":[],"stateMutability":"nonpayable"},{"type":"function","name":"requestRateLock","inputs":[],"outputs":[],"stateMutability":"nonpayable"},{"type":"function","name":"requestRoll","inputs":[{"name":"newDueDate","type":"uint256","internalType":"uint256"}],"outputs":[],"stateMutability":"nonpayable"},{"type":"function","name":"resize","inputs":[{"name":"newFulfilledBps","type":"uint256","internalType":"uint256"}],"outputs":[],"stateMutability":"nonpayable"},{"type":"function","name":"resolveManualReview","inputs":[{"name":"timeliness","type":"bool","internalType":"bool"},{"name":"reason","type":"string","internalType":"string"}],"outputs":[],"stateMutability":"nonpayable"},{"type":"function","name":"resolveShipmentVerdict","inputs":[{"name":"verdict","type":"uint8","internalType":"uint8"},{"name":"caseId","type":"string","internalType":"string"},{"name":"reasonSummary","type":"string","internalType":"string"}],"outputs":[],"stateMutability":"nonpayable"},{"type":"function","name":"rollCount","inputs":[],"outputs":[{"name":"","type":"uint256","internalType":"uint256"}],"stateMutability":"view"},{"type":"function","name":"setArbitrator","inputs":[{"name":"_arb","type":"address","internalType":"address"}],"outputs":[],"stateMutability":"nonpayable"},{"type":"function","name":"setCourtContract","inputs":[{"name":"_court","type":"address","internalType":"address"}],"outputs":[],"stateMutability":"nonpayable"},{"type":"function","name":"setExceptionPause","inputs":[{"name":"paused","type":"bool","internalType":"bool"}],"outputs":[],"stateMutability":"nonpayable"},{"type":"function","name":"settle","inputs":[],"outputs":[],"stateMutability":"nonpayable"},{"type":"function","name":"settlementAmount","inputs":[],"outputs":[{"name":"","type":"uint256","internalType":"uint256"}],"stateMutability":"view"},{"type":"function","name":"settlementCurrency","inputs":[],"outputs":[{"name":"","type":"bytes32","internalType":"bytes32"}],"stateMutability":"view"},{"type":"function","name":"settlementToken","inputs":[],"outputs":[{"name":"","type":"address","internalType":"contract IERC20"}],"stateMutability":"view"},{"type":"function","name":"shipmentCaseId","inputs":[],"outputs":[{"name":"","type":"string","internalType":"string"}],"stateMutability":"view"},{"type":"function","name":"shipmentGuidelineVersion","inputs":[],"outputs":[{"name":"","type":"string","internalType":"string"}],"stateMutability":"view"},{"type":"function","name":"shipmentManifestCid","inputs":[],"outputs":[{"name":"","type":"string","internalType":"string"}],"stateMutability":"view"},{"type":"function","name":"shipmentReviewRequired","inputs":[],"outputs":[{"name":"","type":"bool","internalType":"bool"}],"stateMutability":"view"},{"type":"function","name":"shipmentStatement","inputs":[],"outputs":[{"name":"","type":"string","internalType":"string"}],"stateMutability":"view"},{"type":"function","name":"shipmentStatus","inputs":[],"outputs":[{"name":"","type":"uint8","internalType":"enum TradeFxSettlement.ShipmentStatus"}],"stateMutability":"view"},{"type":"function","name":"shipmentVerdictAt","inputs":[],"outputs":[{"name":"","type":"uint256","internalType":"uint256"}],"stateMutability":"view"},{"type":"function","name":"shipmentVerdictReason","inputs":[],"outputs":[{"name":"","type":"string","internalType":"string"}],"stateMutability":"view"},{"type":"function","name":"sourceCurrency","inputs":[],"outputs":[{"name":"","type":"bytes32","internalType":"bytes32"}],"stateMutability":"view"},{"type":"function","name":"status","inputs":[],"outputs":[{"name":"","type":"uint8","internalType":"enum TradeFxSettlement.Status"}],"stateMutability":"view"},{"type":"function","name":"timeoutManualReview","inputs":[],"outputs":[],"stateMutability":"nonpayable"},{"type":"event","name":"ArbitratorSet","inputs":[{"name":"arbitrator","type":"address","indexed":true,"internalType":"address"},{"name":"by","type":"address","indexed":true,"internalType":"address"}],"anonymous":false},{"type":"event","name":"Cancelled","inputs":[{"name":"reasonCode","type":"uint8","indexed":false,"internalType":"uint8"},{"name":"by","type":"address","indexed":true,"internalType":"address"},{"name":"refundAmount","type":"uint256","indexed":false,"internalType":"uint256"},{"name":"refundTo","type":"address","indexed":true,"internalType":"address"}],"anonymous":false},{"type":"event","name":"CourtContractSet","inputs":[{"name":"courtContract","type":"address","indexed":true,"internalType":"address"},{"name":"by","type":"address","indexed":true,"internalType":"address"}],"anonymous":false},{"type":"event","name":"ExceptionFlagged","inputs":[{"name":"reasonCode","type":"uint8","indexed":false,"internalType":"uint8"},{"name":"evidenceRef","type":"bytes32","indexed":false,"internalType":"bytes32"},{"name":"flagger","type":"address","indexed":true,"internalType":"address"}],"anonymous":false},{"type":"event","name":"ExceptionPauseSet","inputs":[{"name":"paused","type":"bool","indexed":false,"internalType":"bool"},{"name":"by","type":"address","indexed":true,"internalType":"address"}],"anonymous":false},{"type":"event","name":"Funded","inputs":[{"name":"funder","type":"address","indexed":true,"internalType":"address"},{"name":"amount","type":"uint256","indexed":false,"internalType":"uint256"},{"name":"timestamp","type":"uint256","indexed":false,"internalType":"uint256"}],"anonymous":false},{"type":"event","name":"ManualReviewResolved","inputs":[{"name":"arbitrator","type":"address","indexed":true,"internalType":"address"},{"name":"timeliness","type":"bool","indexed":false,"internalType":"bool"},{"name":"reason","type":"string","indexed":false,"internalType":"string"},{"name":"timestamp","type":"uint256","indexed":false,"internalType":"uint256"}],"anonymous":false},{"type":"event","name":"ManualReviewTimedOut","inputs":[{"name":"caller","type":"address","indexed":true,"internalType":"address"},{"name":"timestamp","type":"uint256","indexed":false,"internalType":"uint256"}],"anonymous":false},{"type":"event","name":"NotionalResized","inputs":[{"name":"oldNotional","type":"uint256","indexed":false,"internalType":"uint256"},{"name":"newNotional","type":"uint256","indexed":false,"internalType":"uint256"},{"name":"newSettlementAmount","type":"uint256","indexed":false,"internalType":"uint256"},{"name":"fulfilledBps","type":"uint256","indexed":false,"internalType":"uint256"}],"anonymous":false},{"type":"event","name":"RateLockRequested","inputs":[{"name":"requester","type":"address","indexed":true,"internalType":"address"},{"name":"timestamp","type":"uint256","indexed":false,"internalType":"uint256"}],"anonymous":false},{"type":"event","name":"RateLocked","inputs":[{"name":"rate","type":"uint256","indexed":false,"internalType":"uint256"},{"name":"benchmarkType","type":"bytes32","indexed":false,"internalType":"bytes32"},{"name":"benchmarkId","type":"bytes32","indexed":false,"internalType":"bytes32"},{"name":"asOfTimestamp","type":"uint256","indexed":false,"internalType":"uint256"},{"name":"settlementAmount","type":"uint256","indexed":false,"internalType":"uint256"}],"anonymous":false},{"type":"event","name":"RateRolled","inputs":[{"name":"priorRate","type":"uint256","indexed":false,"internalType":"uint256"},{"name":"rolledRate","type":"uint256","indexed":false,"internalType":"uint256"},{"name":"rollCost","type":"uint256","indexed":false,"internalType":"uint256"},{"name":"oldDueDate","type":"uint256","indexed":false,"internalType":"uint256"},{"name":"newDueDate","type":"uint256","indexed":false,"internalType":"uint256"},{"name":"benchmarkId","type":"bytes32","indexed":false,"internalType":"bytes32"},{"name":"asOfTimestamp","type":"uint256","indexed":false,"internalType":"uint256"}],"anonymous":false},{"type":"event","name":"RollRequested","inputs":[{"name":"requester","type":"address","indexed":true,"internalType":"address"},{"name":"currentDueDate","type":"uint256","indexed":false,"internalType":"uint256"},{"name":"requestedNewDueDate","type":"uint256","indexed":false,"internalType":"uint256"},{"name":"timestamp","type":"uint256","indexed":false,"internalType":"uint256"}],"anonymous":false},{"type":"event","name":"Settled","inputs":[{"name":"exporter","type":"address","indexed":true,"internalType":"address"},{"name":"amount","type":"uint256","indexed":false,"internalType":"uint256"},{"name":"timestamp","type":"uint256","indexed":false,"internalType":"uint256"}],"anonymous":false},{"type":"event","name":"SettlementCancelledByVerdict","inputs":[{"name":"importer","type":"address","indexed":true,"internalType":"address"},{"name":"refundAmount","type":"uint256","indexed":false,"internalType":"uint256"}],"anonymous":false},{"type":"event","name":"SettlementManualReview","inputs":[{"name":"caseId","type":"string","indexed":false,"internalType":"string"},{"name":"reviewDeadline","type":"uint256","indexed":false,"internalType":"uint256"},{"name":"timestamp","type":"uint256","indexed":false,"internalType":"uint256"}],"anonymous":false},{"type":"event","name":"ShipmentAccepted","inputs":[{"name":"by","type":"address","indexed":true,"internalType":"address"},{"name":"afterDeadline","type":"bool","indexed":false,"internalType":"bool"},{"name":"timestamp","type":"uint256","indexed":false,"internalType":"uint256"}],"anonymous":false},{"type":"event","name":"ShipmentContested","inputs":[{"name":"contestant","type":"address","indexed":true,"internalType":"address"},{"name":"manifestCid","type":"string","indexed":false,"internalType":"string"},{"name":"statement","type":"string","indexed":false,"internalType":"string"},{"name":"contestDeadline","type":"uint256","indexed":false,"internalType":"uint256"},{"name":"timestamp","type":"uint256","indexed":false,"internalType":"uint256"}],"anonymous":false},{"type":"event","name":"ShipmentVerdictReceived","inputs":[{"name":"verdict","type":"uint8","indexed":false,"internalType":"uint8"},{"name":"caseId","type":"string","indexed":false,"internalType":"string"},{"name":"reasonSummary","type":"string","indexed":false,"internalType":"string"},{"name":"deliveredBy","type":"address","indexed":true,"internalType":"address"},{"name":"fromCourtContract","type":"bool","indexed":false,"internalType":"bool"},{"name":"timestamp","type":"uint256","indexed":false,"internalType":"uint256"}],"anonymous":false},{"type":"event","name":"TradeCreated","inputs":[{"name":"exporter","type":"address","indexed":true,"internalType":"address"},{"name":"importer","type":"address","indexed":true,"internalType":"address"},{"name":"invoiceAmount","type":"uint256","indexed":false,"internalType":"uint256"},{"name":"dueDate","type":"uint256","indexed":false,"internalType":"uint256"},{"name":"invoiceRef","type":"string","indexed":false,"internalType":"string"}],"anonymous":false},{"type":"error","name":"SafeERC20FailedOperation","inputs":[{"name":"token","type":"address","internalType":"address"}]}],"bytecode":{"object":"0x608060405234610555576136ee8038038061001981610559565b92833981019061014081830312610555576100338161057e565b61003f6020830161057e565b9161004c6040820161057e565b936100596060830161057e565b6100656080840161057e565b60a084015160c085015160e086015161010087015161012088015190979395919492936001600160401b03821161055557019786601f8a0112156105555788516001600160401b0381116103d2576100c6601f8201601f1916602001610559565b99818b5260208b01986020838301011161055557815f9260208093018b5e8b0101526001600160a01b031698891561051b576001600160a01b0316998a156104e1576001600160a01b03169182156104a8576001600160a01b031691821561047157851561043857428811156103f3575f80546001600160a01b03199081168c179091556001805482168d179055600280549091169190911790556001600160a01b038116158015906103ed57815b600380546001600160a01b0319166001600160a01b0392909216919091179055156103e6575b600580546001600160a01b03929092166001600160a01b03199283161790556006805490911691909117905560078390556010839055600855600955601383905583516001600160401b0381116103d257600a54600181811c911680156103c8575b60208210146103b457601f8111610346575b50806020601f82116001146102e2575f916102d7575b508160011b915f199060031b1c191617600a555b61271060115560ff196018541660185562278d008301918284116102c3577fbb5fd511e52e015eb19dab8dd103d9cec0091f40e6a698aeab6b4c4d221b82659460809360145560405194859384526020840152606060408401525180918160608501528484015e5f828201840152601f01601f19168101030190a360405161315b90816105938239f35b634e487b7160e01b5f52601160045260245ffd5b90508501515f610225565b600a5f9081528181209250601f198416905b81811061032e57509083600194939210610316575b5050811b01600a55610239565b8701515f1960f88460031b161c191690555f80610309565b9192602060018192868c0151815501940192016102f4565b8181111561020f57600a5f52601f820160051c7fc65a7bb8d6351c1cf70c95a316cc6a92839c986682d98bc35f958f4883f9d2a8602084106103ac575b81601f9101920160051c03905f5b82811061039f57505061020f565b5f82820155600101610391565b5f9150610383565b634e487b7160e01b5f52602260045260245ffd5b90607f16906101fd565b634e487b7160e01b5f52604160045260245ffd5b503361019b565b33610175565b60405162461bcd60e51b815260206004820152601560248201527f5446583a20647565206461746520696e207061737400000000000000000000006044820152606490fd5b60405162461bcd60e51b81526020600482015260116024820152705446583a207a65726f20696e766f69636560781b6044820152606490fd5b60405162461bcd60e51b815260206004820152600f60248201526e2a232c1d103d32b937903a37b5b2b760891b6044820152606490fd5b60405162461bcd60e51b81526020600482015260116024820152702a232c1d103d32b937903932b630bcb2b960791b6044820152606490fd5b60405162461bcd60e51b81526020600482015260126024820152712a232c1d103d32b9379034b6b837b93a32b960711b6044820152606490fd5b60405162461bcd60e51b81526020600482015260126024820152712a232c1d103d32b9379032bc3837b93a32b960711b6044820152606490fd5b5f80fd5b6040519190601f01601f191682016001600160401b038111838210176103d257604052565b51906001600160a01b03821682036105555756fe60806040526004361015610011575f80fd5b5f3560e01c8063017761f014612b65578063096e301a14612ae757806311da60b414612a63578063165eb0f314612991578063185a85ef1461296e5780631e5cae1a146128c9578063200d2ed2146128a2578063219369df1461287d5780632297e1001461286057806322de7a6f1461282a578063262e59e91461280d5780632f5685bb146127eb57806334120d79146127465780633a0a64e5146127215780633f18b82e146121a85780634051ddac146121115780634bbbe0cc146120ea5780634e9b0f8a14611f625780634faf61ab14611f3a578063503ae34e14611e95578063504e241a14611df05780635786643c14611dd35780635c0d823714611dab5780636293230114611d83578063667fa04714611c365780636cc6cde114611c0e578063723f99a514611a6c578063735681a914611a4f5780637478901d14611a325780637a32984e14611a155780637b9e618d146119ed5780637feb545c146119d0578063820a5f50146119b35780638b0783601461198a5780638c90672f146118e55780638de6d28a146117e057806393c7cdf5146115f057806396e3470b146115d3578063974c5941146114365780639818501b14611419578063a09751091461133f578063a98a4bd714611322578063ada9105f14610cc2578063b0eefabe14610c0b578063be83be0714610acf578063bead103e14610ab2578063c666ea0314610a0e578063c81fd1401461095c578063c83f06a71461079b578063d5303c9a1461064c578063e30a3bad1461062f578063ed34b63014610567578063f851a4401461053f5763ff36bfe41461026b575f80fd5b3461053b57608036600319011261053b576004356024356044356064359061029e60018060a01b03600254163314612f24565b60ff6018546102b2828260101c1615612dda565b1660088110156105275760046102c89114612e26565b6102d3841515612f63565b601754925f601755600b5460135491604051916102ef83612ca0565b825260208201918783526040810193828552606082019081526080820188815260a0830187815260c084019189835260165493680100000000000000008510156105135760018501806016558510156104ff577f1943afe84359be0f2ba34df371aa5bc0aa81424cab67fef39b0105bf13141f699860e09860077fd833147d7dc355ba459fc788f669e58cfaf9dc25ddcd0702e87d69c7b512428f9760165f52029751887fd833147d7dc355ba459fc788f669e58cfaf9dc25ddcd0702e87d69c7b51242890155517fd833147d7dc355ba459fc788f669e58cfaf9dc25ddcd0702e87d69c7b512428a880155517fd833147d7dc355ba459fc788f669e58cfaf9dc25ddcd0702e87d69c7b512428b870155517fd833147d7dc355ba459fc788f669e58cfaf9dc25ddcd0702e87d69c7b512428c860155517fd833147d7dc355ba459fc788f669e58cfaf9dc25ddcd0702e87d69c7b512428d850155517fd833147d7dc355ba459fc788f669e58cfaf9dc25ddcd0702e87d69c7b512428e84015551910155600b549060135490604051928352886020840152604083015260608201528560808201528360a08201528460c0820152a183600b55600d55600e556013556015545f1981146104eb57670de0b6b3a76400009160016104d89201601555601054612fa0565b04600f556018805460ff19166005179055005b634e487b7160e01b5f52601160045260245ffd5b634e487b7160e01b5f52603260045260245ffd5b634e487b7160e01b5f52604160045260245ffd5b634e487b7160e01b5f52602160045260245ffd5b5f80fd5b3461053b575f36600319011261053b576003546040516001600160a01b039091168152602090f35b3461053b57602036600319011261053b57610580612d40565b61059560018060a01b03600354163314612ff3565b6018549060ff8260081c16156105ea5715159062ff00008260101b169062ff00001916176018556040519081527f3c1cf6dbd034882b9d267167e0558590c91f438285afa93e93899df7c2f8c30260203392a2005b60405162461bcd60e51b815260206004820152601960248201527f5446583a206e6f20657863657074696f6e20666c6167676564000000000000006044820152606490fd5b3461053b575f36600319011261053b576020601554604051908152f35b3461053b575f36600319011261053b576016546001600160401b038111610513576040519061068160208260051b0183612cbb565b80825260208201908160165f527fd833147d7dc355ba459fc788f669e58cfaf9dc25ddcd0702e87d69c7b51242895f915b83831061073c578486604051918291602083019060208452518091526040830191905f5b8181106106e4575050500390f35b91935091602060e060019260c0875180518352848101518584015260408101516040840152606081015160608401526080810151608084015260a081015160a0840152015160c08201520194019101918493926106d6565b6007602060019260405161074f81612ca0565b855481528486015483820152600286015460408201526003860154606082015260048601546080820152600586015460a0820152600686015460c08201528152019201920191906106b2565b3461053b575f36600319011261053b576107c060018060a01b03600154163314612fb3565b60ff6018546107d4828260101c1615612dda565b1660088110156105275760028114908115610951575b501561090257600f5480156108bd578060125560018060a01b036006541690604051906323b872dd60e01b5f52336004523060245260445260205f60648180865af19060015f511482161561089c575b6040525f6060521561088a57600360ff196018541617601855600f546040519081524260208201527fcd909ec339185c4598a4096e174308fbdf136d117f230960f873a2f2e81f63af60403392a2005b635274afe760e01b5f5260045260245ffd5b9060018115166108b457823b15153d1516169061083a565b503d5f823e3d90fd5b60405162461bcd60e51b815260206004820152601e60248201527f5446583a20736574746c656d656e7420616d6f756e74206e6f742073657400006044820152606490fd5b60405162461bcd60e51b815260206004820152602160248201527f5446583a2063616e6e6f742066756e6420696e2063757272656e7420737461746044820152606560f81b6064820152608490fd5b6005915014816107ea565b3461053b57602036600319011261053b576004356001600160a01b0381169081900361053b5761099760018060a01b03600354163314612ff3565b80156109d757600480546001600160a01b0319168217905533907f7463c06c46d1caf16438de0e6f4fe963ce0934e62b90e34d6fab43c8e3cd006f5f80a3005b60405162461bcd60e51b815260206004820152600f60248201526e1511960e881e995c9bc818dbdd5c9d608a1b6044820152606490fd5b3461053b575f36600319011261053b575f546001600160a01b031633148015610a9e575b610a3b90612d9b565b60ff601854610a4f828260101c1615612dda565b16600881101561052757610a639015612e26565b600160ff1960185416176018556040514281527fe082272b702e2eab6b62fabd7a1ad7ab9e60dcd6c3346f51916b1a8248eac12760203392a2005b506001546001600160a01b03163314610a32565b3461053b575f36600319011261053b576020600954604051908152f35b3461053b57604036600319011261053b57610ae8612d40565b6024356001600160401b03811161053b57610b07903690600401612d13565b6005549091906001600160a01b03163303610bd05760ff601a54166006811015610527577f2e2c0407515b972a1b3b6f90d0299d45a11915d914d6841430b612dea6ba200391610b5c6005610b769314612d4f565b604051938515158552606060208601526060850191612ea9565b914260408201528033930390a215610ba857610b9a600360ff19601a541617601a55565b6018805462ff000019169055005b610bba600460ff19601a541617601a55565b62ff00001960185416601855610bce613030565b005b60405162461bcd60e51b81526020600482015260136024820152722a232c1d103737ba1030b93134ba3930ba37b960691b6044820152606490fd5b3461053b57602036600319011261053b576004356001600160a01b0381169081900361053b57610c4660018060a01b03600354163314612ff3565b8015610c8657600580546001600160a01b0319168217905533907f5226cf13e29e7b252c6722ac95bc9beb40dfd336d700c1c8469a44b9dbcd80da5f80a3005b60405162461bcd60e51b81526020600482015260146024820152732a232c1d103d32b9379030b93134ba3930ba37b960611b6044820152606490fd5b3461053b57606036600319011261053b576004356001600160401b03811161053b57610cf2903690600401612d13565b6024356001600160401b03811161053b57610d11903690600401612d13565b6044356001600160401b03811161053b57610d30903690600401612d13565b90610d4660018060a01b03600154163314612fb3565b60ff601854166008811015908161052757600681141580611314575b610d6b90612e67565b60ff601a5416600681101561052757610d85839115612ec9565b6105275760028114918215611307575b82156112f6575b5050156112a557601454421161123a57600260ff19601a541617601a556001600160401b03851161051357610dd2601c54612c4d565b601f81116111cc575b50845f601f8211600114611149575f9161113e575b508560011b905f198760031b1c191617601c555b6001600160401b03831161051357610e1d601e54612c4d565b601f81116110d0575b50825f601f821160011461104d575f91611042575b508360011b905f198560031b1c191617601e555b6001600160401b03821161051357610e68601d54612c4d565b601f8111610fd4575b505f90601f8311600114610f2a579180610f0b94927f5d1582f88acb83cee71f3cb3617da2b9fe18b7d1cfe747a1c136342b2476d5ec9796945f92610f1f575b50508160011b915f199060031b1c191617601d555b600160ff1960215416176021556201000062ff0000196018541617601855610efd6014549660405195608087526080870191612ea9565b918483036020860152612ea9565b9260408201524260608201528033930390a2005b013590508880610eb1565b601f19831691601d5f527f6d4407e7be21f808e6509aa9fa9143369579dd7d760fe20a2c09680fc146134f925f5b818110610fbc57509260019285927f5d1582f88acb83cee71f3cb3617da2b9fe18b7d1cfe747a1c136342b2476d5ec999896610f0b989610610fa3575b505050811b01601d55610ec6565b01355f19600384901b60f8161c19169055888080610f95565b91936020600181928787013581550195019201610f58565b82811115610e7157601d5f52601f830160051c906020841061103a575b601f82910160051c03905f5b82811061100b575050610e71565b5f8282017f6d4407e7be21f808e6509aa9fa9143369579dd7d760fe20a2c09680fc146134f0155600101610ffd565b5f9150610ff1565b905084013587610e3b565b9050601f19841690601e5f52847f50bb669a95c7b50b7e8a6f09454034b2b14cf2b85c730dca9a539ca82cb6e350925f5b8181106110b557501061109c575b5050600183811b01601e55610e4f565b8501355f19600386901b60f8161c19169055868061108c565b8884013585556001909401936020938401938893500161107e565b83811115610e2657601e5f52601f840160051c9060208510611136575b601f82910160051c03905f5b828110611107575050610e26565b5f8282017f50bb669a95c7b50b7e8a6f09454034b2b14cf2b85c730dca9a539ca82cb6e35001556001016110f9565b5f91506110ed565b905086013587610df0565b9050601f19861690601c5f52867f0e4562a10381dec21b205ed72637e6b1b523bdd0e4d4d50af5cd23dd4500a211925f5b8181106111b1575010611198575b5050600185811b01601c55610e04565b8701355f19600388901b60f8161c191690558680611188565b8a84013585556001909401936020938401938a93500161117a565b85811115610ddb57601c5f52601f860160051c9060208710611232575b601f82910160051c03905f5b828110611203575050610ddb565b5f8282017f0e4562a10381dec21b205ed72637e6b1b523bdd0e4d4d50af5cd23dd4500a21101556001016111f5565b5f91506111e9565b60405162461bcd60e51b815260206004820152603760248201527f5446583a20636f6e7465737420646561646c696e6520706173736564202d207360448201527f6869706d656e74206465656d65642061636365707465640000000000000000006064820152608490fd5b60405162461bcd60e51b8152602060048201526024808201527f5446583a2063616e6e6f7420636f6e7465737420696e2063757272656e7420736044820152637461746560e01b6064820152608490fd5b909150610527576003148780610d9c565b506005811491505f610d95565b505f91506007811415610d62565b3461053b575f36600319011261053b576020601354604051908152f35b3461053b575f36600319011261053b576040515f601d5461135f81612c4d565b80845290600181169081156113f55750600114611397575b6113938361138781850382612cbb565b60405191829182612cdc565b0390f35b601d5f9081527f6d4407e7be21f808e6509aa9fa9143369579dd7d760fe20a2c09680fc146134f939250905b8082106113db57509091508101602001611387611377565b9192600181602092548385880101520191019092916113c3565b60ff191660208086019190915291151560051b840190910191506113879050611377565b3461053b575f36600319011261053b576020600f54604051908152f35b3461053b575f36600319011261053b575f546001600160a01b0316331480156115bf575b61146390612d9b565b60185461147660ff8260101c1615612dda565b60ff601a5416600681101561052757600181149081156115b4575b50156115615760ff1660088110156105275760030361151c576012545f6012556114c3600660ff196018541617601855565b6006545f546114e09183916001600160a01b0390811691166130ad565b7f468aeeec0e901c52363552a06c1e39331d44c3cc886eb200af127ded3f380f82604060018060a01b035f5416928151908152426020820152a2005b60405162461bcd60e51b815260206004820152601f60248201527f5446583a206d7573742062652066756e64656420746f2066696e616c697a65006044820152606490fd5b60405162461bcd60e51b815260206004820152602560248201527f5446583a20736869706d656e74206e6f7420636f6e6669726d65642061732074604482015264696d656c7960d81b6064820152608490fd5b600391501482611491565b506001546001600160a01b0316331461145a565b3461053b575f36600319011261053b576020601f54604051908152f35b3461053b57602036600319011261053b575f54600435906001600160a01b031633036117a75760ff60185461162a828260101c1615612dda565b166008811015610527576002811490811561179c575b5015611757578015158061174c575b1561170f576011548110156116d15760807f0463fdb27006d5a65dfd357dab584a75ca5b3f1db1793ef451634eb092c84e12916010549061271061169582600754612fa0565b048060105581601155670de0b6b3a76400006116b3600b5483612fa0565b049081600f55604051938452602084015260408301526060820152a1005b60405162461bcd60e51b81526020600482015260166024820152755446583a20627073206d75737420646563726561736560501b6044820152606490fd5b60405162461bcd60e51b81526020600482015260156024820152745446583a20627073206f7574206f662072616e676560581b6044820152606490fd5b50612710811061164f565b60405162461bcd60e51b815260206004820152601f60248201527f5446583a20726573697a65206f6e6c79206265666f72652066756e64696e67006044820152606490fd5b600591501482611640565b60405162461bcd60e51b81526020600482015260116024820152702a232c1d103737ba1032bc3837b93a32b960791b6044820152606490fd5b3461053b57608036600319011261053b57600435602435604435916064359161181460018060a01b03600254163314612f24565b60ff601854611828828260101c1615612dda565b16926008841015610527577f8fe7adb9d88091ef45bdb5a0327af76405cbc60deaffe25b9df0e055c20a611b94611863600160a09614612e26565b61186e841515612f63565b81606060405161187d81612c85565b868152856020820152836040820152015283600b5582600c5580600d5581600e55670de0b6b3a76400006118b385601054612fa0565b04600f55600260ff196018541617601855600f54926040519485526020850152604084015260608301526080820152a1005b3461053b575f36600319011261053b576040515f600a5461190581612c4d565b80845290600181169081156113f5575060011461192c576113938361138781850382612cbb565b600a5f9081527fc65a7bb8d6351c1cf70c95a316cc6a92839c986682d98bc35f958f4883f9d2a8939250905b80821061197057509091508101602001611387611377565b919260018160209254838588010152019101909291611958565b3461053b575f36600319011261053b5760ff601a54166040516006821015610527576020918152f35b3461053b575f36600319011261053b576020601254604051908152f35b3461053b575f36600319011261053b576020600854604051908152f35b3461053b575f36600319011261053b576006546040516001600160a01b039091168152602090f35b3461053b575f36600319011261053b576020601154604051908152f35b3461053b575f36600319011261053b576020600754604051908152f35b3461053b575f36600319011261053b576020601954604051908152f35b3461053b575f36600319011261053b5760ff601854166008811015908161052757600681141580611c00575b611aa190612e67565b60ff601a5416600681101561052757611abb839115612ec9565b6105275760028114918215611bf3575b8215611be2575b505015611b885760145442118015611b26575b600160ff19601a541617601a556040519081524260208201527ff410075d2dc68634bc421dcdfbce03adaea75fa706d772bd5d034a658e65380c60403392a2005b6001546001600160a01b03163314611ae55760405162461bcd60e51b815260206004820152602260248201527f5446583a206f6e6c7920696d706f72746572206265666f726520646561646c696044820152616e6560f01b6064820152608490fd5b60405162461bcd60e51b815260206004820152602c60248201527f5446583a2063616e6e6f742061636365707420736869706d656e7420696e206360448201526b757272656e7420737461746560a01b6064820152608490fd5b909150610527576003148180611ad2565b506005811491505f611acb565b505f91506007811415611a98565b3461053b575f36600319011261053b576005546040516001600160a01b039091168152602090f35b3461053b57602036600319011261053b57611c4f612c3d565b5f546001600160a01b031633148015611d6f575b8015611d5b575b15611d205760ff60185416600881101561052757806006611c949214159081611d14575b50612e67565b6012549060018060a01b0360015416915f601255611cba600760ff196018541617601855565b80611cf6575b60ff6040519216825260208201527fbeb2436210b4808956874f19f645e85c3285d14833015910c580129394cc967f60403392a3005b600654611d0f90829085906001600160a01b03166130ad565b611cc0565b60079150141583611c8e565b60405162461bcd60e51b81526020600482015260136024820152721511960e881b9bdd08185d5d1a1bdc9a5e9959606a1b6044820152606490fd5b506003546001600160a01b03163314611c6a565b506001546001600160a01b03163314611c63565b3461053b575f36600319011261053b576001546040516001600160a01b039091168152602090f35b3461053b575f36600319011261053b576004546040516001600160a01b039091168152602090f35b3461053b575f36600319011261053b576020601054604051908152f35b3461053b575f36600319011261053b576040515f601b54611e1081612c4d565b80845290600181169081156113f55750600114611e37576113938361138781850382612cbb565b601b5f9081527f3ad8aa4f87544323a9d1e5dd902f40c356527a7955687113db5f9a85ad579dc1939250905b808210611e7b57509091508101602001611387611377565b919260018160209254838588010152019101909291611e63565b3461053b575f36600319011261053b576040515f602054611eb581612c4d565b80845290600181169081156113f55750600114611edc576113938361138781850382612cbb565b60205f9081527fc97bfaf2f8ee708c303a06d134f5ecd8389ae0432af62dc132a24118292866bb939250905b808210611f2057509091508101602001611387611377565b919260018160209254838588010152019101909291611f08565b3461053b575f36600319011261053b576002546040516001600160a01b039091168152602090f35b3461053b57602036600319011261053b5760043560018060a01b035f5416331480156120d6575b611f9290612d9b565b60ff601854611fa6828260101c1615612dda565b166008811015908161052757600281149182156120c9575b82156120b8575b505015612069576013548111156120245780601755600460ff1960185416176018556013549060405191825260208201524260408201527fbdd365a79d2543b27ac131514a83756b481d72eab6d788a4da1f6a59b2c4912460603392a2005b60405162461bcd60e51b815260206004820152601b60248201527f5446583a206e65772064617465206d757374206265206c6174657200000000006044820152606490fd5b60405162461bcd60e51b815260206004820152602160248201527f5446583a2063616e6e6f7420726f6c6c20696e2063757272656e7420737461746044820152606560f81b6064820152608490fd5b909150610527576003148280611fc5565b506005811491505f611fbe565b506001546001600160a01b03163314611f89565b3461053b575f36600319011261053b575f546040516001600160a01b039091168152602090f35b3461053b575f36600319011261053b57610160601854600754906010549060ff600f5491601254601354601454906015549260018060a01b03600454169660018060a01b0360055416986040519a61216b8c8a8a16612d06565b60208c015260408b015260608a0152608089015260a088015260c087015260e086015260081c161515610100840152610120830152610140820152f35b3461053b57606036600319011261053b576121c1612c3d565b6024356001600160401b03811161053b576121e0903690600401612d13565b916044356001600160401b03811161053b57612200903690600401612d13565b9160018060a01b0360025416331480156126fa575b156126b55760ff601a5416600681101561052757600203612670576004546001600160a01b0316801515929083612666575b506001600160401b03861161051357612261601b54612c4d565b601f81116125f8575b50855f601f8211600114612575575f9161256a575b508660011b905f198860031b1c191617601b555b6001600160401b038411610513576122ac602054612c4d565b601f81116124fc575b50835f601f821160011461244f5791612338917f36672c34fcd1d1172b8ed90a5c5ebf0dcfe06cd22f41098be71b03a58643185394935f91612444575b508660011b905f198860031b1c1916176020555b42601f5560ff60405193169586845260a0602085015261232a60a085018a8a612ea9565b918483036040860152612ea9565b92151560608201524260808201528033930390a26001810361236957505050610b9a600360ff19601a541617601a55565b6002810361238657505050610bba600460ff19601a541617601a55565b6003036123ff57600560ff19601a541617601a55600160ff196021541617602155621275004201918242116104eb577f60901e423fac6287980ad06a0bc6b3bb89448c2b86bbade62435d3106eabd433926123ee604051938493606085526060850191612ea9565b9060208301524260408301520390a1005b60405162461bcd60e51b815260206004820152601960248201527f5446583a20696e76616c6964207665726469637420636f6465000000000000006044820152606490fd5b9050810135896122f2565b9050601f1985169060205f52857fc97bfaf2f8ee708c303a06d134f5ecd8389ae0432af62dc132a24118292866bb925f5b8181106124e157509161233893917f36672c34fcd1d1172b8ed90a5c5ebf0dcfe06cd22f41098be71b03a586431853969593106124c8575b5050600186811b01602055612306565b8201355f19600389901b60f8161c1916905588806124b8565b85840135855560019094019360209384019389935001612480565b848111156122b55760205f52601f850160051c9060208610612562575b601f82910160051c03905f5b8281106125335750506122b5565b5f8282017fc97bfaf2f8ee708c303a06d134f5ecd8389ae0432af62dc132a24118292866bb0155600101612525565b5f9150612519565b90508501358761227f565b9050601f19871690601b5f52877f3ad8aa4f87544323a9d1e5dd902f40c356527a7955687113db5f9a85ad579dc1925f5b8181106125dd5750106125c4575b5050600186811b01601b55612293565b8601355f19600389901b60f8161c1916905586806125b4565b8984013585556001909401936020938401938b9350016125a6565b8681111561226a57601b5f52601f870160051c906020881061265e575b601f82910160051c03905f5b82811061262f57505061226a565b5f8282017f3ad8aa4f87544323a9d1e5dd902f40c356527a7955687113db5f9a85ad579dc10155600101612621565b5f9150612615565b3314925086612247565b60405162461bcd60e51b815260206004820152601f60248201527f5446583a206e6f2061637469766520736869706d656e7420636f6e74657374006044820152606490fd5b60405162461bcd60e51b815260206004820152601760248201527f5446583a206e6f74207665726469637420736f757263650000000000000000006044820152606490fd5b506004546001600160a01b03168015159081612717575b50612215565b9050331486612711565b3461053b575f36600319011261053b57602060ff60185460081c166040519015158152f35b3461053b575f36600319011261053b576040515f601e5461276681612c4d565b80845290600181169081156113f5575060011461278d576113938361138781850382612cbb565b601e5f9081527f50bb669a95c7b50b7e8a6f09454034b2b14cf2b85c730dca9a539ca82cb6e350939250905b8082106127d157509091508101602001611387611377565b9192600181602092548385880101520191019092916127b9565b3461053b575f36600319011261053b57602060ff602154166040519015158152f35b3461053b575f36600319011261053b576020601454604051908152f35b3461053b575f36600319011261053b576080600b54600c54600d54600e5491604051938452602084015260408301526060820152f35b3461053b575f36600319011261053b576020604051621275008152f35b3461053b575f36600319011261053b57602060ff60185460101c166040519015158152f35b3461053b575f36600319011261053b57602060ff601854166128c76040518092612d06565bf35b3461053b575f36600319011261053b576040515f601c546128e981612c4d565b80845290600181169081156113f55750600114612910576113938361138781850382612cbb565b601c5f9081527f0e4562a10381dec21b205ed72637e6b1b523bdd0e4d4d50af5cd23dd4500a211939250905b80821061295457509091508101602001611387611377565b91926001816020925483858801015201910190929161293c565b3461053b575f36600319011261053b57602060ff60185460181c16604051908152f35b3461053b57604036600319011261053b576129aa612c3d565b60243560018060a01b035f541633148015612a4f575b6129c990612d9b565b60185460ff8116906008821015610527576129f28260066101009414159081612a435750612e67565b63ff0000008460181b169063ff00ff00191617176018558060195560ff6040519216825260208201527f3c36678e3022a469fbd8b81bc12b3eb332fe29c5c8f4ee29fcfb8465bc36695c60403392a2005b60079150141586611c8e565b506001546001600160a01b031633146129c0565b3461053b575f36600319011261053b575f546001600160a01b031633148015612ad3575b612a9090612d9b565b60ff601854612aa4828260101c1615612dda565b166008811015610527576003612aba9114612e26565b6012545f6012556114c3600660ff196018541617601855565b506001546001600160a01b03163314612a87565b3461053b575f36600319011261053b575f6060604051612b0681612c85565b82815282602082015282604082015201526080604051612b2581612c85565b600b5490818152600c5460208201908152600d5490604083019182526060600e549301928352604051938452516020840152516040830152516060820152f35b3461053b575f36600319011261053b5760ff601a54166006811015610527576005612b909114612d4f565b601f548015159081612c26575b5015612be1576040514281527f1ee13e4a2b923d6e980e6160f5cb342ca40e2c9689b2f33e1bed1f3c2069637860203392a2610bba600460ff19601a541617601a55565b60405162461bcd60e51b815260206004820152601e60248201527f5446583a207265766965772077696e646f77206e6f7420656c617073656400006044820152606490fd5b90506212750081018091116104eb57421181612b9d565b6004359060ff8216820361053b57565b90600182811c92168015612c7b575b6020831014612c6757565b634e487b7160e01b5f52602260045260245ffd5b91607f1691612c5c565b608081019081106001600160401b0382111761051357604052565b60e081019081106001600160401b0382111761051357604052565b90601f801991011681019081106001600160401b0382111761051357604052565b602060409281835280519182918282860152018484015e5f828201840152601f01601f1916010190565b9060088210156105275752565b9181601f8401121561053b578235916001600160401b03831161053b576020838186019501011161053b57565b60043590811515820361053b57565b15612d5657565b60405162461bcd60e51b815260206004820152601d60248201527f5446583a206e6f206d616e75616c207265766965772070656e64696e670000006044820152606490fd5b15612da257565b60405162461bcd60e51b815260206004820152601060248201526f5446583a206e6f74206120706172747960801b6044820152606490fd5b15612de157565b60405162461bcd60e51b815260206004820152601860248201527f5446583a2070617573656420627920657863657074696f6e00000000000000006044820152606490fd5b15612e2d57565b60405162461bcd60e51b81526020600482015260126024820152715446583a20696e76616c696420737461746560701b6044820152606490fd5b15612e6e57565b60405162461bcd60e51b81526020600482015260136024820152725446583a207465726d696e616c20737461746560681b6044820152606490fd5b908060209392818452848401375f828201840152601f01601f1916010190565b15612ed057565b60405162461bcd60e51b815260206004820152602660248201527f5446583a20736869706d656e742072657669657720616c726561647920696e696044820152651d1a585d195960d21b6064820152608490fd5b15612f2b57565b60405162461bcd60e51b815260206004820152601060248201526f2a232c1d103737ba103932b630bcb2b960811b6044820152606490fd5b15612f6a57565b60405162461bcd60e51b815260206004820152600e60248201526d5446583a207a65726f207261746560901b6044820152606490fd5b818102929181159184041417156104eb57565b15612fba57565b60405162461bcd60e51b81526020600482015260116024820152702a232c1d103737ba1034b6b837b93a32b960791b6044820152606490fd5b15612ffa57565b60405162461bcd60e51b815260206004820152600e60248201526d2a232c1d103737ba1030b236b4b760911b6044820152606490fd5b6012545f601255613049600760ff196018541617601855565b8061308a575b6001546040519182526001600160a01b0316907fd33ccdf9c03bdf3d28eb9cd91d9278cf77b0125b1631cf691b4219602f0ceffa90602090a2565b6006546001546130a89183916001600160a01b0390811691166130ad565b61304f565b916040519163a9059cbb60e01b5f5260018060a01b031660045260245260205f60448180865af19060015f511482161561310d575b604052156130ed5750565b635274afe760e01b5f9081526001600160a01b0391909116600452602490fd5b9060018115166108b457823b15153d151616906130e256fea2646970667358221220814aec73127469f29463e52597c011017000d59964207e5cb814c11e33d4966f64736f6c63430008210033","linkReferences":{}},"methodIdentifiers":{"MANUAL_REVIEW_WINDOW()":"2297e100","acceptShipment()":"723f99a5","admin()":"f851a440","arbitrator()":"6cc6cde1","cancelAndRefund(uint8)":"667fa047","contestDeadline()":"262e59e9","contestShipment(string,string,string)":"ada9105f","courtContract()":"5c0d8237","currentDueDate()":"a98a4bd7","currentNotional()":"5786643c","exceptionFlagged()":"3a0a64e5","exceptionPaused()":"219369df","exceptionReasonCode()":"185a85ef","exceptionRef()":"735681a9","exporter()":"4bbbe0cc","finalizeAfterShipment()":"974c5941","flagException(uint8,bytes32)":"165eb0f3","fulfilledBps()":"7a32984e","fundSettlement()":"c83f06a7","fundedAmount()":"820a5f50","getLockedRate()":"096e301a","getRollHistory()":"d5303c9a","getSummary()":"4051ddac","importer()":"62932301","invoiceAmount()":"7478901d","invoiceRef()":"8c90672f","lockedRate()":"22de7a6f","oracleRelayer()":"4faf61ab","receiveRate(uint256,bytes32,bytes32,uint256)":"8de6d28a","receiveRolledRate(uint256,uint256,bytes32,uint256)":"ff36bfe4","requestRateLock()":"c666ea03","requestRoll(uint256)":"4e9b0f8a","resize(uint256)":"93c7cdf5","resolveManualReview(bool,string)":"be83be07","resolveShipmentVerdict(uint8,string,string)":"3f18b82e","rollCount()":"e30a3bad","setArbitrator(address)":"b0eefabe","setCourtContract(address)":"c81fd140","setExceptionPause(bool)":"ed34b630","settle()":"11da60b4","settlementAmount()":"9818501b","settlementCurrency()":"bead103e","settlementToken()":"7b9e618d","shipmentCaseId()":"504e241a","shipmentGuidelineVersion()":"a0975109","shipmentManifestCid()":"1e5cae1a","shipmentReviewRequired()":"2f5685bb","shipmentStatement()":"34120d79","shipmentStatus()":"8b078360","shipmentVerdictAt()":"96e3470b","shipmentVerdictReason()":"503ae34e","sourceCurrency()":"7feb545c","status()":"200d2ed2","timeoutManualReview()":"017761f0"},"id":22}