{"abi":[{"type":"constructor","inputs":[{"name":"_exporter","type":"address","internalType":"address"},{"name":"_importer","type":"address","internalType":"address"},{"name":"_oracleRelayer","type":"address","internalType":"address"},{"name":"_admin","type":"address","internalType":"address"},{"name":"_settlementToken","type":"address","internalType":"address"},{"name":"_invoiceAmount","type":"uint256","internalType":"uint256"},{"name":"_sourceCurrency","type":"bytes32","internalType":"bytes32"},{"name":"_settlementCurrency","type":"bytes32","internalType":"bytes32"},{"name":"_dueDate","type":"uint256","internalType":"uint256"},{"name":"_invoiceRef","type":"string","internalType":"string"},{"name":"_bridgeReceiver","type":"address","internalType":"address"},{"name":"_courtFactory","type":"address","internalType":"address"}],"stateMutability":"nonpayable"},{"type":"function","name":"MANUAL_REVIEW_WINDOW","inputs":[],"outputs":[{"name":"","type":"uint256","internalType":"uint256"}],"stateMutability":"view"},{"type":"function","name":"ORACLE_TYPE","inputs":[],"outputs":[{"name":"","type":"bytes32","internalType":"bytes32"}],"stateMutability":"view"},{"type":"function","name":"RETURN_PROOF_WINDOW","inputs":[],"outputs":[{"name":"","type":"uint256","internalType":"uint256"}],"stateMutability":"view"},{"type":"function","name":"acceptShipment","inputs":[],"outputs":[],"stateMutability":"nonpayable"},{"type":"function","name":"admin","inputs":[],"outputs":[{"name":"","type":"address","internalType":"address"}],"stateMutability":"view"},{"type":"function","name":"arbitrator","inputs":[],"outputs":[{"name":"","type":"address","internalType":"address"}],"stateMutability":"view"},{"type":"function","name":"bridgeReceiver","inputs":[],"outputs":[{"name":"","type":"address","internalType":"address"}],"stateMutability":"view"},{"type":"function","name":"cancelAndRefund","inputs":[{"name":"reasonCode","type":"uint8","internalType":"uint8"}],"outputs":[],"stateMutability":"nonpayable"},{"type":"function","name":"contestDeadline","inputs":[],"outputs":[{"name":"","type":"uint256","internalType":"uint256"}],"stateMutability":"view"},{"type":"function","name":"contestShipment","inputs":[{"name":"courtSheetACid","type":"string","internalType":"string"},{"name":"courtSheetBCid","type":"string","internalType":"string"},{"name":"statement","type":"string","internalType":"string"},{"name":"guidelineVersion","type":"string","internalType":"string"}],"outputs":[],"stateMutability":"nonpayable"},{"type":"function","name":"courtContract","inputs":[],"outputs":[{"name":"","type":"address","internalType":"address"}],"stateMutability":"view"},{"type":"function","name":"courtFactory","inputs":[],"outputs":[{"name":"","type":"address","internalType":"address"}],"stateMutability":"view"},{"type":"function","name":"currentDueDate","inputs":[],"outputs":[{"name":"","type":"uint256","internalType":"uint256"}],"stateMutability":"view"},{"type":"function","name":"currentNotional","inputs":[],"outputs":[{"name":"","type":"uint256","internalType":"uint256"}],"stateMutability":"view"},{"type":"function","name":"exceptionFlagged","inputs":[],"outputs":[{"name":"","type":"bool","internalType":"bool"}],"stateMutability":"view"},{"type":"function","name":"exceptionPaused","inputs":[],"outputs":[{"name":"","type":"bool","internalType":"bool"}],"stateMutability":"view"},{"type":"function","name":"exceptionReasonCode","inputs":[],"outputs":[{"name":"","type":"uint8","internalType":"uint8"}],"stateMutability":"view"},{"type":"function","name":"exceptionRef","inputs":[],"outputs":[{"name":"","type":"bytes32","internalType":"bytes32"}],"stateMutability":"view"},{"type":"function","name":"exporter","inputs":[],"outputs":[{"name":"","type":"address","internalType":"address"}],"stateMutability":"view"},{"type":"function","name":"finalizeAfterShipment","inputs":[],"outputs":[],"stateMutability":"nonpayable"},{"type":"function","name":"flagException","inputs":[{"name":"reasonCode","type":"uint8","internalType":"uint8"},{"name":"evidenceRef","type":"bytes32","internalType":"bytes32"}],"outputs":[],"stateMutability":"nonpayable"},{"type":"function","name":"fulfilledBps","inputs":[],"outputs":[{"name":"","type":"uint256","internalType":"uint256"}],"stateMutability":"view"},{"type":"function","name":"fundSettlement","inputs":[],"outputs":[],"stateMutability":"nonpayable"},{"type":"function","name":"fundedAmount","inputs":[],"outputs":[{"name":"","type":"uint256","internalType":"uint256"}],"stateMutability":"view"},{"type":"function","name":"getLockedRate","inputs":[],"outputs":[{"name":"","type":"tuple","internalType":"struct TradeFxSettlement.RateInfo","components":[{"name":"rate","type":"uint256","internalType":"uint256"},{"name":"benchmarkType","type":"bytes32","internalType":"bytes32"},{"name":"benchmarkId","type":"bytes32","internalType":"bytes32"},{"name":"asOfTimestamp","type":"uint256","internalType":"uint256"}]}],"stateMutability":"view"},{"type":"function","name":"getOracleArgs","inputs":[],"outputs":[{"name":"","type":"bytes","internalType":"bytes"}],"stateMutability":"view"},{"type":"function","name":"getOracleType","inputs":[],"outputs":[{"name":"","type":"bytes32","internalType":"bytes32"}],"stateMutability":"pure"},{"type":"function","name":"getRollHistory","inputs":[],"outputs":[{"name":"","type":"tuple[]","internalType":"struct TradeFxSettlement.RollRecord[]","components":[{"name":"priorRate","type":"uint256","internalType":"uint256"},{"name":"rolledRate","type":"uint256","internalType":"uint256"},{"name":"rollCost","type":"uint256","internalType":"uint256"},{"name":"priorDueDate","type":"uint256","internalType":"uint256"},{"name":"newDueDate","type":"uint256","internalType":"uint256"},{"name":"benchmarkId","type":"bytes32","internalType":"bytes32"},{"name":"asOfTimestamp","type":"uint256","internalType":"uint256"}]}],"stateMutability":"view"},{"type":"function","name":"getSummary","inputs":[],"outputs":[{"name":"_status","type":"uint8","internalType":"enum TradeFxSettlement.Status"},{"name":"_invoiceAmount","type":"uint256","internalType":"uint256"},{"name":"_currentNotional","type":"uint256","internalType":"uint256"},{"name":"_settlementAmount","type":"uint256","internalType":"uint256"},{"name":"_fundedAmount","type":"uint256","internalType":"uint256"},{"name":"_currentDueDate","type":"uint256","internalType":"uint256"},{"name":"_contestDeadline","type":"uint256","internalType":"uint256"},{"name":"_rollCount","type":"uint256","internalType":"uint256"},{"name":"_exceptionFlagged","type":"bool","internalType":"bool"},{"name":"_courtContract","type":"address","internalType":"address"},{"name":"_arbitrator","type":"address","internalType":"address"}],"stateMutability":"view"},{"type":"function","name":"icCaseId","inputs":[],"outputs":[{"name":"","type":"uint256","internalType":"uint256"}],"stateMutability":"view"},{"type":"function","name":"importer","inputs":[],"outputs":[{"name":"","type":"address","internalType":"address"}],"stateMutability":"view"},{"type":"function","name":"invoiceAmount","inputs":[],"outputs":[{"name":"","type":"uint256","internalType":"uint256"}],"stateMutability":"view"},{"type":"function","name":"invoiceRef","inputs":[],"outputs":[{"name":"","type":"string","internalType":"string"}],"stateMutability":"view"},{"type":"function","name":"lockedRate","inputs":[],"outputs":[{"name":"rate","type":"uint256","internalType":"uint256"},{"name":"benchmarkType","type":"bytes32","internalType":"bytes32"},{"name":"benchmarkId","type":"bytes32","internalType":"bytes32"},{"name":"asOfTimestamp","type":"uint256","internalType":"uint256"}],"stateMutability":"view"},{"type":"function","name":"oracleRelayer","inputs":[],"outputs":[{"name":"","type":"address","internalType":"address"}],"stateMutability":"view"},{"type":"function","name":"processBridgeMessage","inputs":[{"name":"","type":"uint32","internalType":"uint32"},{"name":"","type":"address","internalType":"address"},{"name":"_message","type":"bytes","internalType":"bytes"}],"outputs":[],"stateMutability":"nonpayable"},{"type":"function","name":"receiveRate","inputs":[{"name":"rate","type":"uint256","internalType":"uint256"},{"name":"benchmarkType","type":"bytes32","internalType":"bytes32"},{"name":"benchmarkId","type":"bytes32","internalType":"bytes32"},{"name":"asOfTimestamp","type":"uint256","internalType":"uint256"}],"outputs":[],"stateMutability":"nonpayable"},{"type":"function","name":"receiveRolledRate","inputs":[{"name":"newRate","type":"uint256","internalType":"uint256"},{"name":"rollCost","type":"uint256","internalType":"uint256"},{"name":"benchmarkId","type":"bytes32","internalType":"bytes32"},{"name":"asOfTimestamp","type":"uint256","internalType":"uint256"}],"outputs":[],"stateMutability":"nonpayable"},{"type":"function","name":"requestRateLock","inputs":[],"outputs":[],"stateMutability":"nonpayable"},{"type":"function","name":"requestRoll","inputs":[{"name":"newDueDate","type":"uint256","internalType":"uint256"}],"outputs":[],"stateMutability":"nonpayable"},{"type":"function","name":"resize","inputs":[{"name":"newFulfilledBps","type":"uint256","internalType":"uint256"}],"outputs":[],"stateMutability":"nonpayable"},{"type":"function","name":"resolveManualReview","inputs":[{"name":"timeliness","type":"bool","internalType":"bool"},{"name":"reason","type":"string","internalType":"string"}],"outputs":[],"stateMutability":"nonpayable"},{"type":"function","name":"resolveShipmentVerdict","inputs":[{"name":"verdict","type":"uint8","internalType":"uint8"},{"name":"caseId","type":"string","internalType":"string"},{"name":"reasonSummary","type":"string","internalType":"string"}],"outputs":[],"stateMutability":"nonpayable"},{"type":"function","name":"returnProofDeadline","inputs":[],"outputs":[{"name":"","type":"uint256","internalType":"uint256"}],"stateMutability":"view"},{"type":"function","name":"returnProofSheetACid","inputs":[],"outputs":[{"name":"","type":"string","internalType":"string"}],"stateMutability":"view"},{"type":"function","name":"returnProofSheetBCid","inputs":[],"outputs":[{"name":"","type":"string","internalType":"string"}],"stateMutability":"view"},{"type":"function","name":"rollCount","inputs":[],"outputs":[{"name":"","type":"uint256","internalType":"uint256"}],"stateMutability":"view"},{"type":"function","name":"setArbitrator","inputs":[{"name":"_arb","type":"address","internalType":"address"}],"outputs":[],"stateMutability":"nonpayable"},{"type":"function","name":"setCourtContract","inputs":[{"name":"_court","type":"address","internalType":"address"}],"outputs":[],"stateMutability":"nonpayable"},{"type":"function","name":"setExceptionPause","inputs":[{"name":"paused","type":"bool","internalType":"bool"}],"outputs":[],"stateMutability":"nonpayable"},{"type":"function","name":"setResolution","inputs":[{"name":"verdict","type":"uint8","internalType":"uint8"},{"name":"reasoning","type":"string","internalType":"string"}],"outputs":[],"stateMutability":"nonpayable"},{"type":"function","name":"settle","inputs":[],"outputs":[],"stateMutability":"nonpayable"},{"type":"function","name":"settlementAmount","inputs":[],"outputs":[{"name":"","type":"uint256","internalType":"uint256"}],"stateMutability":"view"},{"type":"function","name":"settlementCurrency","inputs":[],"outputs":[{"name":"","type":"bytes32","internalType":"bytes32"}],"stateMutability":"view"},{"type":"function","name":"settlementToken","inputs":[],"outputs":[{"name":"","type":"address","internalType":"contract IERC20"}],"stateMutability":"view"},{"type":"function","name":"shipmentCaseId","inputs":[],"outputs":[{"name":"","type":"string","internalType":"string"}],"stateMutability":"view"},{"type":"function","name":"shipmentCourtSheetACid","inputs":[],"outputs":[{"name":"","type":"string","internalType":"string"}],"stateMutability":"view"},{"type":"function","name":"shipmentCourtSheetBCid","inputs":[],"outputs":[{"name":"","type":"string","internalType":"string"}],"stateMutability":"view"},{"type":"function","name":"shipmentGuidelineVersion","inputs":[],"outputs":[{"name":"","type":"string","internalType":"string"}],"stateMutability":"view"},{"type":"function","name":"shipmentManifestCid","inputs":[],"outputs":[{"name":"","type":"string","internalType":"string"}],"stateMutability":"view"},{"type":"function","name":"shipmentReviewRequired","inputs":[],"outputs":[{"name":"","type":"bool","internalType":"bool"}],"stateMutability":"view"},{"type":"function","name":"shipmentStatement","inputs":[],"outputs":[{"name":"","type":"string","internalType":"string"}],"stateMutability":"view"},{"type":"function","name":"shipmentStatus","inputs":[],"outputs":[{"name":"","type":"uint8","internalType":"enum TradeFxSettlement.ShipmentStatus"}],"stateMutability":"view"},{"type":"function","name":"shipmentVerdictAt","inputs":[],"outputs":[{"name":"","type":"uint256","internalType":"uint256"}],"stateMutability":"view"},{"type":"function","name":"shipmentVerdictReason","inputs":[],"outputs":[{"name":"","type":"string","internalType":"string"}],"stateMutability":"view"},{"type":"function","name":"sourceCurrency","inputs":[],"outputs":[{"name":"","type":"bytes32","internalType":"bytes32"}],"stateMutability":"view"},{"type":"function","name":"status","inputs":[],"outputs":[{"name":"","type":"uint8","internalType":"enum TradeFxSettlement.Status"}],"stateMutability":"view"},{"type":"function","name":"submitReturnProof","inputs":[{"name":"returnSheetACid","type":"string","internalType":"string"},{"name":"returnSheetBCid","type":"string","internalType":"string"}],"outputs":[],"stateMutability":"nonpayable"},{"type":"function","name":"timeoutManualReview","inputs":[],"outputs":[],"stateMutability":"nonpayable"},{"type":"function","name":"timeoutReturnProof","inputs":[],"outputs":[],"stateMutability":"nonpayable"},{"type":"event","name":"ArbitratorSet","inputs":[{"name":"arbitrator","type":"address","indexed":true,"internalType":"address"},{"name":"by","type":"address","indexed":true,"internalType":"address"}],"anonymous":false},{"type":"event","name":"Cancelled","inputs":[{"name":"reasonCode","type":"uint8","indexed":false,"internalType":"uint8"},{"name":"by","type":"address","indexed":true,"internalType":"address"},{"name":"refundAmount","type":"uint256","indexed":false,"internalType":"uint256"},{"name":"refundTo","type":"address","indexed":true,"internalType":"address"}],"anonymous":false},{"type":"event","name":"CourtContractSet","inputs":[{"name":"courtContract","type":"address","indexed":true,"internalType":"address"},{"name":"by","type":"address","indexed":true,"internalType":"address"}],"anonymous":false},{"type":"event","name":"ExceptionFlagged","inputs":[{"name":"reasonCode","type":"uint8","indexed":false,"internalType":"uint8"},{"name":"evidenceRef","type":"bytes32","indexed":false,"internalType":"bytes32"},{"name":"flagger","type":"address","indexed":true,"internalType":"address"}],"anonymous":false},{"type":"event","name":"ExceptionPauseSet","inputs":[{"name":"paused","type":"bool","indexed":false,"internalType":"bool"},{"name":"by","type":"address","indexed":true,"internalType":"address"}],"anonymous":false},{"type":"event","name":"Funded","inputs":[{"name":"funder","type":"address","indexed":true,"internalType":"address"},{"name":"amount","type":"uint256","indexed":false,"internalType":"uint256"},{"name":"timestamp","type":"uint256","indexed":false,"internalType":"uint256"}],"anonymous":false},{"type":"event","name":"ManualReviewResolved","inputs":[{"name":"arbitrator","type":"address","indexed":true,"internalType":"address"},{"name":"timeliness","type":"bool","indexed":false,"internalType":"bool"},{"name":"reason","type":"string","indexed":false,"internalType":"string"},{"name":"timestamp","type":"uint256","indexed":false,"internalType":"uint256"}],"anonymous":false},{"type":"event","name":"ManualReviewTimedOut","inputs":[{"name":"caller","type":"address","indexed":true,"internalType":"address"},{"name":"timestamp","type":"uint256","indexed":false,"internalType":"uint256"}],"anonymous":false},{"type":"event","name":"NotionalResized","inputs":[{"name":"oldNotional","type":"uint256","indexed":false,"internalType":"uint256"},{"name":"newNotional","type":"uint256","indexed":false,"internalType":"uint256"},{"name":"newSettlementAmount","type":"uint256","indexed":false,"internalType":"uint256"},{"name":"fulfilledBps","type":"uint256","indexed":false,"internalType":"uint256"}],"anonymous":false},{"type":"event","name":"RateLockRequested","inputs":[{"name":"requester","type":"address","indexed":true,"internalType":"address"},{"name":"timestamp","type":"uint256","indexed":false,"internalType":"uint256"}],"anonymous":false},{"type":"event","name":"RateLocked","inputs":[{"name":"rate","type":"uint256","indexed":false,"internalType":"uint256"},{"name":"benchmarkType","type":"bytes32","indexed":false,"internalType":"bytes32"},{"name":"benchmarkId","type":"bytes32","indexed":false,"internalType":"bytes32"},{"name":"asOfTimestamp","type":"uint256","indexed":false,"internalType":"uint256"},{"name":"settlementAmount","type":"uint256","indexed":false,"internalType":"uint256"}],"anonymous":false},{"type":"event","name":"RateRolled","inputs":[{"name":"priorRate","type":"uint256","indexed":false,"internalType":"uint256"},{"name":"rolledRate","type":"uint256","indexed":false,"internalType":"uint256"},{"name":"rollCost","type":"uint256","indexed":false,"internalType":"uint256"},{"name":"oldDueDate","type":"uint256","indexed":false,"internalType":"uint256"},{"name":"newDueDate","type":"uint256","indexed":false,"internalType":"uint256"},{"name":"benchmarkId","type":"bytes32","indexed":false,"internalType":"bytes32"},{"name":"asOfTimestamp","type":"uint256","indexed":false,"internalType":"uint256"}],"anonymous":false},{"type":"event","name":"ReturnProofSubmitted","inputs":[{"name":"importer","type":"address","indexed":true,"internalType":"address"},{"name":"sheetACid","type":"string","indexed":false,"internalType":"string"},{"name":"sheetBCid","type":"string","indexed":false,"internalType":"string"},{"name":"timestamp","type":"uint256","indexed":false,"internalType":"uint256"}],"anonymous":false},{"type":"event","name":"ReturnProofTimeout","inputs":[{"name":"caller","type":"address","indexed":true,"internalType":"address"},{"name":"timestamp","type":"uint256","indexed":false,"internalType":"uint256"}],"anonymous":false},{"type":"event","name":"ReturnRequired","inputs":[{"name":"deadline","type":"uint256","indexed":false,"internalType":"uint256"},{"name":"timestamp","type":"uint256","indexed":false,"internalType":"uint256"}],"anonymous":false},{"type":"event","name":"RollRequested","inputs":[{"name":"requester","type":"address","indexed":true,"internalType":"address"},{"name":"currentDueDate","type":"uint256","indexed":false,"internalType":"uint256"},{"name":"requestedNewDueDate","type":"uint256","indexed":false,"internalType":"uint256"},{"name":"timestamp","type":"uint256","indexed":false,"internalType":"uint256"}],"anonymous":false},{"type":"event","name":"Settled","inputs":[{"name":"exporter","type":"address","indexed":true,"internalType":"address"},{"name":"amount","type":"uint256","indexed":false,"internalType":"uint256"},{"name":"timestamp","type":"uint256","indexed":false,"internalType":"uint256"}],"anonymous":false},{"type":"event","name":"SettlementCancelledByVerdict","inputs":[{"name":"importer","type":"address","indexed":true,"internalType":"address"},{"name":"refundAmount","type":"uint256","indexed":false,"internalType":"uint256"}],"anonymous":false},{"type":"event","name":"SettlementManualReview","inputs":[{"name":"caseId","type":"string","indexed":false,"internalType":"string"},{"name":"reviewDeadline","type":"uint256","indexed":false,"internalType":"uint256"},{"name":"timestamp","type":"uint256","indexed":false,"internalType":"uint256"}],"anonymous":false},{"type":"event","name":"ShipmentAccepted","inputs":[{"name":"by","type":"address","indexed":true,"internalType":"address"},{"name":"afterDeadline","type":"bool","indexed":false,"internalType":"bool"},{"name":"timestamp","type":"uint256","indexed":false,"internalType":"uint256"}],"anonymous":false},{"type":"event","name":"ShipmentContested","inputs":[{"name":"contestant","type":"address","indexed":true,"internalType":"address"},{"name":"manifestCid","type":"string","indexed":false,"internalType":"string"},{"name":"statement","type":"string","indexed":false,"internalType":"string"},{"name":"contestDeadline","type":"uint256","indexed":false,"internalType":"uint256"},{"name":"timestamp","type":"uint256","indexed":false,"internalType":"uint256"}],"anonymous":false},{"type":"event","name":"ShipmentSettledWithPenalty","inputs":[{"name":"exporter","type":"address","indexed":true,"internalType":"address"},{"name":"importer","type":"address","indexed":true,"internalType":"address"},{"name":"exporterAmount","type":"uint256","indexed":false,"internalType":"uint256"},{"name":"importerAmount","type":"uint256","indexed":false,"internalType":"uint256"},{"name":"penaltyBps","type":"uint256","indexed":false,"internalType":"uint256"}],"anonymous":false},{"type":"event","name":"ShipmentVerdictReceived","inputs":[{"name":"verdict","type":"uint8","indexed":false,"internalType":"uint8"},{"name":"caseId","type":"string","indexed":false,"internalType":"string"},{"name":"reasonSummary","type":"string","indexed":false,"internalType":"string"},{"name":"deliveredBy","type":"address","indexed":true,"internalType":"address"},{"name":"fromCourtContract","type":"bool","indexed":false,"internalType":"bool"},{"name":"timestamp","type":"uint256","indexed":false,"internalType":"uint256"}],"anonymous":false},{"type":"event","name":"TradeCreated","inputs":[{"name":"exporter","type":"address","indexed":true,"internalType":"address"},{"name":"importer","type":"address","indexed":true,"internalType":"address"},{"name":"invoiceAmount","type":"uint256","indexed":false,"internalType":"uint256"},{"name":"dueDate","type":"uint256","indexed":false,"internalType":"uint256"},{"name":"invoiceRef","type":"string","indexed":false,"internalType":"string"}],"anonymous":false},{"type":"error","name":"SafeERC20FailedOperation","inputs":[{"name":"token","type":"address","internalType":"address"}]}],"bytecode":{"object":"0x60806040523461058457614ccb8038038061001981610588565b9283398101906101808183031261058457610033816105ad565b61003f602083016105ad565b9161004c604082016105ad565b93610059606083016105ad565b610065608084016105ad565b9360a08401519360c081015160e0820151906101008301519761012084015160018060401b0381116105845784019587601f880112156105845786516001600160401b038111610401576100c2601f8201601f1916602001610588565b9781895260208901996020838301011161058457815f9260208093018c5e890101526100fe6101606100f761014088016105ad565b96016105ad565b6001600160a01b039096169a8b1561054a576001600160a01b03169b8c15610510576001600160a01b03169182156104d7576001600160a01b03169182156104a057891561046757428b1115610422575f80546001600160a01b03199081168e179091556001805482168f179055600280549091169190911790556001600160a01b0381161580159061041c57815b600380546001600160a01b0319166001600160a01b039290921691909117905515610415575b600680546001600160a01b03929092166001600160a01b03199283161790556007805490911691909117905560088790556011879055600955600a55601486905582516001600160401b03811161040157600b54600181811c911680156103f7575b60208210146103e357601f8111610375575b506020601f82116001146102fd57918160809694925f516020614cab5f395f51905f52999896945f916102f2575b508160011b915f199060031b1c191617600b555b61271060125560ff19601954166019555f1960155560018060a01b031660018060a01b0319600554161760055560018060a01b031660018060a01b0319602854161760285560405194859384526020840152606060408401525180918160608501528484015e5f828201840152601f01601f19168101030190a36040516146e990816105c28239f35b90508401515f610255565b601f19821690600b5f52805f20915f5b81811061035d5750925f516020614cab5f395f51905f5299989694926001928260809a989610610345575b5050811b01600b55610269565b8601515f1960f88460031b161c191690555f80610338565b9192602060018192868b01518155019401920161030d565b8181111561022757600b5f52601f820160051c7f0175b7a638427703f0dbe7bb9bbf987a2551717b34e79f33b5b1008d1fa01db9602084106103db575b81601f9101920160051c03905f5b8281106103ce575050610227565b5f828201556001016103c0565b5f91506103b2565b634e487b7160e01b5f52602260045260245ffd5b90607f1690610215565b634e487b7160e01b5f52604160045260245ffd5b50336101b3565b3361018d565b60405162461bcd60e51b815260206004820152601560248201527f5446583a20647565206461746520696e207061737400000000000000000000006044820152606490fd5b60405162461bcd60e51b81526020600482015260116024820152705446583a207a65726f20696e766f69636560781b6044820152606490fd5b60405162461bcd60e51b815260206004820152600f60248201526e2a232c1d103d32b937903a37b5b2b760891b6044820152606490fd5b60405162461bcd60e51b81526020600482015260116024820152702a232c1d103d32b937903932b630bcb2b960791b6044820152606490fd5b60405162461bcd60e51b81526020600482015260126024820152712a232c1d103d32b9379034b6b837b93a32b960711b6044820152606490fd5b60405162461bcd60e51b81526020600482015260126024820152712a232c1d103d32b9379032bc3837b93a32b960711b6044820152606490fd5b5f80fd5b6040519190601f01601f191682016001600160401b0381118382101761040157604052565b51906001600160a01b03821682036105845756fe60806040526004361015610011575f80fd5b5f3560e01c8062248a6f14613377578063017761f01461329f5780630362c19d146132775780630399571c14612f1a5780630524c3b914612e6d578063096e301a14612def5780630a20897214612dc757806311da60b414612d43578063165eb0f314612c71578063185a85ef14612c4e5780631e5cae1a14612ba9578063200d2ed214612b82578063219369df14612b5d5780632297e100146117c657806322de7a6f14612b27578063262e59e914612b0a5780632c5426f3146108825780632f5685bb14612ae857806334120d7914612a565780633583181814612a395780633a0a64e514612a145780633f18b82e146129225780634051ddac1461288b5780634bbbe0cc146128645780634e9b0f8a146126d65780634faf61ab146126ae578063503ae34e14612609578063504e241a14612564578063576aa2c2146124705780635786643c146124535780635c0d82371461242b5780636293230114612403578063667fa047146122b65780636cc6cde11461228e5780636d8a10e3146121fc578063723f99a51461205a578063735681a91461203d5780637478901d146120205780637a32984e146120035780637b9e618d14611fdb5780637feb545c14611fbe578063820a5f5014611fa15780638b07836014611f785780638c90672f14611f5d5780638de6d28a14611e5857806393c7cdf514611c6857806396e3470b14611c4b578063974c594114611ac15780639818501b14611aa4578063a097510914611a12578063a489d267146117e8578063a98a4bd7146117cb578063acf2cd20146117c6578063b0eefabe14611713578063be83be07146115d7578063bead103e146115ba578063c04a416614611515578063c666ea0314611471578063c7ea9e1514611454578063c81fd140146113a6578063c83f06a7146111d5578063d156ff1514610a0b578063d5303c9a146108bc578063d72e070514610882578063df8a6d5e146107dd578063e30a3bad146107c0578063eac31cff146106de578063ed34b63014610616578063f851a440146105ee5763ff36bfe41461031a575f80fd5b346105ea5760803660031901126105ea576004356024356044356064359061034d60018060a01b03600254163314613bc2565b60ff601954610361828260101c1615613a47565b1660088110156105d65760046103779114613a93565b610382841515613c01565b601854925f601855600c54601454916040519161039e836137f8565b825260208201918783526040810193828552606082019081526080820188815260a0830187815260c084019189835260175493680100000000000000008510156105c25760018501806017558510156105ae577f1943afe84359be0f2ba34df371aa5bc0aa81424cab67fef39b0105bf13141f699860e09860077fc624b66cc0138b8fabc209247f72d758e1cf3343756d543badbf24212bed8c1b9760175f52029751887fc624b66cc0138b8fabc209247f72d758e1cf3343756d543badbf24212bed8c150155517fc624b66cc0138b8fabc209247f72d758e1cf3343756d543badbf24212bed8c16880155517fc624b66cc0138b8fabc209247f72d758e1cf3343756d543badbf24212bed8c17870155517fc624b66cc0138b8fabc209247f72d758e1cf3343756d543badbf24212bed8c18860155517fc624b66cc0138b8fabc209247f72d758e1cf3343756d543badbf24212bed8c19850155517fc624b66cc0138b8fabc209247f72d758e1cf3343756d543badbf24212bed8c1a84015551910155600c549060145490604051928352886020840152604083015260608201528560808201528360a08201528460c0820152a183600c55600e55600f556014556016545f19811461059a57670de0b6b3a76400009160016105879201601655601154613c3e565b046010556019805460ff19166005179055005b634e487b7160e01b5f52601160045260245ffd5b634e487b7160e01b5f52603260045260245ffd5b634e487b7160e01b5f52604160045260245ffd5b634e487b7160e01b5f52602160045260245ffd5b5f80fd5b346105ea575f3660031901126105ea576003546040516001600160a01b039091168152602090f35b346105ea5760203660031901126105ea5761062f613941565b61064460018060a01b03600354163314613c51565b6019549060ff8260081c16156106995715159062ff00008260101b169062ff00001916176019556040519081527f3c1cf6dbd034882b9d267167e0558590c91f438285afa93e93899df7c2f8c30260203392a2005b60405162461bcd60e51b815260206004820152601960248201527f5446583a206e6f20657863657074696f6e20666c6167676564000000000000006044820152606490fd5b346105ea575f3660031901126105ea576040515f6020546106fe816137a5565b808452906001811690811561079c575060011461073e575b61073a8361072681850382613813565b604051918291602083526020830190613771565b0390f35b60205f9081527fc97bfaf2f8ee708c303a06d134f5ecd8389ae0432af62dc132a24118292866bb939250905b80821061078257509091508101602001610726610716565b91926001816020925483858801015201910190929161076a565b60ff191660208086019190915291151560051b840190910191506107269050610716565b346105ea575f3660031901126105ea576020601654604051908152f35b346105ea575f3660031901126105ea576040515f6027546107fd816137a5565b808452906001811690811561079c57506001146108245761073a8361072681850382613813565b60275f9081527f98a476f1687bc3d60a2da2adbcba2c46958e61fa2fb4042cd7bc5816a710195b939250905b80821061086857509091508101602001610726610716565b919260018160209254838588010152019101909291610850565b346105ea575f3660031901126105ea5760206040517f445b57cd6bc6213a5b5ecd4a184504b9efd3db5d5325740f540723883a6ff0518152f35b346105ea575f3660031901126105ea576017546001600160401b0381116105c257604051906108f160208260051b0183613813565b80825260208201908160175f527fc624b66cc0138b8fabc209247f72d758e1cf3343756d543badbf24212bed8c155f915b8383106109ac578486604051918291602083019060208452518091526040830191905f5b818110610954575050500390f35b91935091602060e060019260c0875180518352848101518584015260408101516040840152606081015160608401526080810151608084015260a081015160a0840152015160c0820152019401910191849392610946565b600760206001926040516109bf816137f8565b855481528486015483820152600286015460408201526003860154606082015260048601546080820152600586015460a0820152600686015460c0820152815201920192019190610922565b346105ea5760803660031901126105ea576004356001600160401b0381116105ea57610a3b903690600401613744565b6024356001600160401b0381116105ea57610a5a903690600401613744565b6044356001600160401b0381116105ea57610a79903690600401613744565b9190926064356001600160401b0381116105ea57610a9b903690600401613744565b929091610ab360018060a01b03600154163314613c8e565b60ff60195416600881101590816105d6576006811415806111c7575b610ad890613ad4565b60ff601b541660078110156105d657610af2839115613b67565b6105d657600281149182156111ba575b82156111a9575b5050156111585760155442116110ed57600260ff19601b541617601b556001600160401b0387116105c257610b3f6020546137a5565b601f811161109b575b505f87601f81116001146110185780610b75925f9161100d575b508160011b915f199060031b1c19161790565b6020555b6001600160401b0382116105c257610b926021546137a5565b601f8111610fb2575b505f90601f8311600114610f4257610bca92915f9183610d70575b50508160011b915f199060031b1c19161790565b6021555b6001600160401b0383116105c257610be7601f546137a5565b601f8111610ee7575b505f83601f8111600114610e785780610c1c925f91610e6d57508160011b915f199060031b1c19161790565b601f555b6001600160401b0382116105c257610c39601e546137a5565b601f8111610e12575b505f90601f8311600114610d7b57827f5d1582f88acb83cee71f3cb3617da2b9fe18b7d1cfe747a1c136342b2476d5ec969593610ce19593610c98935f92610d705750508160011b915f199060031b1c19161790565b601e555b600160ff1960245416176024556201000062ff0000196019541617601955610cd3601554966040519560808752608087019161399c565b91848303602086015261399c565b9260408201524260608201528033930390a26028546001600160a01b031680610d0657005b60205f91600460405180948193630b97b3cb60e01b83525af1908115610d65575f91610d33575b50602955005b90506020813d602011610d5d575b81610d4e60209383613813565b810103126105ea575181610d2d565b3d9150610d41565b6040513d5f823e3d90fd5b013590508980610bb6565b601f19831691601e5f525f5160206146745f395f51905f52925f5b818110610dfa57509260019285927f5d1582f88acb83cee71f3cb3617da2b9fe18b7d1cfe747a1c136342b2476d5ec999896610ce1989610610de1575b505050811b01601e55610c9c565b01355f19600384901b60f8161c19169055888080610dd3565b91936020600181928787013581550195019201610d96565b82811115610c4257601e5f52601f830160051c5f5160206146745f395f51905f5260208510610e65575b81601f9101920160051c03905f5b828110610e58575050610c42565b5f82820155600101610e4a565b5f9150610e3c565b905086013589610b62565b50601f19841690601f5f52845f5160206146945f395f51905f52925f5b818110610ecc575010610eb3575b5050600183811b01601f55610c20565b8501355f19600386901b60f8161c191690558680610ea3565b88840135855560019094019360209384019388935001610e95565b83811115610bf057601f5f819052840160051c5f5160206146945f395f51905f5260208610610f3a575b81601f9101920160051c03905f5b828110610f2d575050610bf0565b5f82820155600101610f1f565b5f9150610f11565b601f1983169160215f525f5160206146545f395f51905f52925f5b818110610f9a5750908460019594939210610f81575b505050811b01602155610bce565b01355f19600384901b60f8161c19169055888080610f73565b91936020600181928787013581550195019201610f5d565b82811115610b9b5760215f52601f830160051c5f5160206146545f395f51905f5260208510611005575b81601f9101920160051c03905f5b828110610ff8575050610b9b565b5f82820155600101610fea565b5f9150610fdc565b90508a01358b610b62565b50601f1988169060205f52887fc97bfaf2f8ee708c303a06d134f5ecd8389ae0432af62dc132a24118292866bb925f5b8c82821061108157505010611068575b5050600187811b01602055610b79565b8901355f1960038a901b60f8161c191690558880611058565b84013585556001909401936020938401938c935001611048565b87811115610b485760205f5260205f20601f890160051c9060208a106110e5575b81601f9101920160051c03905f5b8281106110d8575050610b48565b5f828201556001016110ca565b5f91506110bc565b60405162461bcd60e51b815260206004820152603760248201527f5446583a20636f6e7465737420646561646c696e6520706173736564202d207360448201527f6869706d656e74206465656d65642061636365707465640000000000000000006064820152608490fd5b60405162461bcd60e51b8152602060048201526024808201527f5446583a2063616e6e6f7420636f6e7465737420696e2063757272656e7420736044820152637461746560e01b6064820152608490fd5b9091506105d6576003148980610b09565b506005811491505f610b02565b505f91506007811415610acf565b346105ea575f3660031901126105ea576111fa60018060a01b03600154163314613c8e565b60ff60195461120e828260101c1615613a47565b1660088110156105d6576002811490811561139b575b501561134c576010548015611307578060135560018060a01b036007541690604051906323b872dd60e01b5f52336004523060245260445260205f60648180865af19060015f51148216156112e6575b6040525f606052156112d457600360ff19601954161760195562093a80420180421161059a576015556010546040519081524260208201527fcd909ec339185c4598a4096e174308fbdf136d117f230960f873a2f2e81f63af60403392a2005b635274afe760e01b5f5260045260245ffd5b9060018115166112fe57823b15153d15161690611274565b503d5f823e3d90fd5b60405162461bcd60e51b815260206004820152601e60248201527f5446583a20736574746c656d656e7420616d6f756e74206e6f742073657400006044820152606490fd5b60405162461bcd60e51b815260206004820152602160248201527f5446583a2063616e6e6f742066756e6420696e2063757272656e7420737461746044820152606560f81b6064820152608490fd5b600591501481611224565b346105ea5760203660031901126105ea576113bf61392b565b6113d460018060a01b03600354163314613c51565b6001600160a01b0316801561141d57600480546001600160a01b0319168217905533907f7463c06c46d1caf16438de0e6f4fe963ce0934e62b90e34d6fab43c8e3cd006f5f80a3005b60405162461bcd60e51b815260206004820152600f60248201526e1511960e881e995c9bc818dbdd5c9d608a1b6044820152606490fd5b346105ea575f3660031901126105ea576020602954604051908152f35b346105ea575f3660031901126105ea575f546001600160a01b031633148015611501575b61149e90613a08565b60ff6019546114b2828260101c1615613a47565b1660088110156105d6576114c69015613a93565b600160ff1960195416176019556040514281527fe082272b702e2eab6b62fabd7a1ad7ab9e60dcd6c3346f51916b1a8248eac12760203392a2005b506001546001600160a01b03163314611495565b346105ea575f3660031901126105ea576040515f602654611535816137a5565b808452906001811690811561079c575060011461155c5761073a8361072681850382613813565b60265f9081527f744a2cf8fd7008e3d53b67916e73460df9fa5214e3ef23dd4259ca09493a3594939250905b8082106115a057509091508101602001610726610716565b919260018160209254838588010152019101909291611588565b346105ea575f3660031901126105ea576020600a54604051908152f35b346105ea5760403660031901126105ea576115f0613941565b6024356001600160401b0381116105ea5761160f903690600401613744565b6006549091906001600160a01b031633036116d85760ff601b541660078110156105d6577f2e2c0407515b972a1b3b6f90d0299d45a11915d914d6841430b612dea6ba200391611664600561167e93146139bc565b60405193851515855260606020860152606085019161399c565b914260408201528033930390a2156116b0576116a2600360ff19601b541617601b55565b6019805462ff000019169055005b6116c2600460ff19601b541617601b55565b62ff000019601954166019556116d6613cce565b005b60405162461bcd60e51b81526020600482015260136024820152722a232c1d103737ba1030b93134ba3930ba37b960691b6044820152606490fd5b346105ea5760203660031901126105ea5761172c61392b565b61174160018060a01b03600354163314613c51565b6001600160a01b0316801561178a57600680546001600160a01b0319168217905533907f5226cf13e29e7b252c6722ac95bc9beb40dfd336d700c1c8469a44b9dbcd80da5f80a3005b60405162461bcd60e51b81526020600482015260146024820152732a232c1d103d32b9379030b93134ba3930ba37b960611b6044820152606490fd5b6138f8565b346105ea575f3660031901126105ea576020601454604051908152f35b346105ea5760603660031901126105ea5760043563ffffffff8116036105ea57611810613915565b506044356001600160401b0381116105ea57611830903690600401613744565b6005546001600160a01b031633036119da5781016040828203126105ea5781356001600160a01b03811692908390036105ea576020810135906001600160401b0382116105ea57019080601f830112156105ea5781602061189393359101613b31565b90300361199e5780518101606082602083019203126105ea5760208201516001600160a01b038116908190036105ea5760408301519260ff841684036105ea576060810151906001600160401b0382116105ea570182603f820112156105ea5760208101519061190282613b16565b936119106040519586613813565b828552604082840101116105ea57815f926040602093018387015e840101523003611965576116d69160405190611948604083613813565b600b82526a262d16a3a2a72620aca2a960a91b6020830152613f04565b60405162461bcd60e51b81526020600482015260116024820152701511960e881ddc9bdb99c81d185c99d95d607a1b6044820152606490fd5b60405162461bcd60e51b81526020600482015260146024820152731511960e881ddc9bdb99c81859dc99595b595b9d60621b6044820152606490fd5b60405162461bcd60e51b815260206004820152601060248201526f5446583a206f6e6c792062726964676560801b6044820152606490fd5b346105ea575f3660031901126105ea576040515f601e54611a32816137a5565b808452906001811690811561079c5750600114611a595761073a8361072681850382613813565b601e5f9081525f5160206146745f395f51905f52939250905b808210611a8a57509091508101602001610726610716565b919260018160209254838588010152019101909291611a72565b346105ea575f3660031901126105ea576020601054604051908152f35b346105ea575f3660031901126105ea575f546001600160a01b031633148015611c37575b611aee90613a08565b601954611b0160ff8260101c1615613a47565b60ff601b541660078110156105d65760018114908115611c2c575b5015611bd95760ff1660088110156105d657600303611b94576013545f601355611b4e600660ff196019541617601955565b6007545f54611b6b9183916001600160a01b039081169116613e8c565b5f5160206146345f395f51905f52604060018060a01b035f5416928151908152426020820152a2005b60405162461bcd60e51b815260206004820152601f60248201527f5446583a206d7573742062652066756e64656420746f2066696e616c697a65006044820152606490fd5b60405162461bcd60e51b815260206004820152602560248201527f5446583a20736869706d656e74206e6f7420636f6e6669726d65642061732074604482015264696d656c7960d81b6064820152608490fd5b600391501482611b1c565b506001546001600160a01b03163314611ae5565b346105ea575f3660031901126105ea576020602254604051908152f35b346105ea5760203660031901126105ea575f54600435906001600160a01b03163303611e1f5760ff601954611ca2828260101c1615613a47565b1660088110156105d65760028114908115611e14575b5015611dcf5780151580611dc4575b15611d8757601254811015611d495760807f0463fdb27006d5a65dfd357dab584a75ca5b3f1db1793ef451634eb092c84e129160115490612710611d0d82600854613c3e565b048060115581601255670de0b6b3a7640000611d2b600c5483613c3e565b049081601055604051938452602084015260408301526060820152a1005b60405162461bcd60e51b81526020600482015260166024820152755446583a20627073206d75737420646563726561736560501b6044820152606490fd5b60405162461bcd60e51b81526020600482015260156024820152745446583a20627073206f7574206f662072616e676560581b6044820152606490fd5b506127108110611cc7565b60405162461bcd60e51b815260206004820152601f60248201527f5446583a20726573697a65206f6e6c79206265666f72652066756e64696e67006044820152606490fd5b600591501482611cb8565b60405162461bcd60e51b81526020600482015260116024820152702a232c1d103737ba1032bc3837b93a32b960791b6044820152606490fd5b346105ea5760803660031901126105ea576004356024356044359160643591611e8c60018060a01b03600254163314613bc2565b60ff601954611ea0828260101c1615613a47565b169260088410156105d6577f8fe7adb9d88091ef45bdb5a0327af76405cbc60deaffe25b9df0e055c20a611b94611edb600160a09614613a93565b611ee6841515613c01565b816060604051611ef5816137dd565b868152856020820152836040820152015283600c5582600d5580600e5581600f55670de0b6b3a7640000611f2b85601154613c3e565b04601055600260ff196019541617601955601054926040519485526020850152604084015260608301526080820152a1005b346105ea575f3660031901126105ea5761073a610726613834565b346105ea575f3660031901126105ea5760ff601b541660405160078210156105d6576020918152f35b346105ea575f3660031901126105ea576020601354604051908152f35b346105ea575f3660031901126105ea576020600954604051908152f35b346105ea575f3660031901126105ea576007546040516001600160a01b039091168152602090f35b346105ea575f3660031901126105ea576020601254604051908152f35b346105ea575f3660031901126105ea576020600854604051908152f35b346105ea575f3660031901126105ea576020601a54604051908152f35b346105ea575f3660031901126105ea5760ff60195416600881101590816105d6576006811415806121ee575b61208f90613ad4565b60ff601b541660078110156105d6576120a9839115613b67565b6105d657600281149182156121e1575b82156121d0575b5050156121765760155442118015612114575b600160ff19601b541617601b556040519081524260208201527ff410075d2dc68634bc421dcdfbce03adaea75fa706d772bd5d034a658e65380c60403392a2005b6001546001600160a01b031633146120d35760405162461bcd60e51b815260206004820152602260248201527f5446583a206f6e6c7920696d706f72746572206265666f726520646561646c696044820152616e6560f01b6064820152608490fd5b60405162461bcd60e51b815260206004820152602c60248201527f5446583a2063616e6e6f742061636365707420736869706d656e7420696e206360448201526b757272656e7420737461746560a01b6064820152608490fd5b9091506105d65760031481806120c0565b506005811491505f6120b9565b505f91506007811415612086565b346105ea575f3660031901126105ea576040515f60215461221c816137a5565b808452906001811690811561079c57506001146122435761073a8361072681850382613813565b60215f9081525f5160206146545f395f51905f52939250905b80821061227457509091508101602001610726610716565b91926001816020925483858801015201910190929161225c565b346105ea575f3660031901126105ea576006546040516001600160a01b039091168152602090f35b346105ea5760203660031901126105ea576122cf613795565b5f546001600160a01b0316331480156123ef575b80156123db575b156123a05760ff6019541660088110156105d6578060066123149214159081612394575b50613ad4565b6013549060018060a01b0360015416915f60135561233a600760ff196019541617601955565b80612376575b60ff6040519216825260208201527fbeb2436210b4808956874f19f645e85c3285d14833015910c580129394cc967f60403392a3005b60075461238f90829085906001600160a01b0316613e8c565b612340565b6007915014158361230e565b60405162461bcd60e51b81526020600482015260136024820152721511960e881b9bdd08185d5d1a1bdc9a5e9959606a1b6044820152606490fd5b506003546001600160a01b031633146122ea565b506001546001600160a01b031633146122e3565b346105ea575f3660031901126105ea576001546040516001600160a01b039091168152602090f35b346105ea575f3660031901126105ea576004546040516001600160a01b039091168152602090f35b346105ea575f3660031901126105ea576020601154604051908152f35b346105ea5760403660031901126105ea57612489613795565b6024356001600160401b0381116105ea576124a8903690600401613744565b6028549192916001600160a01b03163381900361251f57156124e1576124db6116d6936124d3613834565b923691613b31565b91613f04565b60405162461bcd60e51b81526020600482015260166024820152751511960e881250c81b9bdd0818dbdb999a59dd5c995960521b6044820152606490fd5b60405162461bcd60e51b815260206004820152601760248201527f5446583a206f6e6c7920636f75727420666163746f72790000000000000000006044820152606490fd5b346105ea575f3660031901126105ea576040515f601c54612584816137a5565b808452906001811690811561079c57506001146125ab5761073a8361072681850382613813565b601c5f9081527f0e4562a10381dec21b205ed72637e6b1b523bdd0e4d4d50af5cd23dd4500a211939250905b8082106125ef57509091508101602001610726610716565b9192600181602092548385880101520191019092916125d7565b346105ea575f3660031901126105ea576040515f602354612629816137a5565b808452906001811690811561079c57506001146126505761073a8361072681850382613813565b60235f9081527fd57b2b5166478fd4318d2acc6cc2c704584312bdd8781b32d5d06abda57f4230939250905b80821061269457509091508101602001610726610716565b91926001816020925483858801015201910190929161267c565b346105ea575f3660031901126105ea576002546040516001600160a01b039091168152602090f35b346105ea5760203660031901126105ea5760043560018060a01b035f541633148015612850575b61270690613a08565b60ff60195461271a828260101c1615613a47565b16600881101590816105d65760028114918215612843575b8215612832575b5050156127e35760145481111561279e5780601855600460ff1960195416176019557fbdd365a79d2543b27ac131514a83756b481d72eab6d788a4da1f6a59b2c4912460145491604051906060820193825260208201524260408201528033930390a2005b60405162461bcd60e51b815260206004820152601b60248201527f5446583a206e65772064617465206d757374206265206c6174657200000000006044820152606490fd5b60405162461bcd60e51b815260206004820152602160248201527f5446583a2063616e6e6f7420726f6c6c20696e2063757272656e7420737461746044820152606560f81b6064820152608490fd5b9091506105d6576003148280612739565b506005811491505f612732565b506001546001600160a01b031633146126fd565b346105ea575f3660031901126105ea575f546040516001600160a01b039091168152602090f35b346105ea575f3660031901126105ea57610160601954600854906011549060ff60105491601354601454601554906016549260018060a01b03600454169660018060a01b0360065416986040519a6128e58c8a8a166138eb565b60208c015260408b015260608a0152608089015260a088015260c087015260e086015260081c161515610100840152610120830152610140820152f35b346105ea5760603660031901126105ea5761293b613795565b6024356001600160401b0381116105ea5761295a903690600401613744565b91906044356001600160401b0381116105ea5761297b903690600401613744565b919060018060a01b0360025416331480156129ed575b156129a8576124d36124db926116d6963691613b31565b60405162461bcd60e51b815260206004820152601760248201527f5446583a206e6f74207665726469637420736f757263650000000000000000006044820152606490fd5b506004546001600160a01b03168015159081612a0a575b50612991565b9050331486612a04565b346105ea575f3660031901126105ea57602060ff60195460081c166040519015158152f35b346105ea575f3660031901126105ea576020602554604051908152f35b346105ea575f3660031901126105ea576040515f601f54612a76816137a5565b808452906001811690811561079c5750600114612a9d5761073a8361072681850382613813565b601f5f9081525f5160206146945f395f51905f52939250905b808210612ace57509091508101602001610726610716565b919260018160209254838588010152019101909291612ab6565b346105ea575f3660031901126105ea57602060ff602454166040519015158152f35b346105ea575f3660031901126105ea576020601554604051908152f35b346105ea575f3660031901126105ea576080600c54600d54600e54600f5491604051938452602084015260408301526060820152f35b346105ea575f3660031901126105ea57602060ff60195460101c166040519015158152f35b346105ea575f3660031901126105ea57602060ff60195416612ba760405180926138eb565bf35b346105ea575f3660031901126105ea576040515f601d54612bc9816137a5565b808452906001811690811561079c5750600114612bf05761073a8361072681850382613813565b601d5f9081527f6d4407e7be21f808e6509aa9fa9143369579dd7d760fe20a2c09680fc146134f939250905b808210612c3457509091508101602001610726610716565b919260018160209254838588010152019101909291612c1c565b346105ea575f3660031901126105ea57602060ff60195460181c16604051908152f35b346105ea5760403660031901126105ea57612c8a613795565b60243560018060a01b035f541633148015612d2f575b612ca990613a08565b60195460ff81169060088210156105d657612cd28260066101009414159081612d235750613ad4565b63ff0000008460181b169063ff00ff001916171760195580601a5560ff6040519216825260208201527f3c36678e3022a469fbd8b81bc12b3eb332fe29c5c8f4ee29fcfb8465bc36695c60403392a2005b6007915014158661230e565b506001546001600160a01b03163314612ca0565b346105ea575f3660031901126105ea575f546001600160a01b031633148015612db3575b612d7090613a08565b60ff601954612d84828260101c1615613a47565b1660088110156105d6576003612d9a9114613a93565b6013545f601355611b4e600660ff196019541617601955565b506001546001600160a01b03163314612d67565b346105ea575f3660031901126105ea576005546040516001600160a01b039091168152602090f35b346105ea575f3660031901126105ea575f6060604051612e0e816137dd565b82815282602082015282604082015201526080604051612e2d816137dd565b600c5490818152600d5460208201908152600e5490604083019182526060600f549301928352604051938452516020840152516040830152516060820152f35b346105ea575f3660031901126105ea5760ff601b541660078110156105d6576006612e989114613950565b6025544210612ed5576040514281527fa9ef9bd9e47b335c5c205a43271ac73cbc145e85f8dd62dfbb7998db8924cee760203392a26116d6613d4b565b60405162461bcd60e51b815260206004820152601760248201527f5446583a2077696e646f77206e6f7420656c61707365640000000000000000006044820152606490fd5b346105ea575f3660031901126105ea5760405160c060208201525f600b54612f41816137a5565b908160e08501526001811690815f1461325557506001146131fc575b50306040830152818103601f19016060830152601f545f91612f7e826137a5565b80825291600181169081156131dd5750600114613196575b5050818103601f19016080830152601e545f91612fb2826137a5565b80825291600181169081156131775750600114613130575b5050818103601f190160a08301526020545f91612fe6826137a5565b808252916001811690811561311157506001146130b7575b5050818103601f190160c08301526021545f9161301a826137a5565b80825291600181169081156130915750600114613049575b61073a84610726818603601f198101835282613813565b60215f9081529250905f5160206146545f395f51905f525b8184106130775750500160200161072682613032565b600181602092959395548385870101520191019290613061565b60ff191660208381019190915292151560051b9091019091019150610726905082613032565b60205f9081529192507fc97bfaf2f8ee708c303a06d134f5ecd8389ae0432af62dc132a24118292866bb5b8383106130f757506020925001018280612ffe565b6001816020929493945483858701015201910191906130e2565b90506020935060ff929192191683830152151560051b01018280612ffe565b601e5f9081529192505f5160206146745f395f51905f525b83831061315d57506020925001018280612fca565b600181602092949394548385870101520191019190613148565b90506020935060ff929192191683830152151560051b01018280612fca565b601f5f9081529192505f5160206146945f395f51905f525b8383106131c357506020925001018280612f96565b6001816020929493945483858701015201910191906131ae565b90506020935060ff929192191683830152151560051b01018280612f96565b600b5f9081529091507f0175b7a638427703f0dbe7bb9bbf987a2551717b34e79f33b5b1008d1fa01db95b82821061323d5750820161010001905082612f5d565b80548285016101000152602090910190600101613227565b6020935060e092915060ff1916610100850152151560051b8301010182612f5d565b346105ea575f3660031901126105ea576028546040516001600160a01b039091168152602090f35b346105ea575f3660031901126105ea5760ff601b541660078110156105d65760056132ca91146139bc565b6022548015159081613360575b501561331b576040514281527f1ee13e4a2b923d6e980e6160f5cb342ca40e2c9689b2f33e1bed1f3c2069637860203392a26116c2600460ff19601b541617601b55565b60405162461bcd60e51b815260206004820152601e60248201527f5446583a207265766965772077696e646f77206e6f7420656c617073656400006044820152606490fd5b905062127500810180911161059a574211816132d7565b346105ea5760403660031901126105ea576004356001600160401b0381116105ea576133a7903690600401613744565b6024356001600160401b0381116105ea576133c6903690600401613744565b60ff601b541660078110156105d65760066133e19114613950565b602554421015613709576001600160401b0383116105c2576134046026546137a5565b601f811161369b575b505f83601f81116001146136195780613439925f9161360e57508160011b915f199060031b1c19161790565b6026555b6001600160401b0381116105c2576134566027546137a5565b601f81116135a0575b505f93601f82116001146134f557906134cd6134db93926134b783807fe00006211dcaee47628e799295ad5939063ebb43c6dcd96a40402b62e645bf5998995f916134ea57508160011b915f199060031b1c19161790565b6027555b6040519660608852606088019161399c565b91858303602087015261399c565b914260408201528033930390a2005b90508601358a610b62565b601f19821660275f527f98a476f1687bc3d60a2da2adbcba2c46958e61fa2fb4042cd7bc5816a710195b905f5b8181106135885750916134cd917fe00006211dcaee47628e799295ad5939063ebb43c6dcd96a40402b62e645bf599697856134db9796951061356f575b5050600183811b016027556134bb565b8501355f19600386901b60f8161c19169055878061355f565b85880135835560209788019760019093019201613522565b8181111561345f5760275f52601f820160051c7f98a476f1687bc3d60a2da2adbcba2c46958e61fa2fb4042cd7bc5816a710195b60208410613606575b81601f9101920160051c03905f5b8281106135f957505061345f565b5f828201556001016135eb565b5f91506135dd565b905086013587610b62565b50601f1984169060265f52847f744a2cf8fd7008e3d53b67916e73460df9fa5214e3ef23dd4259ca09493a3594925f5b818110613680575010613667575b5050600183811b0160265561343d565b8501355f19600386901b60f8161c191690558480613657565b88840135855560019094019360209384019388935001613649565b8381111561340d5760265f52601f840160051c7f744a2cf8fd7008e3d53b67916e73460df9fa5214e3ef23dd4259ca09493a359460208610613701575b81601f9101920160051c03905f5b8281106136f457505061340d565b5f828201556001016136e6565b5f91506136d8565b60405162461bcd60e51b81526020600482015260136024820152721511960e881dda5b991bddc8195b185c1cd959606a1b6044820152606490fd5b9181601f840112156105ea578235916001600160401b0383116105ea57602083818601950101116105ea57565b805180835260209291819084018484015e5f828201840152601f01601f1916010190565b6004359060ff821682036105ea57565b90600182811c921680156137d3575b60208310146137bf57565b634e487b7160e01b5f52602260045260245ffd5b91607f16916137b4565b608081019081106001600160401b038211176105c257604052565b60e081019081106001600160401b038211176105c257604052565b90601f801991011681019081106001600160401b038211176105c257604052565b604051905f82600b5491613847836137a5565b80835292600181169081156138cc575060011461386d575b61386b92500383613813565b565b50600b5f90815290917f0175b7a638427703f0dbe7bb9bbf987a2551717b34e79f33b5b1008d1fa01db95b8183106138b057505090602061386b9282010161385f565b6020919350806001915483858901015201910190918492613898565b6020925061386b94915060ff191682840152151560051b82010161385f565b9060088210156105d65752565b346105ea575f3660031901126105ea576020604051621275008152f35b602435906001600160a01b03821682036105ea57565b600435906001600160a01b03821682036105ea57565b6004359081151582036105ea57565b1561395757565b60405162461bcd60e51b815260206004820152601860248201527f5446583a206e6f742072657475726e20726571756972656400000000000000006044820152606490fd5b908060209392818452848401375f828201840152601f01601f1916010190565b156139c357565b60405162461bcd60e51b815260206004820152601d60248201527f5446583a206e6f206d616e75616c207265766965772070656e64696e670000006044820152606490fd5b15613a0f57565b60405162461bcd60e51b815260206004820152601060248201526f5446583a206e6f74206120706172747960801b6044820152606490fd5b15613a4e57565b60405162461bcd60e51b815260206004820152601860248201527f5446583a2070617573656420627920657863657074696f6e00000000000000006044820152606490fd5b15613a9a57565b60405162461bcd60e51b81526020600482015260126024820152715446583a20696e76616c696420737461746560701b6044820152606490fd5b15613adb57565b60405162461bcd60e51b81526020600482015260136024820152725446583a207465726d696e616c20737461746560681b6044820152606490fd5b6001600160401b0381116105c257601f01601f191660200190565b929192613b3d82613b16565b91613b4b6040519384613813565b8294818452818301116105ea578281602093845f960137010152565b15613b6e57565b60405162461bcd60e51b815260206004820152602660248201527f5446583a20736869706d656e742072657669657720616c726561647920696e696044820152651d1a585d195960d21b6064820152608490fd5b15613bc957565b60405162461bcd60e51b815260206004820152601060248201526f2a232c1d103737ba103932b630bcb2b960811b6044820152606490fd5b15613c0857565b60405162461bcd60e51b815260206004820152600e60248201526d5446583a207a65726f207261746560901b6044820152606490fd5b8181029291811591840414171561059a57565b15613c5857565b60405162461bcd60e51b815260206004820152600e60248201526d2a232c1d103737ba1030b236b4b760911b6044820152606490fd5b15613c9557565b60405162461bcd60e51b81526020600482015260116024820152702a232c1d103737ba1034b6b837b93a32b960791b6044820152606490fd5b6013545f601355613ce7600760ff196019541617601955565b80613d28575b6001546040519182526001600160a01b0316907fd33ccdf9c03bdf3d28eb9cd91d9278cf77b0125b1631cf691b4219602f0ceffa90602090a2565b600754600154613d469183916001600160a01b039081169116613e8c565b613ced565b6013548015613e4e57609681028181046096148215171561059a576127109004908181039080821161059a575f5160206146345f395f51905f5291836040925f601355613da0600660ff196019541617601955565b03613e2c575b83613e09575b5f54600154835183815260208101969096526096868501526001600160a01b039182169591169085907fab351b4de7d5511c2a7f70cf550e02891ab098144949b14fc0f157c5bdc096de90606090a38151908152426020820152a2565b600754600154613e279186916001600160a01b039081169116613e8c565b613dac565b6007545f54613e499183916001600160a01b039081169116613e8c565b613da6565b60405162461bcd60e51b81526020600482015260166024820152755446583a206e6f7468696e6720746f20736574746c6560501b6044820152606490fd5b916040519163a9059cbb60e01b5f5260018060a01b031660045260245260205f60448180865af19060015f5114821615613eec575b60405215613ecc5750565b635274afe760e01b5f9081526001600160a01b0391909116600452602490fd5b9060018115166112fe57823b15153d15161690613ec1565b91909160ff601b541660078110156105d6576002036145ee576004546001600160a01b03168015159190826145e4575b5083516001600160401b0381116105c257613f50601c546137a5565b601f8111614576575b506020601f82116001146144f6579080613f86925f916143db57508160011b915f199060031b1c19161790565b601c555b82516001600160401b0381116105c257613fa56023546137a5565b601f8111614488575b506020601f82116001146143e657817f36672c34fcd1d1172b8ed90a5c5ebf0dcfe06cd22f41098be71b03a5864318539392613ffd925f916143db57508160011b915f199060031b1c19161790565b6023555b4260225561403560ff60405192169485835260a0602084015261402760a0840188613771565b908382036040850152613771565b92151560608201524260808201528033930390a260018103614073575050614065600360ff19601b541617601b55565b62ff00001960195416601955565b6002810361418c57505062ff000019601954166019556013548015613e4e57603281028181046032148215171561059a576127109004908181039080821161059a575f5160206146345f395f51905f5291836040925f6013556140de600660ff196019541617601955565b0361416a575b83614147575b5f54600154835183815260208101969096526032868501526001600160a01b039182169591169085907fab351b4de7d5511c2a7f70cf550e02891ab098144949b14fc0f157c5bdc096de90606090a38151908152426020820152a2565b6007546001546141659186916001600160a01b039081169116613e8c565b6140ea565b6007545f546141879183916001600160a01b039081169116613e8c565b6140e4565b600381036142a557505062ff000019601954166019556013548015613e4e57606481028181046064148215171561059a576127109004908181039080821161059a575f5160206146345f395f51905f5291836040925f6013556141f7600660ff196019541617601955565b03614283575b83614260575b5f54600154835183815260208101969096526064868501526001600160a01b039182169591169085907fab351b4de7d5511c2a7f70cf550e02891ab098144949b14fc0f157c5bdc096de90606090a38151908152426020820152a2565b60075460015461427e9186916001600160a01b039081169116613e8c565b614203565b6007545f546142a09183916001600160a01b039081169116613e8c565b6141fd565b600481036142c357505062ff0000196019541660195561386b613d4b565b6005810361431d575050600660ff19601b541617601b5562127500420180421161059a576040817f5782f15399d2c09c9e073db5e341aa3d28443734ef12b989d82bc9baafe0330d926025558151908152426020820152a1565b60060361439657600560ff19601b541617601b55600160ff19602454161760245562127500420180421161059a577f60901e423fac6287980ad06a0bc6b3bb89448c2b86bbade62435d3106eabd4339161438591604051928392606084526060840190613771565b9060208301524260408301520390a1565b60405162461bcd60e51b815260206004820152601960248201527f5446583a20696e76616c6964207665726469637420636f6465000000000000006044820152606490fd5b90508601515f610b62565b601f1982169060235f527fd57b2b5166478fd4318d2acc6cc2c704584312bdd8781b32d5d06abda57f4230915f5b81811061447057509183917f36672c34fcd1d1172b8ed90a5c5ebf0dcfe06cd22f41098be71b03a586431853959460019410614458575b5050811b01602355614001565b8701515f1960f88460031b161c191690555f8061444b565b9192602060018192868b015181550194019201614414565b81811115613fae5760235f52601f820160051c7fd57b2b5166478fd4318d2acc6cc2c704584312bdd8781b32d5d06abda57f4230602084106144ee575b81601f9101920160051c03905f5b8281106144e1575050613fae565b5f828201556001016144d3565b5f91506144c5565b601f19821690601c5f527f0e4562a10381dec21b205ed72637e6b1b523bdd0e4d4d50af5cd23dd4500a211915f5b81811061455e57509083600194939210614546575b5050811b01601c55613f8a565b8701515f1960f88460031b161c191690555f80614539565b9192602060018192868c015181550194019201614524565b81811115613f5957601c5f52601f820160051c7f0e4562a10381dec21b205ed72637e6b1b523bdd0e4d4d50af5cd23dd4500a211602084106145dc575b81601f9101920160051c03905f5b8281106145cf575050613f59565b5f828201556001016145c1565b5f91506145b3565b331491505f613f34565b60405162461bcd60e51b815260206004820152601f60248201527f5446583a206e6f2061637469766520736869706d656e7420636f6e74657374006044820152606490fdfe468aeeec0e901c52363552a06c1e39331d44c3cc886eb200af127ded3f380f823a6357012c1a3ae0a17d304c9920310382d968ebcc4b1771f41c6b304205b57050bb669a95c7b50b7e8a6f09454034b2b14cf2b85c730dca9a539ca82cb6e350a03837a25210ee280c2113ff4b77ca23440b19d4866cca721c801278fd08d807a264697066735822122038370b60cceced9b7d101c540af507a8bc23032a649ab2a4a766f60ee3369b7f64736f6c63430008210033bb5fd511e52e015eb19dab8dd103d9cec0091f40e6a698aeab6b4c4d221b8265","linkReferences":{}},"methodIdentifiers":{"MANUAL_REVIEW_WINDOW()":"2297e100","ORACLE_TYPE()":"2c5426f3","RETURN_PROOF_WINDOW()":"acf2cd20","acceptShipment()":"723f99a5","admin()":"f851a440","arbitrator()":"6cc6cde1","bridgeReceiver()":"0a208972","cancelAndRefund(uint8)":"667fa047","contestDeadline()":"262e59e9","contestShipment(string,string,string,string)":"d156ff15","courtContract()":"5c0d8237","courtFactory()":"0362c19d","currentDueDate()":"a98a4bd7","currentNotional()":"5786643c","exceptionFlagged()":"3a0a64e5","exceptionPaused()":"219369df","exceptionReasonCode()":"185a85ef","exceptionRef()":"735681a9","exporter()":"4bbbe0cc","finalizeAfterShipment()":"974c5941","flagException(uint8,bytes32)":"165eb0f3","fulfilledBps()":"7a32984e","fundSettlement()":"c83f06a7","fundedAmount()":"820a5f50","getLockedRate()":"096e301a","getOracleArgs()":"0399571c","getOracleType()":"d72e0705","getRollHistory()":"d5303c9a","getSummary()":"4051ddac","icCaseId()":"c7ea9e15","importer()":"62932301","invoiceAmount()":"7478901d","invoiceRef()":"8c90672f","lockedRate()":"22de7a6f","oracleRelayer()":"4faf61ab","processBridgeMessage(uint32,address,bytes)":"a489d267","receiveRate(uint256,bytes32,bytes32,uint256)":"8de6d28a","receiveRolledRate(uint256,uint256,bytes32,uint256)":"ff36bfe4","requestRateLock()":"c666ea03","requestRoll(uint256)":"4e9b0f8a","resize(uint256)":"93c7cdf5","resolveManualReview(bool,string)":"be83be07","resolveShipmentVerdict(uint8,string,string)":"3f18b82e","returnProofDeadline()":"35831818","returnProofSheetACid()":"c04a4166","returnProofSheetBCid()":"df8a6d5e","rollCount()":"e30a3bad","setArbitrator(address)":"b0eefabe","setCourtContract(address)":"c81fd140","setExceptionPause(bool)":"ed34b630","setResolution(uint8,string)":"576aa2c2","settle()":"11da60b4","settlementAmount()":"9818501b","settlementCurrency()":"bead103e","settlementToken()":"7b9e618d","shipmentCaseId()":"504e241a","shipmentCourtSheetACid()":"eac31cff","shipmentCourtSheetBCid()":"6d8a10e3","shipmentGuidelineVersion()":"a0975109","shipmentManifestCid()":"1e5cae1a","shipmentReviewRequired()":"2f5685bb","shipmentStatement()":"34120d79","shipmentStatus()":"8b078360","shipmentVerdictAt()":"96e3470b","shipmentVerdictReason()":"503ae34e","sourceCurrency()":"7feb545c","status()":"200d2ed2","submitReturnProof(string,string)":"00248a6f","timeoutManualReview()":"017761f0","timeoutReturnProof()":"0524c3b9"},"id":22}