{"abi":[{"type":"constructor","inputs":[{"name":"_exporter","type":"address","internalType":"address"},{"name":"_importer","type":"address","internalType":"address"},{"name":"_oracleRelayer","type":"address","internalType":"address"},{"name":"_admin","type":"address","internalType":"address"},{"name":"_settlementToken","type":"address","internalType":"address"},{"name":"_invoiceAmount","type":"uint256","internalType":"uint256"},{"name":"_sourceCurrency","type":"bytes32","internalType":"bytes32"},{"name":"_settlementCurrency","type":"bytes32","internalType":"bytes32"},{"name":"_dueDate","type":"uint256","internalType":"uint256"},{"name":"_invoiceRef","type":"string","internalType":"string"}],"stateMutability":"nonpayable"},{"type":"function","name":"admin","inputs":[],"outputs":[{"name":"","type":"address","internalType":"address"}],"stateMutability":"view"},{"type":"function","name":"cancelAndRefund","inputs":[{"name":"reasonCode","type":"uint8","internalType":"uint8"}],"outputs":[],"stateMutability":"nonpayable"},{"type":"function","name":"currentDueDate","inputs":[],"outputs":[{"name":"","type":"uint256","internalType":"uint256"}],"stateMutability":"view"},{"type":"function","name":"currentNotional","inputs":[],"outputs":[{"name":"","type":"uint256","internalType":"uint256"}],"stateMutability":"view"},{"type":"function","name":"exceptionFlagged","inputs":[],"outputs":[{"name":"","type":"bool","internalType":"bool"}],"stateMutability":"view"},{"type":"function","name":"exceptionPaused","inputs":[],"outputs":[{"name":"","type":"bool","internalType":"bool"}],"stateMutability":"view"},{"type":"function","name":"exceptionReasonCode","inputs":[],"outputs":[{"name":"","type":"uint8","internalType":"uint8"}],"stateMutability":"view"},{"type":"function","name":"exceptionRef","inputs":[],"outputs":[{"name":"","type":"bytes32","internalType":"bytes32"}],"stateMutability":"view"},{"type":"function","name":"exporter","inputs":[],"outputs":[{"name":"","type":"address","internalType":"address"}],"stateMutability":"view"},{"type":"function","name":"flagException","inputs":[{"name":"reasonCode","type":"uint8","internalType":"uint8"},{"name":"evidenceRef","type":"bytes32","internalType":"bytes32"}],"outputs":[],"stateMutability":"nonpayable"},{"type":"function","name":"fulfilledBps","inputs":[],"outputs":[{"name":"","type":"uint256","internalType":"uint256"}],"stateMutability":"view"},{"type":"function","name":"fundSettlement","inputs":[],"outputs":[],"stateMutability":"nonpayable"},{"type":"function","name":"fundedAmount","inputs":[],"outputs":[{"name":"","type":"uint256","internalType":"uint256"}],"stateMutability":"view"},{"type":"function","name":"getLockedRate","inputs":[],"outputs":[{"name":"","type":"tuple","internalType":"struct TradeFxSettlement.RateInfo","components":[{"name":"rate","type":"uint256","internalType":"uint256"},{"name":"benchmarkType","type":"bytes32","internalType":"bytes32"},{"name":"benchmarkId","type":"bytes32","internalType":"bytes32"},{"name":"asOfTimestamp","type":"uint256","internalType":"uint256"}]}],"stateMutability":"view"},{"type":"function","name":"getRollHistory","inputs":[],"outputs":[{"name":"","type":"tuple[]","internalType":"struct TradeFxSettlement.RollRecord[]","components":[{"name":"priorRate","type":"uint256","internalType":"uint256"},{"name":"rolledRate","type":"uint256","internalType":"uint256"},{"name":"rollCost","type":"uint256","internalType":"uint256"},{"name":"priorDueDate","type":"uint256","internalType":"uint256"},{"name":"newDueDate","type":"uint256","internalType":"uint256"},{"name":"benchmarkId","type":"bytes32","internalType":"bytes32"},{"name":"asOfTimestamp","type":"uint256","internalType":"uint256"}]}],"stateMutability":"view"},{"type":"function","name":"getSummary","inputs":[],"outputs":[{"name":"_status","type":"uint8","internalType":"enum TradeFxSettlement.Status"},{"name":"_invoiceAmount","type":"uint256","internalType":"uint256"},{"name":"_currentNotional","type":"uint256","internalType":"uint256"},{"name":"_settlementAmount","type":"uint256","internalType":"uint256"},{"name":"_fundedAmount","type":"uint256","internalType":"uint256"},{"name":"_currentDueDate","type":"uint256","internalType":"uint256"},{"name":"_rollCount","type":"uint256","internalType":"uint256"},{"name":"_exceptionFlagged","type":"bool","internalType":"bool"}],"stateMutability":"view"},{"type":"function","name":"importer","inputs":[],"outputs":[{"name":"","type":"address","internalType":"address"}],"stateMutability":"view"},{"type":"function","name":"invoiceAmount","inputs":[],"outputs":[{"name":"","type":"uint256","internalType":"uint256"}],"stateMutability":"view"},{"type":"function","name":"invoiceRef","inputs":[],"outputs":[{"name":"","type":"string","internalType":"string"}],"stateMutability":"view"},{"type":"function","name":"lockedRate","inputs":[],"outputs":[{"name":"rate","type":"uint256","internalType":"uint256"},{"name":"benchmarkType","type":"bytes32","internalType":"bytes32"},{"name":"benchmarkId","type":"bytes32","internalType":"bytes32"},{"name":"asOfTimestamp","type":"uint256","internalType":"uint256"}],"stateMutability":"view"},{"type":"function","name":"oracleRelayer","inputs":[],"outputs":[{"name":"","type":"address","internalType":"address"}],"stateMutability":"view"},{"type":"function","name":"receiveRate","inputs":[{"name":"rate","type":"uint256","internalType":"uint256"},{"name":"benchmarkType","type":"bytes32","internalType":"bytes32"},{"name":"benchmarkId","type":"bytes32","internalType":"bytes32"},{"name":"asOfTimestamp","type":"uint256","internalType":"uint256"}],"outputs":[],"stateMutability":"nonpayable"},{"type":"function","name":"receiveRolledRate","inputs":[{"name":"newRate","type":"uint256","internalType":"uint256"},{"name":"rollCost","type":"uint256","internalType":"uint256"},{"name":"benchmarkId","type":"bytes32","internalType":"bytes32"},{"name":"asOfTimestamp","type":"uint256","internalType":"uint256"}],"outputs":[],"stateMutability":"nonpayable"},{"type":"function","name":"requestRateLock","inputs":[],"outputs":[],"stateMutability":"nonpayable"},{"type":"function","name":"requestRoll","inputs":[{"name":"newDueDate","type":"uint256","internalType":"uint256"}],"outputs":[],"stateMutability":"nonpayable"},{"type":"function","name":"resize","inputs":[{"name":"newFulfilledBps","type":"uint256","internalType":"uint256"}],"outputs":[],"stateMutability":"nonpayable"},{"type":"function","name":"rollCount","inputs":[],"outputs":[{"name":"","type":"uint256","internalType":"uint256"}],"stateMutability":"view"},{"type":"function","name":"setExceptionPause","inputs":[{"name":"paused","type":"bool","internalType":"bool"}],"outputs":[],"stateMutability":"nonpayable"},{"type":"function","name":"settle","inputs":[],"outputs":[],"stateMutability":"nonpayable"},{"type":"function","name":"settlementAmount","inputs":[],"outputs":[{"name":"","type":"uint256","internalType":"uint256"}],"stateMutability":"view"},{"type":"function","name":"settlementCurrency","inputs":[],"outputs":[{"name":"","type":"bytes32","internalType":"bytes32"}],"stateMutability":"view"},{"type":"function","name":"settlementToken","inputs":[],"outputs":[{"name":"","type":"address","internalType":"contract IERC20"}],"stateMutability":"view"},{"type":"function","name":"sourceCurrency","inputs":[],"outputs":[{"name":"","type":"bytes32","internalType":"bytes32"}],"stateMutability":"view"},{"type":"function","name":"status","inputs":[],"outputs":[{"name":"","type":"uint8","internalType":"enum TradeFxSettlement.Status"}],"stateMutability":"view"},{"type":"event","name":"Cancelled","inputs":[{"name":"reasonCode","type":"uint8","indexed":false,"internalType":"uint8"},{"name":"by","type":"address","indexed":true,"internalType":"address"},{"name":"refundAmount","type":"uint256","indexed":false,"internalType":"uint256"},{"name":"refundTo","type":"address","indexed":true,"internalType":"address"}],"anonymous":false},{"type":"event","name":"ExceptionFlagged","inputs":[{"name":"reasonCode","type":"uint8","indexed":false,"internalType":"uint8"},{"name":"evidenceRef","type":"bytes32","indexed":false,"internalType":"bytes32"},{"name":"flagger","type":"address","indexed":true,"internalType":"address"}],"anonymous":false},{"type":"event","name":"ExceptionPauseSet","inputs":[{"name":"paused","type":"bool","indexed":false,"internalType":"bool"},{"name":"by","type":"address","indexed":true,"internalType":"address"}],"anonymous":false},{"type":"event","name":"Funded","inputs":[{"name":"funder","type":"address","indexed":true,"internalType":"address"},{"name":"amount","type":"uint256","indexed":false,"internalType":"uint256"},{"name":"timestamp","type":"uint256","indexed":false,"internalType":"uint256"}],"anonymous":false},{"type":"event","name":"NotionalResized","inputs":[{"name":"oldNotional","type":"uint256","indexed":false,"internalType":"uint256"},{"name":"newNotional","type":"uint256","indexed":false,"internalType":"uint256"},{"name":"newSettlementAmount","type":"uint256","indexed":false,"internalType":"uint256"},{"name":"fulfilledBps","type":"uint256","indexed":false,"internalType":"uint256"}],"anonymous":false},{"type":"event","name":"RateLockRequested","inputs":[{"name":"requester","type":"address","indexed":true,"internalType":"address"},{"name":"timestamp","type":"uint256","indexed":false,"internalType":"uint256"}],"anonymous":false},{"type":"event","name":"RateLocked","inputs":[{"name":"rate","type":"uint256","indexed":false,"internalType":"uint256"},{"name":"benchmarkType","type":"bytes32","indexed":false,"internalType":"bytes32"},{"name":"benchmarkId","type":"bytes32","indexed":false,"internalType":"bytes32"},{"name":"asOfTimestamp","type":"uint256","indexed":false,"internalType":"uint256"},{"name":"settlementAmount","type":"uint256","indexed":false,"internalType":"uint256"}],"anonymous":false},{"type":"event","name":"RateRolled","inputs":[{"name":"priorRate","type":"uint256","indexed":false,"internalType":"uint256"},{"name":"rolledRate","type":"uint256","indexed":false,"internalType":"uint256"},{"name":"rollCost","type":"uint256","indexed":false,"internalType":"uint256"},{"name":"oldDueDate","type":"uint256","indexed":false,"internalType":"uint256"},{"name":"newDueDate","type":"uint256","indexed":false,"internalType":"uint256"},{"name":"benchmarkId","type":"bytes32","indexed":false,"internalType":"bytes32"},{"name":"asOfTimestamp","type":"uint256","indexed":false,"internalType":"uint256"}],"anonymous":false},{"type":"event","name":"RollRequested","inputs":[{"name":"requester","type":"address","indexed":true,"internalType":"address"},{"name":"currentDueDate","type":"uint256","indexed":false,"internalType":"uint256"},{"name":"requestedNewDueDate","type":"uint256","indexed":false,"internalType":"uint256"},{"name":"timestamp","type":"uint256","indexed":false,"internalType":"uint256"}],"anonymous":false},{"type":"event","name":"Settled","inputs":[{"name":"exporter","type":"address","indexed":true,"internalType":"address"},{"name":"amount","type":"uint256","indexed":false,"internalType":"uint256"},{"name":"timestamp","type":"uint256","indexed":false,"internalType":"uint256"}],"anonymous":false},{"type":"event","name":"TradeCreated","inputs":[{"name":"exporter","type":"address","indexed":true,"internalType":"address"},{"name":"importer","type":"address","indexed":true,"internalType":"address"},{"name":"invoiceAmount","type":"uint256","indexed":false,"internalType":"uint256"},{"name":"dueDate","type":"uint256","indexed":false,"internalType":"uint256"},{"name":"invoiceRef","type":"string","indexed":false,"internalType":"string"}],"anonymous":false},{"type":"error","name":"SafeERC20FailedOperation","inputs":[{"name":"token","type":"address","internalType":"address"}]}],"bytecode":{"object":"0x60806040523461050557611d978038038061001981610509565b92833981019061014081830312610505576100338161052e565b906100406020820161052e565b9161004d6040830161052e565b9361005a6060840161052e565b916100676080850161052e565b60a085015160c086015160e087015161010088015161012089015190989397919492936001600160401b03821161050557019486601f870112156105055785516001600160401b038111610388576100c8601f8201601f1916602001610509565b9681885260208801986020838301011161050557815f9260208093018b5e880101526001600160a01b03169889156104cb576001600160a01b0316998a15610491576001600160a01b0316918215610458576001600160a01b03169182156104215787156103e857428911156103a3575f80546001600160a01b03199081168c179091556001805482168d179055600280549091169190911790556001600160a01b0381161561039c575b600380546001600160a01b03929092166001600160a01b0319928316179055600480549091169190911790556005859055600e859055600655600755601184905580516001600160401b03811161038857600854600181811c9116801561037e575b602082101461036a57601f81116102fc575b506020601f8211600114610286579181608094925f516020611d775f395f51905f529796945f9161027b575b508160011b915f199060031b1c1916176008555b612710600f5560ff196015541660155560405194859384526020840152606060408401525180918160608501528484015e5f828201840152601f01601f19168101030190a360405161183490816105438239f35b90508201515f610213565b601f1982169060085f52805f20915f5b8181106102e45750925f516020611d775f395f51905f52979694926001928260809896106102cc575b5050811b01600855610227565b8401515f1960f88460031b161c191690555f806102bf565b91926020600181928689015181550194019201610296565b818111156101e75760085f52601f820160051c7ff3f7a9fe364faab93b216da50a3214154f22a0a2b415b23a84c8169e8b636ee360208410610362575b81601f9101920160051c03905f5b8281106103555750506101e7565b5f82820155600101610347565b5f9150610339565b634e487b7160e01b5f52602260045260245ffd5b90607f16906101d5565b634e487b7160e01b5f52604160045260245ffd5b5033610173565b60405162461bcd60e51b815260206004820152601560248201527f5446583a20647565206461746520696e207061737400000000000000000000006044820152606490fd5b60405162461bcd60e51b81526020600482015260116024820152705446583a207a65726f20696e766f69636560781b6044820152606490fd5b60405162461bcd60e51b815260206004820152600f60248201526e2a232c1d103d32b937903a37b5b2b760891b6044820152606490fd5b60405162461bcd60e51b81526020600482015260116024820152702a232c1d103d32b937903932b630bcb2b960791b6044820152606490fd5b60405162461bcd60e51b81526020600482015260126024820152712a232c1d103d32b9379034b6b837b93a32b960711b6044820152606490fd5b60405162461bcd60e51b81526020600482015260126024820152712a232c1d103d32b9379032bc3837b93a32b960711b6044820152606490fd5b5f80fd5b6040519190601f01601f191682016001600160401b0381118382101761038857604052565b51906001600160a01b03821682036105055756fe6080806040526004361015610012575f80fd5b5f3560e01c908163096e301a146114f65750806311da60b41461141c578063165eb0f31461134a578063185a85ef14611327578063200d2ed214611300578063219369df146112db57806322de7a6f146112a55780633a0a64e5146112805780634051ddac146112185780634bbbe0cc146111f15780634e9b0f8a146110695780634faf61ab146110415780635786643c146110245780636293230114610ffc578063667fa04714610eb4578063735681a914610e975780637478901d14610e7a5780637a32984e14610e5d5780637b9e618d14610e355780637feb545c14610e18578063820a5f5014610dfb5780638c90672f14610cde5780638de6d28a14610bd957806393c7cdf5146109e95780639818501b146109cc578063a98a4bd7146109af578063bead103e14610992578063c666ea03146108ee578063c83f06a7146106f7578063d5303c9a146105a7578063e30a3bad1461058a578063ed34b6301461048e578063f851a440146104665763ff36bfe414610192575f80fd5b3461046257608036600319011261046257600435602435604435606435906101c560018060a01b036002541633146116f7565b60ff6015546101d9828260101c1615611628565b16600881101561044e5760046101ef9114611674565b6101fa841515611736565b601454925f6014556009546011549160405191610216836115ab565b825260208201918783526040810193828552606082019081526080820188815260a0830187815260c0840191898352601354936801000000000000000085101561043a576001850180601355851015610426577f1943afe84359be0f2ba34df371aa5bc0aa81424cab67fef39b0105bf13141f699860e09860077f66de8ffda797e3de9c05e8fc57b3bf0ec28a930d40b0d285d93c06501cf6a0969760135f52029751887f66de8ffda797e3de9c05e8fc57b3bf0ec28a930d40b0d285d93c06501cf6a0900155517f66de8ffda797e3de9c05e8fc57b3bf0ec28a930d40b0d285d93c06501cf6a091880155517f66de8ffda797e3de9c05e8fc57b3bf0ec28a930d40b0d285d93c06501cf6a092870155517f66de8ffda797e3de9c05e8fc57b3bf0ec28a930d40b0d285d93c06501cf6a093860155517f66de8ffda797e3de9c05e8fc57b3bf0ec28a930d40b0d285d93c06501cf6a094850155517f66de8ffda797e3de9c05e8fc57b3bf0ec28a930d40b0d285d93c06501cf6a095840155519101556009549060115490604051928352886020840152604083015260608201528560808201528360a08201528460c0820152a183600955600b55600c556011556012545f19811461041257670de0b6b3a76400009160016103ff9201601255600e54611773565b04600d556015805460ff19166005179055005b634e487b7160e01b5f52601160045260245ffd5b634e487b7160e01b5f52603260045260245ffd5b634e487b7160e01b5f52604160045260245ffd5b634e487b7160e01b5f52602160045260245ffd5b5f80fd5b34610462575f366003190112610462576003546040516001600160a01b039091168152602090f35b3461046257602036600319011261046257600435801515809103610462576003546001600160a01b031633036105545760155460ff8160081c161561050f5762ff00008260101b169062ff00001916176015556040519081527f3c1cf6dbd034882b9d267167e0558590c91f438285afa93e93899df7c2f8c30260203392a2005b60405162461bcd60e51b815260206004820152601960248201527f5446583a206e6f20657863657074696f6e20666c6167676564000000000000006044820152606490fd5b60405162461bcd60e51b815260206004820152600e60248201526d2a232c1d103737ba1030b236b4b760911b6044820152606490fd5b34610462575f366003190112610462576020601254604051908152f35b34610462575f3660031901126104625760135467ffffffffffffffff811161043a57604051906105dd60208260051b01836115c7565b80825260208201908160135f527f66de8ffda797e3de9c05e8fc57b3bf0ec28a930d40b0d285d93c06501cf6a0905f915b838310610698578486604051918291602083019060208452518091526040830191905f5b818110610640575050500390f35b91935091602060e060019260c0875180518352848101518584015260408101516040840152606081015160608401526080810151608084015260a081015160a0840152015160c0820152019401910191849392610632565b600760206001926040516106ab816115ab565b855481528486015483820152600286015460408201526003860154606082015260048601546080820152600586015460a0820152600686015460c082015281520192019201919061060e565b34610462575f366003190112610462576001546001600160a01b031633036108b55760ff60155461072d828260101c1615611628565b16600881101561044e57600281149081156108aa575b501561085b57600d548015610816578060105560018060a01b036004541690604051906323b872dd60e01b5f52336004523060245260445260205f60648180865af19060015f51148216156107f5575b6040525f606052156107e357600360ff196015541617601555600d546040519081524260208201527fcd909ec339185c4598a4096e174308fbdf136d117f230960f873a2f2e81f63af60403392a2005b635274afe760e01b5f5260045260245ffd5b90600181151661080d57823b15153d15161690610793565b503d5f823e3d90fd5b60405162461bcd60e51b815260206004820152601e60248201527f5446583a20736574746c656d656e7420616d6f756e74206e6f742073657400006044820152606490fd5b60405162461bcd60e51b815260206004820152602160248201527f5446583a2063616e6e6f742066756e6420696e2063757272656e7420737461746044820152606560f81b6064820152608490fd5b600591501481610743565b60405162461bcd60e51b81526020600482015260116024820152702a232c1d103737ba1034b6b837b93a32b960791b6044820152606490fd5b34610462575f366003190112610462575f546001600160a01b03163314801561097e575b61091b906115e9565b60ff60155461092f828260101c1615611628565b16600881101561044e576109439015611674565b600160ff1960155416176015556040514281527fe082272b702e2eab6b62fabd7a1ad7ab9e60dcd6c3346f51916b1a8248eac12760203392a2005b506001546001600160a01b03163314610912565b34610462575f366003190112610462576020600754604051908152f35b34610462575f366003190112610462576020601154604051908152f35b34610462575f366003190112610462576020600d54604051908152f35b34610462576020366003190112610462575f54600435906001600160a01b03163303610ba05760ff601554610a23828260101c1615611628565b16600881101561044e5760028114908115610b95575b5015610b505780151580610b45575b15610b0857600f54811015610aca5760807f0463fdb27006d5a65dfd357dab584a75ca5b3f1db1793ef451634eb092c84e1291600e5490612710610a8e82600554611773565b0480600e5581600f55670de0b6b3a7640000610aac60095483611773565b049081600d55604051938452602084015260408301526060820152a1005b60405162461bcd60e51b81526020600482015260166024820152755446583a20627073206d75737420646563726561736560501b6044820152606490fd5b60405162461bcd60e51b81526020600482015260156024820152745446583a20627073206f7574206f662072616e676560581b6044820152606490fd5b506127108110610a48565b60405162461bcd60e51b815260206004820152601f60248201527f5446583a20726573697a65206f6e6c79206265666f72652066756e64696e67006044820152606490fd5b600591501482610a39565b60405162461bcd60e51b81526020600482015260116024820152702a232c1d103737ba1032bc3837b93a32b960791b6044820152606490fd5b34610462576080366003190112610462576004356024356044359160643591610c0d60018060a01b036002541633146116f7565b60ff601554610c21828260101c1615611628565b1692600884101561044e577f8fe7adb9d88091ef45bdb5a0327af76405cbc60deaffe25b9df0e055c20a611b94610c5c600160a09614611674565b610c67841515611736565b816060604051610c768161158f565b86815285602082015283604082015201528360095582600a5580600b5581600c55670de0b6b3a7640000610cac85600e54611773565b04600d55600260ff196015541617601555600d54926040519485526020850152604084015260608301526080820152a1005b34610462575f366003190112610462576040515f90600854918260011c60018416938415610df1575b602082108514610ddd578184526020840194908115610dc25750600114610d64575b5090610d398160409303826115c7565b8151928391602083525180918160208501528484015e5f828201840152601f01601f19168101030190f35b91905060085f527ff3f7a9fe364faab93b216da50a3214154f22a0a2b415b23a84c8169e8b636ee3915f905b808210610da857509091508101602001610d39610d29565b919260018160209254838588010152019101909291610d90565b60ff1916855250151560051b82016020019050610d39610d29565b634e487b7160e01b5f52602260045260245ffd5b90607f1690610d07565b34610462575f366003190112610462576020601054604051908152f35b34610462575f366003190112610462576020600654604051908152f35b34610462575f366003190112610462576004546040516001600160a01b039091168152602090f35b34610462575f366003190112610462576020600f54604051908152f35b34610462575f366003190112610462576020600554604051908152f35b34610462575f366003190112610462576020601654604051908152f35b3461046257602036600319011261046257610ecd611572565b5f546001600160a01b031633148015610fe8575b8015610fd4575b15610f995760ff60155416600881101561044e57806006610f129214159081610f8d575b506116b5565b6010549060018060a01b0360015416915f601055600760ff19601554161760155580610f6f575b60ff6040519216825260208201527fbeb2436210b4808956874f19f645e85c3285d14833015910c580129394cc967f60403392a3005b600454610f8890829085906001600160a01b0316611786565b610f39565b60079150141583610f0c565b60405162461bcd60e51b81526020600482015260136024820152721511960e881b9bdd08185d5d1a1bdc9a5e9959606a1b6044820152606490fd5b506003546001600160a01b03163314610ee8565b506001546001600160a01b03163314610ee1565b34610462575f366003190112610462576001546040516001600160a01b039091168152602090f35b34610462575f366003190112610462576020600e54604051908152f35b34610462575f366003190112610462576002546040516001600160a01b039091168152602090f35b346104625760203660031901126104625760043560018060a01b035f5416331480156111dd575b611099906115e9565b60ff6015546110ad828260101c1615611628565b166008811015908161044e57600281149182156111d0575b82156111bf575b5050156111705760115481111561112b5780601455600460ff1960155416176015556011549060405191825260208201524260408201527fbdd365a79d2543b27ac131514a83756b481d72eab6d788a4da1f6a59b2c4912460603392a2005b60405162461bcd60e51b815260206004820152601b60248201527f5446583a206e65772064617465206d757374206265206c6174657200000000006044820152606490fd5b60405162461bcd60e51b815260206004820152602160248201527f5446583a2063616e6e6f7420726f6c6c20696e2063757272656e7420737461746044820152606560f81b6064820152608490fd5b90915061044e5760031482806110cc565b506005811491505f6110c5565b506001546001600160a01b03163314611090565b34610462575f366003190112610462575f546040516001600160a01b039091168152602090f35b34610462575f3660031901126104625761010060155460ff60055491600e54600d5460105460115491601254936040519761125589898916611582565b602089015260408801526060870152608086015260a085015260c084015260081c16151560e0820152f35b34610462575f36600319011261046257602060ff60155460081c166040519015158152f35b34610462575f366003190112610462576080600954600a54600b54600c5491604051938452602084015260408301526060820152f35b34610462575f36600319011261046257602060ff60155460101c166040519015158152f35b34610462575f36600319011261046257602060ff601554166113256040518092611582565bf35b34610462575f36600319011261046257602060ff60155460181c16604051908152f35b3461046257604036600319011261046257611363611572565b60243560018060a01b035f541633148015611408575b611382906115e9565b60155460ff811690600882101561044e576113ab82600661010094141590816113fc57506116b5565b63ff0000008460181b169063ff00ff00191617176015558060165560ff6040519216825260208201527f3c36678e3022a469fbd8b81bc12b3eb332fe29c5c8f4ee29fcfb8465bc36695c60403392a2005b60079150141586610f0c565b506001546001600160a01b03163314611379565b34610462575f366003190112610462575f546001600160a01b0316331480156114e2575b611449906115e9565b60ff60155461145d828260101c1615611628565b16600881101561044e5760036114739114611674565b6010545f601055600660ff1960155416176015556114a68160018060a01b036004541660018060a01b035f541690611786565b7f468aeeec0e901c52363552a06c1e39331d44c3cc886eb200af127ded3f380f82604060018060a01b035f5416928151908152426020820152a2005b506001546001600160a01b03163314611440565b34610462575f366003190112610462576060816115135f9361158f565b828152826020820152826040820152015260806040516115328161158f565b60095490818152600a5460208201908152600b5490604083019182526060600c549301928352604051938452516020840152516040830152516060820152f35b6004359060ff8216820361046257565b90600882101561044e5752565b6080810190811067ffffffffffffffff82111761043a57604052565b60e0810190811067ffffffffffffffff82111761043a57604052565b90601f8019910116810190811067ffffffffffffffff82111761043a57604052565b156115f057565b60405162461bcd60e51b815260206004820152601060248201526f5446583a206e6f74206120706172747960801b6044820152606490fd5b1561162f57565b60405162461bcd60e51b815260206004820152601860248201527f5446583a2070617573656420627920657863657074696f6e00000000000000006044820152606490fd5b1561167b57565b60405162461bcd60e51b81526020600482015260126024820152715446583a20696e76616c696420737461746560701b6044820152606490fd5b156116bc57565b60405162461bcd60e51b81526020600482015260136024820152725446583a207465726d696e616c20737461746560681b6044820152606490fd5b156116fe57565b60405162461bcd60e51b815260206004820152601060248201526f2a232c1d103737ba103932b630bcb2b960811b6044820152606490fd5b1561173d57565b60405162461bcd60e51b815260206004820152600e60248201526d5446583a207a65726f207261746560901b6044820152606490fd5b8181029291811591840414171561041257565b916040519163a9059cbb60e01b5f5260018060a01b031660045260245260205f60448180865af19060015f51148216156117e6575b604052156117c65750565b635274afe760e01b5f9081526001600160a01b0391909116600452602490fd5b90600181151661080d57823b15153d151616906117bb56fea26469706673582212200b0636bc44c024afb9afb3158d1f54f3a0784dedadcf15b080f4f0b8a46c7dea64736f6c63430008210033bb5fd511e52e015eb19dab8dd103d9cec0091f40e6a698aeab6b4c4d221b8265","linkReferences":{}},"methodIdentifiers":{"admin()":"f851a440","cancelAndRefund(uint8)":"667fa047","currentDueDate()":"a98a4bd7","currentNotional()":"5786643c","exceptionFlagged()":"3a0a64e5","exceptionPaused()":"219369df","exceptionReasonCode()":"185a85ef","exceptionRef()":"735681a9","exporter()":"4bbbe0cc","flagException(uint8,bytes32)":"165eb0f3","fulfilledBps()":"7a32984e","fundSettlement()":"c83f06a7","fundedAmount()":"820a5f50","getLockedRate()":"096e301a","getRollHistory()":"d5303c9a","getSummary()":"4051ddac","importer()":"62932301","invoiceAmount()":"7478901d","invoiceRef()":"8c90672f","lockedRate()":"22de7a6f","oracleRelayer()":"4faf61ab","receiveRate(uint256,bytes32,bytes32,uint256)":"8de6d28a","receiveRolledRate(uint256,uint256,bytes32,uint256)":"ff36bfe4","requestRateLock()":"c666ea03","requestRoll(uint256)":"4e9b0f8a","resize(uint256)":"93c7cdf5","rollCount()":"e30a3bad","setExceptionPause(bool)":"ed34b630","settle()":"11da60b4","settlementAmount()":"9818501b","settlementCurrency()":"bead103e","settlementToken()":"7b9e618d","sourceCurrency()":"7feb545c","status()":"200d2ed2"},"id":27}