{"abi":[{"type":"constructor","inputs":[{"name":"_relayer","type":"address","internalType":"address"},{"name":"_maxAge","type":"uint256","internalType":"uint256"}],"stateMutability":"nonpayable"},{"type":"function","name":"commitRate","inputs":[{"name":"_rate18","type":"uint256","internalType":"uint256"}],"outputs":[],"stateMutability":"nonpayable"},{"type":"function","name":"getRate","inputs":[],"outputs":[{"name":"","type":"uint256","internalType":"uint256"}],"stateMutability":"view"},{"type":"function","name":"isStale","inputs":[],"outputs":[{"name":"","type":"bool","internalType":"bool"}],"stateMutability":"view"},{"type":"function","name":"maxAgeSeconds","inputs":[],"outputs":[{"name":"","type":"uint256","internalType":"uint256"}],"stateMutability":"view"},{"type":"function","name":"rate18","inputs":[],"outputs":[{"name":"","type":"uint256","internalType":"uint256"}],"stateMutability":"view"},{"type":"function","name":"rateInfo","inputs":[],"outputs":[{"name":"_rate18","type":"uint256","internalType":"uint256"},{"name":"_updatedAt","type":"uint256","internalType":"uint256"},{"name":"_updateCount","type":"uint256","internalType":"uint256"},{"name":"_isStale","type":"bool","internalType":"bool"}],"stateMutability":"view"},{"type":"function","name":"relayer","inputs":[],"outputs":[{"name":"","type":"address","internalType":"address"}],"stateMutability":"view"},{"type":"function","name":"updateCount","inputs":[],"outputs":[{"name":"","type":"uint256","internalType":"uint256"}],"stateMutability":"view"},{"type":"function","name":"updatedAt","inputs":[],"outputs":[{"name":"","type":"uint256","internalType":"uint256"}],"stateMutability":"view"},{"type":"event","name":"MaxAgeUpdated","inputs":[{"name":"newMaxAge","type":"uint256","indexed":false,"internalType":"uint256"}],"anonymous":false},{"type":"event","name":"RateCommitted","inputs":[{"name":"rate18","type":"uint256","indexed":false,"internalType":"uint256"},{"name":"timestamp","type":"uint256","indexed":false,"internalType":"uint256"},{"name":"updateCount","type":"uint256","indexed":false,"internalType":"uint256"}],"anonymous":false}],"bytecode":{"object":"0x60a0346100c757601f6105c238819003918201601f19168301916001600160401b038311848410176100cb5780849260409485528339810103126100c75780516001600160a01b038116918282036100c75760200151911561008f576080528061008a5750620151805b6003556040516104e290816100e082396080518181816095015261026a0152f35b610069565b60405162461bcd60e51b815260206004820152601060248201526f1c995b185e595c881c995c5d5a5c995960821b6044820152606490fd5b5f80fd5b634e487b7160e01b5f52604160045260245ffdfe6080806040526004361015610012575f80fd5b5f3560e01c90816314d04ea61461045b575080631a26f44714610437578063679aefce14610339578063690adb53146102d357806369b4ecc9146102b65780637519ab50146102995780638406c07914610255578063af6cc671146102395763b203d1dd1461007f575f80fd5b34610235576020366003190112610235576004357f00000000000000000000000000000000000000000000000000000000000000006001600160a01b031633036101f15780156101ac5767016345785d8a00008110158061019a575b1561014657805f55426001556002545f198114610132577f3eb2a89d0bab712d2450701e80d4915a0303f7706d25294c5ea80f746697023391600160609201806002556040519182524260208301526040820152a1005b634e487b7160e01b5f52601160045260245ffd5b60405162461bcd60e51b815260206004820152602660248201527f47656e4c61796572466f7265784f7261636c653a2072617465206f7574206f666044820152652072616e676560d01b6064820152608490fd5b50674563918244f400008111156100db565b60405162461bcd60e51b815260206004820152601e60248201527f47656e4c61796572466f7265784f7261636c653a207a65726f207261746500006044820152606490fd5b606460405162461bcd60e51b815260206004820152602060248201527f47656e4c61796572466f7265784f7261636c653a206e6f742072656c617965726044820152fd5b5f80fd5b34610235575f3660031901126102355760205f54604051908152f35b34610235575f366003190112610235576040517f00000000000000000000000000000000000000000000000000000000000000006001600160a01b03168152602090f35b34610235575f366003190112610235576020600154604051908152f35b34610235575f366003190112610235576020600254604051908152f35b34610235575f3660031901126102355760805f5480158015610310575b600154600254906040519384526020840152604083015215156060820152f35b506003548015159081610324575b506102f0565b905061033260015442610475565b118361031e565b34610235575f366003190112610235575f5480156103df57600354801515806103d4575b61036d575b602082604051908152f35b61037960015442610475565b116103845781610362565b60405162461bcd60e51b815260206004820152602260248201527f47656e4c61796572466f7265784f7261636c653a2072617465206973207374616044820152616c6560f01b6064820152608490fd5b50600154151561035d565b60405162461bcd60e51b815260206004820152602a60248201527f47656e4c61796572466f7265784f7261636c653a206e6f207261746520636f6d6044820152691b5a5d1d1959081e595d60b21b6064820152608490fd5b34610235575f366003190112610235576020610451610482565b6040519015158152f35b34610235575f366003190112610235576020906003548152f35b9190820391821161013257565b5f54156104a75760035480156104a25761049e60015442610475565b1190565b505f90565b60019056fea2646970667358221220b45ba0da5c3a13584bcae903946cb6d67a29ab8941f8117a7f204e93c7b2f0e264736f6c63430008210033","linkReferences":{}},"methodIdentifiers":{"commitRate(uint256)":"b203d1dd","getRate()":"679aefce","isStale()":"1a26f447","maxAgeSeconds()":"14d04ea6","rate18()":"af6cc671","rateInfo()":"690adb53","relayer()":"8406c079","updateCount()":"69b4ecc9","updatedAt()":"7519ab50"},"id":36}