{"abi":[{"type":"constructor","inputs":[{"name":"_exporter","type":"address","internalType":"address"},{"name":"_importer","type":"address","internalType":"address"},{"name":"_invoiceToken","type":"address","internalType":"address"},{"name":"_settlementToken","type":"address","internalType":"address"},{"name":"_invoiceAmountBOB","type":"uint256","internalType":"uint256"},{"name":"_forexOracle","type":"address","internalType":"address"},{"name":"_manualRate","type":"uint256","internalType":"uint256"},{"name":"_description","type":"string","internalType":"string"}],"stateMutability":"nonpayable"},{"type":"function","name":"cancel","inputs":[],"outputs":[],"stateMutability":"nonpayable"},{"type":"function","name":"confirmDelivery","inputs":[],"outputs":[],"stateMutability":"nonpayable"},{"type":"function","name":"courtCase","inputs":[],"outputs":[{"name":"","type":"address","internalType":"address"}],"stateMutability":"view"},{"type":"function","name":"courtReasoning","inputs":[],"outputs":[{"name":"","type":"string","internalType":"string"}],"stateMutability":"view"},{"type":"function","name":"courtVerdict","inputs":[],"outputs":[{"name":"","type":"uint8","internalType":"uint8"}],"stateMutability":"view"},{"type":"function","name":"deliveredAt","inputs":[],"outputs":[{"name":"","type":"uint256","internalType":"uint256"}],"stateMutability":"view"},{"type":"function","name":"description","inputs":[],"outputs":[{"name":"","type":"string","internalType":"string"}],"stateMutability":"view"},{"type":"function","name":"escrowAmountPEN","inputs":[],"outputs":[{"name":"","type":"uint256","internalType":"uint256"}],"stateMutability":"view"},{"type":"function","name":"exporter","inputs":[],"outputs":[{"name":"","type":"address","internalType":"address"}],"stateMutability":"view"},{"type":"function","name":"exporterDisputed","inputs":[],"outputs":[{"name":"","type":"bool","internalType":"bool"}],"stateMutability":"view"},{"type":"function","name":"fundEscrow","inputs":[{"name":"amount","type":"uint256","internalType":"uint256"}],"outputs":[],"stateMutability":"nonpayable"},{"type":"function","name":"getDealInfo","inputs":[],"outputs":[{"name":"_status","type":"uint8","internalType":"enum TradeFinanceEscrow.Status"},{"name":"_exporter","type":"address","internalType":"address"},{"name":"_importer","type":"address","internalType":"address"},{"name":"_invoiceAmountBOB","type":"uint256","internalType":"uint256"},{"name":"_lockedForexRate","type":"uint256","internalType":"uint256"},{"name":"_escrowAmountPEN","type":"uint256","internalType":"uint256"},{"name":"_settlementAmountPEN","type":"uint256","internalType":"uint256"},{"name":"_description","type":"string","internalType":"string"},{"name":"_shipmentRef","type":"string","internalType":"string"},{"name":"_courtCase","type":"address","internalType":"address"},{"name":"_courtVerdict","type":"uint8","internalType":"uint8"}],"stateMutability":"view"},{"type":"function","name":"importer","inputs":[],"outputs":[{"name":"","type":"address","internalType":"address"}],"stateMutability":"view"},{"type":"function","name":"importerDisputed","inputs":[],"outputs":[{"name":"","type":"bool","internalType":"bool"}],"stateMutability":"view"},{"type":"function","name":"invoiceAmountBOB","inputs":[],"outputs":[{"name":"","type":"uint256","internalType":"uint256"}],"stateMutability":"view"},{"type":"function","name":"invoiceToken","inputs":[],"outputs":[{"name":"","type":"address","internalType":"contract IERC20"}],"stateMutability":"view"},{"type":"function","name":"lockedForexRate","inputs":[],"outputs":[{"name":"","type":"uint256","internalType":"uint256"}],"stateMutability":"view"},{"type":"function","name":"raiseDispute","inputs":[{"name":"_courtCase","type":"address","internalType":"address"}],"outputs":[],"stateMutability":"nonpayable"},{"type":"function","name":"receiveUnderProtest","inputs":[{"name":"reason","type":"string","internalType":"string"}],"outputs":[],"stateMutability":"nonpayable"},{"type":"function","name":"resolveFromCourt","inputs":[],"outputs":[],"stateMutability":"nonpayable"},{"type":"function","name":"settle","inputs":[],"outputs":[],"stateMutability":"nonpayable"},{"type":"function","name":"settlementAmountPEN","inputs":[],"outputs":[{"name":"","type":"uint256","internalType":"uint256"}],"stateMutability":"view"},{"type":"function","name":"settlementToken","inputs":[],"outputs":[{"name":"","type":"address","internalType":"contract IERC20"}],"stateMutability":"view"},{"type":"function","name":"shipmentRef","inputs":[],"outputs":[{"name":"","type":"string","internalType":"string"}],"stateMutability":"view"},{"type":"function","name":"status","inputs":[],"outputs":[{"name":"","type":"uint8","internalType":"enum TradeFinanceEscrow.Status"}],"stateMutability":"view"},{"type":"function","name":"submitShipment","inputs":[{"name":"ref","type":"string","internalType":"string"}],"outputs":[],"stateMutability":"nonpayable"},{"type":"event","name":"DealCancelled","inputs":[],"anonymous":false},{"type":"event","name":"DealCreated","inputs":[{"name":"exporter","type":"address","indexed":true,"internalType":"address"},{"name":"importer","type":"address","indexed":true,"internalType":"address"},{"name":"invoiceAmountBOB","type":"uint256","indexed":false,"internalType":"uint256"},{"name":"lockedForexRate","type":"uint256","indexed":false,"internalType":"uint256"}],"anonymous":false},{"type":"event","name":"DealSettled","inputs":[{"name":"settlementAmountPEN","type":"uint256","indexed":false,"internalType":"uint256"},{"name":"lockedRate18","type":"uint256","indexed":false,"internalType":"uint256"}],"anonymous":false},{"type":"event","name":"DeliveryConfirmed","inputs":[],"anonymous":false},{"type":"event","name":"DisputeRaised","inputs":[{"name":"by","type":"address","indexed":true,"internalType":"address"},{"name":"courtCase","type":"address","indexed":false,"internalType":"address"}],"anonymous":false},{"type":"event","name":"DisputeResolved","inputs":[{"name":"verdict","type":"uint8","indexed":false,"internalType":"uint8"},{"name":"reasoning","type":"string","indexed":false,"internalType":"string"}],"anonymous":false},{"type":"event","name":"EscrowFunded","inputs":[{"name":"importer","type":"address","indexed":true,"internalType":"address"},{"name":"amountPEN","type":"uint256","indexed":false,"internalType":"uint256"},{"name":"lockedRate","type":"uint256","indexed":false,"internalType":"uint256"},{"name":"impliedSettlementPEN","type":"uint256","indexed":false,"internalType":"uint256"}],"anonymous":false},{"type":"event","name":"FundsReleased","inputs":[{"name":"to","type":"address","indexed":true,"internalType":"address"},{"name":"amount","type":"uint256","indexed":false,"internalType":"uint256"}],"anonymous":false},{"type":"event","name":"ReceivedUnderProtest","inputs":[{"name":"importer","type":"address","indexed":true,"internalType":"address"},{"name":"reason","type":"string","indexed":false,"internalType":"string"}],"anonymous":false},{"type":"event","name":"ShipmentSubmitted","inputs":[{"name":"ref","type":"string","indexed":false,"internalType":"string"}],"anonymous":false},{"type":"error","name":"SafeERC20FailedOperation","inputs":[{"name":"token","type":"address","internalType":"address"}]}],"bytecode":{"object":"0x6101408060405234610367576122a7803803809161001d8285610581565b83398101906101008183031261036757610036816105a4565b91610043602083016105a4565b91610050604082016105a4565b61005c606083016105a4565b9260808301519361006f60a085016105a4565b60c085015160e086015190959194916001600160401b038211610367570183601f82011215610367578051906001600160401b0382116104c157604051946100c1601f8401601f191660200187610581565b8286526020838301011161036757815f9260208093018388015e850101526001600160a01b038816968715158061056f575b1561053b576001600160a01b03811698888a146105095787156104d55760805260a0526001600160a01b0390811660c0521660e0526101008490528051906001600160401b0382116104c1575f5490600182811c921680156104b7575b60208310146104a35781601f84931161042e575b50602090601f83116001146103cb575f926103c0575b50508160011b915f199060031b1c1916175f555b6004805460ff191690556001600160a01b031690811561037e57506020600491604051928380926333cd77e760e11b82525afa908115610373575f9161033d575b50610120525b61010051610120519182820291808304841490151715610329577f5387469b86b6572c8fdddc81c5c2903195f82a89dccfc913c1267889fceebd8e92670de0b6b3a76400006040930460025582519182526020820152a3604051611cee90816105b9823960805181818161014d015281816104c70152818161086d01528181610c72015281816111670152818161137b0152818161165e01526117c9015260a051818181610280015281816106b20152818161071101528181610c9a01528181610e7801528181610ebd015281816112c5015281816113aa015281816118a0015281816118e40152611913015260c051816116bf015260e0518181816102f70152818161082a0152818161118f015281816112ed0152818161135901526117a801526101005181818161045e0152610cc10152610120518181816102430152818161037001528181610ce7015261185d0152f35b634e487b7160e01b5f52601160045260245ffd5b90506020813d60201161036b575b8161035860209383610581565b8101031261036757515f6101cf565b5f80fd5b3d915061034b565b6040513d5f823e3d90fd5b8091501561038f57610120526101d5565b60405162461bcd60e51b81526020600482015260096024820152687a65726f207261746560b81b6044820152606490fd5b015190505f8061017a565b5f8080528281209350601f198516905b81811061041657509084600195949392106103fe575b505050811b015f5561018e565b01515f1960f88460031b161c191690555f80806103f1565b929360206001819287860151815501950193016103db565b82811115610164575f8052909150601f830160051c7f290decd9548b62a8d60345a988386fc84ba6bc95484008f6362f93160ef3e5636020851061049b575b849392601f0160051c82900391015f5b82811061048b575050610164565b5f8183015585945060010161047d565b5f915061046d565b634e487b7160e01b5f52602260045260245ffd5b91607f1691610150565b634e487b7160e01b5f52604160045260245ffd5b60405162461bcd60e51b815260206004820152600c60248201526b7a65726f20696e766f69636560a01b6044820152606490fd5b60405162461bcd60e51b815260206004820152600a60248201526973616d6520706172747960b01b6044820152606490fd5b60405162461bcd60e51b815260206004820152600c60248201526b7a65726f206164647265737360a01b6044820152606490fd5b506001600160a01b03811615156100f3565b601f909101601f19168101906001600160401b038211908210176104c157604052565b51906001600160a01b03821682036103675756fe60806040526004361015610011575f80fd5b5f3560e01c806301b41d891461197d57806311da60b41461173a578063200d2ed2146117135780632038cd88146116ee578063464b5391146116aa5780634adce02d1461168d5780634bbbe0cc146116495780634e905ef014610ff75780635dc8be9714610f655780635e10177b14610ea75780636293230114610e6357806364b91fa714610e405780636d60502f14610bc05780637284e41614610ae157806374e8984f14610ab5578063765634db146108595780637b9e618d146108155780638618f87a146106fd5780639156ec1f146106e05780639908ff061461049e5780639e7d9d2814610481578063a74628c314610447578063c9c31af514610266578063d274bf1e1461022c578063d98fb4bc1461020a5763ea8a1af014610137575f80fd5b34610206575f3660031901126102065761017b337f00000000000000000000000000000000000000000000000000000000000000006001600160a01b031614611b7d565b60ff6004541660098110156101f2576040515f516020611c995f395f51905f5260208201525f6037820152601881526101bf916101b9603883611a47565b15611aeb565b600860ff1960045416176004557f39788e9aea41c531a707c7fc09db5f9962713d2c540860052090e5e39e6105155f80a1005b634e487b7160e01b5f52602160045260245ffd5b5f80fd5b34610206575f36600319011261020657602060ff600654166040519015158152f35b34610206575f3660031901126102065760206040517f00000000000000000000000000000000000000000000000000000000000000008152f35b34610206576020366003190112610206576004356102ae337f00000000000000000000000000000000000000000000000000000000000000006001600160a01b031614611b41565b60ff6004541660098110156101f2576040515f516020611c995f395f51905f5260208201525f6037820152601881526102ec916101b9603883611a47565b6002548110610402577f00000000000000000000000000000000000000000000000000000000000000006040516323b872dd60e01b5f5233600452306024528260445260205f60648180865af19060015f51148216156103e1575b6040525f606052156103c1575080600155600160ff1960045416176004556002546040519182527f0000000000000000000000000000000000000000000000000000000000000000602083015260408201527fd3f0e58aa4675ac50da832cc55494b3f7205de4eaf8f3d703da23b48105db95c60603392a2005b635274afe760e01b5f9081526001600160a01b0391909116600452602490fd5b9060018115166103f957823b15153d15161690610347565b503d5f823e3d90fd5b60405162461bcd60e51b815260206004820152601760248201527f657363726f772062656c6f7720736574746c656d656e740000000000000000006044820152606490fd5b34610206575f3660031901126102065760206040517f00000000000000000000000000000000000000000000000000000000000000008152f35b34610206575f366003190112610206576020600554604051908152f35b34610206576020366003190112610206576004356001600160a01b0381169081810361020657337f00000000000000000000000000000000000000000000000000000000000000006001600160a01b031614908180156106ae575b1561067b5760ff6004541660098110156101f2576007811490811561063e575b50156105e25782156105ae576006805462010000600160b01b03191660109290921b62010000600160b01b03169190911790556004805460ff191660051790551561059a57600160ff1960065416176006555b6040519081527fdf1affde77d007bfd4990bc89fe8331196581fa374b80c2dd23a9b66f90f40da60203392a2005b61010061ff0019600654161760065561056c565b60405162461bcd60e51b815260206004820152600c60248201526b7a65726f206164647265737360a01b6044820152606490fd5b60405162461bcd60e51b815260206004820152602e60248201527f63616e6e6f7420646973707574653a2077726f6e6720737461747573206f722060448201526d1dda5b991bddc8195e1c1a5c995960921b6064820152608490fd5b60039150148061064f575b84610519565b50600554620697808101809111610667574210610649565b634e487b7160e01b5f52601160045260245ffd5b60405162461bcd60e51b815260206004820152600b60248201526a6e6f74206120706172747960a81b6044820152606490fd5b50337f00000000000000000000000000000000000000000000000000000000000000006001600160a01b0316146104f9565b34610206575f366003190112610206576020600254604051908152f35b346102065761070b36611a9a565b61073f337f00000000000000000000000000000000000000000000000000000000000000006001600160a01b031614611b41565b60ff6004541660098110156101f2576040515f516020611c995f395f51905f526020820152600160f91b60378201526107929160029061078c83603881015b03601f198101855284611a47565b14611aeb565b80156107e1576107dc7f390225685a92900508720888a9d3155175b8a7c9a4de3c3c4f49e2f7fa54c38d91600760ff19600454161760045542600555604051918291339583611bb9565b0390a2005b60405162461bcd60e51b815260206004820152600c60248201526b32b6b83a3c903932b0b9b7b760a11b6044820152606490fd5b34610206575f366003190112610206576040517f00000000000000000000000000000000000000000000000000000000000000006001600160a01b03168152602090f35b346102065761086736611a9a565b61089b337f00000000000000000000000000000000000000000000000000000000000000006001600160a01b031614611b7d565b60ff6004541660098110156101f2576040515f516020611c995f395f51905f526020820152600160f81b6037820152601881526108e09160019061078c603884611a47565b8015610a845767ffffffffffffffff8111610a7057610900600354611a0f565b601f8111610a15575b505f91601f82116001146109885761095882807f696a3d501c56a651e1acc1ab2ba529cec297f45bf988c8cbf3bc06e72faf73fc955f9161097d575b508160011b915f199060031b1c19161790565b6003555b600260ff19600454161760045561097860405192839283611bb9565b0390a1005b905083013586610945565b601f19821660035f525f516020611c395f395f51905f52905f5b8181106109fd575093837f696a3d501c56a651e1acc1ab2ba529cec297f45bf988c8cbf3bc06e72faf73fc95106109e4575b5050600182811b0160035561095c565b8201355f19600385901b60f8161c1916905583806109d4565b838601358355602095860195600190930192016109a2565b818111156109095760035f52601f820160051c5f516020611c395f395f51905f5260208410610a68575b81601f9101920160051c03905f5b828110610a5b575050610909565b5f82820155600101610a4d565b5f9150610a3f565b634e487b7160e01b5f52604160045260245ffd5b60405162461bcd60e51b815260206004820152600960248201526832b6b83a3c903932b360b91b6044820152606490fd5b34610206575f3660031901126102065760065460405160109190911c6001600160a01b03168152602090f35b34610206575f366003190112610206576040515f5f54610b0081611a0f565b8084529060018116908115610b9c5750600114610b40575b610b3c83610b2881850382611a47565b604051918291602083526020830190611a69565b0390f35b5f8080527f290decd9548b62a8d60345a988386fc84ba6bc95484008f6362f93160ef3e563939250905b808210610b8257509091508101602001610b28610b18565b919260018160209254838588010152019101909291610b6a565b60ff191660208086019190915291151560051b84019091019150610b289050610b18565b34610206575f3660031901126102065760ff600454166001549060025460065490604051905f825f5491610bf383611a0f565b8083529260018116908115610e215750600114610dc4575b610c1792500383611a47565b604051945f600354610c2881611a0f565b8089529060018116908115610da15750600114610d5b575b5060ff93610d36938893610c5c610c689a610d27950386611a47565b604051998a809a611a8d565b6001600160a01b037f0000000000000000000000000000000000000000000000000000000000000000811660208b01527f00000000000000000000000000000000000000000000000000000000000000001660408a01527f000000000000000000000000000000000000000000000000000000000000000060608a01527f000000000000000000000000000000000000000000000000000000000000000060808a015260a089015260c088015261016060e08801819052870190611a69565b90858203610100870152611a69565b601083901c6001600160a01b031661012085015260b09290921c166101408301520390f35b60035f90815291505f516020611c395f395f51905f525b818310610d87575050860160200160ff610c40565b6001816020929493945483858d0101520191019190610d72565b60ff19166020808b019190915291151560051b8901909101915060ff9050610c40565b505f80805290917f290decd9548b62a8d60345a988386fc84ba6bc95484008f6362f93160ef3e5635b818310610e05575050906020610c1792820101610c0b565b6020919350806001915483858901015201910190918492610ded565b60209250610c1794915060ff191682840152151560051b820101610c0b565b34610206575f36600319011261020657602060ff60065460b01c16604051908152f35b34610206575f366003190112610206576040517f00000000000000000000000000000000000000000000000000000000000000006001600160a01b03168152602090f35b34610206575f36600319011261020657610eeb337f00000000000000000000000000000000000000000000000000000000000000006001600160a01b031614611b41565b60ff6004541660098110156101f2576040515f516020611c995f395f51905f526020820152600160f91b6037820152610f2e9160029061078c836038810161077e565b600360ff196004541617600455426005557f4cfed5a6b337f78f2df5b8499b67efc08ce0d2cbed5d1be5c62bb6e0295e87855f80a1005b34610206575f366003190112610206576040515f600754610f8581611a0f565b8084529060018116908115610b9c5750600114610fac57610b3c83610b2881850382611a47565b60075f9081525f516020611c595f395f51905f52939250905b808210610fdd57509091508101602001610b28610b18565b919260018160209254838588010152019101909291610fc5565b34610206575f3660031901126102065760ff6004541660098110156101f2576040515f516020611c995f395f51905f526020820152600560f81b60378201526018815261104c9160059061078c603884611a47565b600654601081901c6001600160a01b0316801561160d57604051631006976960e11b8152602081600481855afa90811561156f5760049160ff915f916115ee575b5016036115a957604051631aae894f60e21b815290602082600481845afa92831561156f576004935f93849161157a575b5060ff60b01b1990911660b09190911b60ff60b01b1617600655604051632895b4ff60e11b815292839182905afa90811561156f575f916114e5575b50805167ffffffffffffffff8111610a7057611117600754611a0f565b601f811161148a575b50602091601f821160011461141f5761114f925f9183611414575b50508160011b915f199060031b1c19161790565b6007555b60065460b01c60ff16600181036112bc57507f00000000000000000000000000000000000000000000000000000000000000006111b3600154827f0000000000000000000000000000000000000000000000000000000000000000611be0565b6001546040519081526001600160a01b03909116905f516020611c795f395f51905f5290602090a25b600660ff19600454161760045560ff60065460b01c16604051908152604060208201525f60075461120c81611a0f565b908160408501526001811690815f1461129a5750600114611250575b7f14b812cbe0f25c62be5e1ba71bbb496a49d7580b2108409940c8a630d55e1c6d83830384a1005b91905060075f525f516020611c595f395f51905f52915f905b80821061127f5750909150810160600181611228565b91926001816020925460608588010152019101909291611269565b60ff191660608086019190915291151560051b84019091019150829050611228565b60020361133e577f0000000000000000000000000000000000000000000000000000000000000000611311600154827f0000000000000000000000000000000000000000000000000000000000000000611be0565b6001546040519081526001600160a01b03909116905f516020611c795f395f51905f5290602090a26111dc565b60015460011c5f516020611c795f395f51905f5260206113fc7f0000000000000000000000000000000000000000000000000000000000000000937f00000000000000000000000000000000000000000000000000000000000000006113a5828288611be0565b6113dd7f000000000000000000000000000000000000000000000000000000000000000096876113d785600154611b1b565b91611be0565b6040518281526001600160a01b039091169085908590a2600154611b1b565b6040519081526001600160a01b0390931692a26111dc565b01519050838061113b565b601f1982169260075f525f516020611c595f395f51905f52915f5b8581106114725750836001951061145a575b505050811b01600755611153565b01515f1960f88460031b161c1916905582808061144c565b9192602060018192868501518155019401920161143a565b818111156111205760075f52601f820160051c5f516020611c595f395f51905f52602084106114dd575b81601f9101920160051c03905f5b8281106114d0575050611120565b5f828201556001016114c2565b5f91506114b4565b90503d805f833e6114f68183611a47565b8101906020818303126102065780519067ffffffffffffffff8211610206570181601f820112156102065780519067ffffffffffffffff8211610a70576040519261154b601f8401601f191660200185611a47565b8284526020838301011161020657815f9260208093018386015e83010152816110fa565b6040513d5f823e3d90fd5b61159c915060203d6020116115a2575b6115948183611a47565b810190611b28565b856110be565b503d61158a565b60405162461bcd60e51b815260206004820152601b60248201527f636f7572742063617365206e6f7420796574207265736f6c76656400000000006044820152606490fd5b611607915060203d6020116115a2576115948183611a47565b8561108d565b60405162461bcd60e51b81526020600482015260146024820152731b9bc818dbdd5c9d0818d85cd9481b1a5b9ad95960621b6044820152606490fd5b34610206575f366003190112610206576040517f00000000000000000000000000000000000000000000000000000000000000006001600160a01b03168152602090f35b34610206575f366003190112610206576020600154604051908152f35b34610206575f366003190112610206576040517f00000000000000000000000000000000000000000000000000000000000000006001600160a01b03168152602090f35b34610206575f36600319011261020657602060ff60065460081c166040519015158152f35b34610206575f36600319011261020657602060ff600454166117386040518092611a8d565bf35b34610206575f3660031901126102065760ff6004541660098110156101f2576040515f516020611c995f395f51905f526020820152600360f81b60378201526018815261178f9160039061078c603884611a47565b600554620697808101809111610667574210611910575b7f00000000000000000000000000000000000000000000000000000000000000007f0000000000000000000000000000000000000000000000000000000000000000906117f66002548383611be0565b61180560015460025490611b1b565b918215159183836118de575b5050600460ff19815416176004555f516020611c795f395f51905f526020600254927f928d6152ac2a52f4a65094c6b49004af42ed6f4203d75ee883b97f53fbd6b8f2604080518681527f000000000000000000000000000000000000000000000000000000000000000085820152a16040519384526001600160a01b031692a261189857005b6040519081527f00000000000000000000000000000000000000000000000000000000000000006001600160a01b0316905f516020611c795f395f51905f5290602090a2005b611909917f000000000000000000000000000000000000000000000000000000000000000090611be0565b8383611811565b337f00000000000000000000000000000000000000000000000000000000000000006001600160a01b0316146117a65760405162461bcd60e51b8152602060048201526015602482015274646973707574652077696e646f772061637469766560581b6044820152606490fd5b34610206575f366003190112610206576040515f60035461199d81611a0f565b8084529060018116908115610b9c57506001146119c457610b3c83610b2881850382611a47565b60035f9081525f516020611c395f395f51905f52939250905b8082106119f557509091508101602001610b28610b18565b9192600181602092548385880101520191019092916119dd565b90600182811c92168015611a3d575b6020831014611a2957565b634e487b7160e01b5f52602260045260245ffd5b91607f1691611a1e565b90601f8019910116810190811067ffffffffffffffff821117610a7057604052565b805180835260209291819084018484015e5f828201840152601f01601f1916010190565b9060098210156101f25752565b9060206003198301126102065760043567ffffffffffffffff811161020657826023820112156102065780600401359267ffffffffffffffff84116102065760248483010111610206576024019190565b15611af35750565b60405162461bcd60e51b815260206004820152908190611b17906024830190611a69565b0390fd5b9190820391821161066757565b90816020910312610206575160ff811681036102065790565b15611b4857565b60405162461bcd60e51b815260206004820152600d60248201526c37b7363c9034b6b837b93a32b960991b6044820152606490fd5b15611b8457565b60405162461bcd60e51b815260206004820152600d60248201526c37b7363c9032bc3837b93a32b960991b6044820152606490fd5b90918060409360208452816020850152848401375f828201840152601f01601f1916010190565b916040519163a9059cbb60e01b5f5260018060a01b031660045260245260205f60448180865af19060015f5114821615611c20575b604052156103c15750565b9060018115166103f957823b15153d15161690611c1556fec2575a0e9e593c00f959f8c92f12db2869c3395a3b0502d05e2516446f71f85ba66cc928b5edb82af9bd49922954155ab7b0942694bea4ce44661d9a8736c688221c08a06b07a64803b3787861a3f276212fcccb51c2e6234077a9b8cb13047a77726f6e67207374617475733a20657870656374656420000000000000000000a2646970667358221220f9b37e43c07861cb9079fb6f430d47ca2c8cedd3fa7577617fdc7b2ef443e10c64736f6c63430008210033","linkReferences":{}},"methodIdentifiers":{"cancel()":"ea8a1af0","confirmDelivery()":"5e10177b","courtCase()":"74e8984f","courtReasoning()":"5dc8be97","courtVerdict()":"64b91fa7","deliveredAt()":"9e7d9d28","description()":"7284e416","escrowAmountPEN()":"4adce02d","exporter()":"4bbbe0cc","exporterDisputed()":"d98fb4bc","fundEscrow(uint256)":"c9c31af5","getDealInfo()":"6d60502f","importer()":"62932301","importerDisputed()":"2038cd88","invoiceAmountBOB()":"a74628c3","invoiceToken()":"464b5391","lockedForexRate()":"d274bf1e","raiseDispute(address)":"9908ff06","receiveUnderProtest(string)":"8618f87a","resolveFromCourt()":"4e905ef0","settle()":"11da60b4","settlementAmountPEN()":"9156ec1f","settlementToken()":"7b9e618d","shipmentRef()":"01b41d89","status()":"200d2ed2","submitShipment(string)":"765634db"},"id":35}